:020000040800F2
:10000000480C0020C901000893110008FD0D0008EC
:1000100091110008CF0200089914000800000000A8
:100020000000000000000000000000003314000881
:10003000D102000800000000311400083514000847
:10004000E3010008E3010008E3010008E301000800
:10005000E3010008E3010008E3010008E3010008F0
:10006000E3010008E3010008E3010008E3010008E0
:10007000E3010008E3010008E3010008E3010008D0
:10008000E3010008E3010008E3010008E3010008C0
:10009000E3010008E3010008E3010008E3010008B0
:1000A000E3010008E3010008E3010008E3010008A0
:1000B000E3010008E3010008E3010008E301000890
:1000C000E3010008E3010008E3010008E301000880
:1000D000E3010008E3010008E3010008E301000870
:1000E000E3010008E3010008E301000800F002F862
:1000F00000F05AF80AA090E8000C82448344AAF168
:100100000107DA4501D100F04FF8AFF2090EBAE865
:100110000F0013F0010F18BFFB1A43F0010318473B
:10012000EC1C00000C1D00000A444FF0000C10F8FD
:10013000013B13F0070408BF10F8014B1D1108BF65
:1001400010F8015B641E05D010F8016B641E01F805
:10015000016BF9D113F0080F1EBF10F8014BAD1C55
:100160000C1B09D16D1E58BF01F801CBFAD505E073
:1001700014F8016B01F8016B6D1EF9D59142D6D3CD
:10018000704700000023002400250026103A28BFF5
:1001900078C1FBD8520728BF30C148BF0B607047F9
:1001A0001FB51FBD10B510BD00F058F81146FFF780
:1001B000F7FF01F0A7F900F076F803B4FFF7F2FFBC
:1001C00003BC00F07DF8000009488047094800475B
:1001D000FEE7FEE7FEE7FEE7FEE7FEE7FEE7FEE7F7
:1001E000FEE7FEE704480549054A064B7047000054
:1001F00097140008ED00000848060020480C002075
:1002000048080020480800204FF0000200B51346BF
:1002100094469646203922BFA0E80C50A0E80C5026
:10022000B1F12001BFF4F7AF090728BFA0E80C50D7
:1002300048BF0CC05DF804EB890028BF40F8042BD0
:1002400008BF704748BF20F8022B11F0804F18BF3D
:1002500000F8012B7047704770477047754600F0F3
:100260002BF8AE4605006946534620F00700854648
:1002700018B020B5FFF7B6FFBDE820404FF00006EC
:100280004FF000074FF000084FF0000B21F007017E
:10029000AC46ACE8C009ACE8C009ACE8C009ACE8C1
:1002A000C0098D46704710B50446AFF30080204664
:1002B000BDE81040FFF781BF00487047E40500200B
:1002C00001491820ABBEFEE7260002007047FEE79A
:1002D000704772B6FEE7000070B5044600F004F9FE
:1002E0000546601C02D004480078044400F0FCF885
:1002F000401BA042FAD370BD000400202DE9F84F46
:10030000DFF8B8910024A9F1040B23460F2709F167
:10031000040AABF1040EC9E00125A5402A40AA4217
:100320007DD1674ED1F804C0ACEB0608B44532D09D
:1003300014DCBCF1030F3AD009DCBCF1000F2AD069
:10034000BCF1010F1CD0BCF1020F31D11DE0BCF19A
:10035000110F17D0BCF1120F2AD119E0B8F5881F80
:1003600019D006DCB8F5803F15D0B8F5801F1FD135
:1003700011E0B8F5001F0ED0B8F5041F18D10AE03F
:10038000CB6815E0CB681B1D12E0CB6808330FE08B
:10039000CB680C330CE08B682BB1012B4FF00803BA
:1003A00003D0456104E0042302E0056100E000237E
:1003B000FF2A01D8064601E000F104064FEA840551
:1003C00001D9A5F12005D6F8008007FA05FC28EA36
:1003D0000C0803FA05F548EA0508C6F800804D68E0
:1003E000ED0062D5374DAE6946F00106AE61AD69EC
:1003F00024F0030605F001050095334D06EB050CCE
:10040000DCF80850A607360F07FA06F825EA0805B3
:10041000DFF8B880404503D14FF0000817E044E012
:10042000DFF8AC80404502D14FF001080FE0DFF863
:10043000A480404502D14FF0020808E0DFF8988020
:10044000404502D14FF0030801E04FF0040808FADC
:1004500006F848EA0508CCF808804D68D9F800602D
:10046000ED024D4601D5164300E096432E604D68DF
:10047000DAF80060AD02554601D5164300E0964318
:100480002E604D68DBF80060AD035D4601D5164374
:1004900000E096432E604D68DEF80060ED0375467F
:1004A00001D5164300E096432E60641C0D682A4671
:1004B000E5407FF431AFBDE8F88F0000080401404B
:1004C000000011100010024000000140000801402F
:1004D000000C014000100140001401400AB101610C
:1004E00070470904FBE7000001488068704700007E
:1004F0000004002070B5040025D094F83D000025CC
:1005000020B984F83C50204600F050F9242084F8AB
:100510003D002068016821F0010101602068016848
:1005200041F4004101602068016821F4004101604C
:1005300000F08AFA4D4A6168914201D84C4900E0C6
:100540004C49884201D2012070BD4B492368B0FB61
:10055000F1F15E6826F03F060E435E6063689342E9
:1005600006D94FF4967359434FF47A73B1FBF3F104
:100570002368491C1E6A26F03F06314319626168F0
:10058000914210D84900401EB0FBF1F2521CC2F358
:100590000B02042A01D2042022E0B0FBF1F0401C3F
:1005A000C0F30B001CE0A268F2B301EBC10303EB44
:1005B0000116431EB3FBF6F35B1C43F480431B059B
:1005C00049D092B301EBC10202EB0111401EB0FB16
:1005D000F1F0401CC0F30B0040F4804040F40040B8
:1005E0002168CA694CF6FF739A431043C861D4E985
:1005F000071001432068026822F0C0021143016025
:10060000D4E9030101432068826848F2FF339A432A
:1006100011438160D4E9050108432168CA6822F0CA
:10062000FF021043C86001E00EE016E02068016898
:1006300041F0010101602564202084F83D0025631C
:1006400084F83E50002070BD01EB4106431EB3FB11
:10065000F6F35B1CB3E70120C2E701EB4101401E4A
:10066000B0FBF1F0401CC0F30B00B7E7A08601001F
:1006700080841E0000093D0040420F002DE9FF4F1D
:1006800083B09A46DDE9119793460446DDF8408031
:10069000FFF72AFF054694F83D0020287FD1192353
:1006A000012240492046009500F040FC002876D108
:1006B00094F83C00012872D0012084F83C002068A6
:1006C0000168C90703D1016841F001010160206898
:1006D000016821F400610160212084F83D00402080
:1006E00084F83E0000262664C4F82480A4F82A90EA
:1006F000608D20852C48E062CDE9007553465A464E
:100700002046049900F092FB70B930E02A46394641
:10071000204600F0B1FC58B1206C042804D12068B8
:10072000016841F400710160012007B0BDE8F08F5D
:10073000606A216800780861606A401C6062218DEF
:10074000491E89B22185628D521E628522685369D5
:10075000DB435B070BD469B100781061606A401C11
:100760006062208D401E2085608D401E6085208D3A
:100770000028CBD12A463946204600F0ABFB0028A2
:10078000CAD154F83D0B016841F40071016020208A
:1007900004F81E09E67766770020C6E7FFE7022027
:1007A000C3E70000020010000000FFFF10B586B094
:1007B0000021009101910291039100680F49884244
:1007C0001AD10F4CA06940F00800A061A0696946E9
:1007D00000F008000490C020009012200190032037
:1007E00003900848FFF78AFDE06940F40010E061DB
:1007F000E06900F40010049006B010BD0054004001
:1008000000100240000C0140024881680278114447
:100810008160704700040020074810B5016841F06E
:1008200010010160032000F067F80F2000F006F8C7
:1008300000F024F8002010BD0020024070B50D4DDE
:1008400004464FF47A712878B1FBF0F00A49096840
:10085000B1FBF0F000F0BEFA48B9102C07D200222C
:100860002146501E00F028F800206C6070BD012069
:1008700070BD0000000400200C0400200C4808B5E6
:10088000816941F001018161816901F001010091FB
:10089000C16941F08051C161C06900F08050009091
:1008A0000448416821F0E06141F00071416008BDF9
:1008B0000010024000000140F0B40E4B1B680C46D3
:1008C000C3F30223C3F10705042D00D90425191D24
:1008D000072901D2002300E0DB1E012606FA05F1FC
:1008E000491E214099409E40761E16403143F0BC7F
:1008F00000F0F8BD0CED00E0064900F007020868C2
:100900004FF6FF03184040EA0220034A10430860F4
:10091000704700000CED00E00000FA052DE9F047FB
:100920000F46050061D0434E306800F00700B84222
:1009300009D2306820F0070038433060306800F09A
:100940000700B84251D128683B4C810712D54007B7
:1009500003D5606840F4E06060602878000703D544
:10096000606840F4605060606068A96820F0F00042
:10097000084360602878C00728D06868012810D034
:100980002168022810D0890700292EDA616821F039
:10099000030101436160FFF7A7FD804641F28839FA
:1009A0000DE021688903EFE78901EDE7FFF79CFD82
:1009B000A0EB0801494502D90320BDE8F087606833
:1009C000696800F00C00B0EB810FEFD1306800F0E7
:1009D0000700B8420BD9306820F007003843306078
:1009E000306800F00700B84201D00120E5E7287820
:1009F000400705D56068E96820F4E060084360605E
:100A00002878000706D56068296920F4605040EA1C
:100A1000C100606000F028F86168084AC1F3031162
:100A2000515CC8400649086006480068FFF706FFA9
:100A30000020C2E70020024000100240DA15000842
:100A40000C0400200404002004480549006849689B
:100A5000044AC1F30221515CC84070470C040020D5
:100A600000100240EA1500080E4A51680E4801F0D5
:100A70000C03042B11D0082B0FD10C48C1F3834376
:100A8000C903C05C0AD55168084AC1F34041921EAF
:100A9000515C054A5043B0FBF1F0704704494843AC
:100AA000704700000010024000127A00CA150008CA
:100AB00000093D002DE9F84F040070D02078C04DAA
:100AC000C00749D06868C0F38100012807D0686872
:100AD000C0F38100022809D16868C00306D52868E0
:100AE000800339D560680028E7D035E06068B0F54C
:100AF000803F0BD010B1B0F5A02F11D0286820F4A2
:100B000080302860286820F4802002E0286840F4C3
:100B100080302860606890B1FFF7E6FC06460AE086
:100B2000286840F480202860F0E700BFFFF7DCFC75
:100B3000801B642873D828688003F7D50CE0FFF782
:100B4000D3FC064605E000BFFFF7CEFC801B6428FF
:100B5000F0D828688003F7D420789A4E80074FF0A9
:100B600001094FF0000839D5686810F00C0F07D064
:100B70006868C0F38100022809D16868C00306D400
:100B80002868800714D52069012808D110E0206961
:100B9000B0B1C6F80090FFF7A7FC074605E00AE1F0
:100BA000FFF7A2FCC01B0228C4D828688007F7D52D
:100BB0002868616920F0F80040EAC10028600DE073
:100BC000C6F80080FFF790FC074604E0FFF78CFCB6
:100BD000C01B022823D828688007F7D42078000794
:100BE0002CD57948A169D9B1C0F80090FFF77CFCF9
:100BF000074604E0FFF778FCC01B02280FD8686A9C
:100C00008007F7D571484FF4FA510068B0FBF1F056
:100C1000009000BF0098411E0091FAD20EE080E0E3
:100C2000C0F80080FFF760FC074604E0FFF75CFCBB
:100C3000C01B022875D8686A8007F7D4207840075F
:100C400060D5E8690027C00008D4E86940F080500A
:100C5000E861E869012700F0805000905C48016875
:100C6000C90513D40168834641F480710160FFF720
:100C70003BFC824606E000BFFFF736FCA0EB0A0013
:100C800064284ED8DBF80000C005F5D5E0680128DF
:100C90000AD008B1052813D0286A20F00100286284
:100CA000286A20F0040002E0286A40F0010028626F
:100CB000E06841F2883B98B1FFF716FC82460BE0F2
:100CC000286A40F004002862EEE700BFFFF70CFC42
:100CD000A0EB0A0159455AD8286A8007F6D50CE0DE
:100CE000FFF702FC824605E0FFF7FEFBA0EB0A01DE
:100CF00059454CD8286A8007F6D41FB1E86920F01E
:100D00008050E861E06988B36968C1F38101022914
:100D100044D00228C6F8608004D0FFF7E5FB044603
:100D200038E034E0FFF7E0FB074604E0FFF7DCFBC8
:100D3000C01B02282BD828688001F7D4206AB0F5A0
:100D4000803F05D16868A16820F4003008436860DE
:100D5000D4E908010843696821F474110843686004
:100D6000C6F86090FFF7C0FB044606E025E000BF30
:100D7000FFF7BAFB001B022809D828688001F7D5C5
:100D80001BE000BFFFF7B0FB001B022802D90320C5
:100D9000BDE8F88F28688001F4D40EE00128F7D070
:100DA0006868226A00F48031914204D1616A00F4DB
:100DB0007010884201D00120EAE70020E8E7000037
:100DC0000010024000004242800442420C04002015
:100DD0000070004010B5401EB0F1807F01D30120AB
:100DE00010BD4FF0E02460610F21601700F07AFB26
:100DF0000020A06107202061002010BDFEE70168EF
:100E00004A69D24352050FD46FF480624A610021CF
:100E100040F8301F202242738173026942F00402BD
:100E20000261017301207047002070472DE9F843EB
:100E3000044600680D46DDE90897016898461646A5
:100E400041F4807101604B4600224FF001112046B1
:100E5000009700F06BF848B120680068C00502D523
:100E60004FF4007020640320BDE8F883216805F08A
:100E7000FE0008613B464A461549204600F09EF8B0
:100E800088B920684169806900903A464946204601
:100E900000F0F2F848B1206C042804D12068016801
:100EA00041F4007101600120DEE7F5B2B8F1010FF5
:100EB00009D02168300A08613A464946204600F0C8
:100EC000DBF80028E7D1206805610020CCE70000AE
:100ED0000200010070B516460D4604461EE020468D
:100EE000FFF78DFF08B1012070BD681C16D0FFF719
:100EF000FBFA801BA84200D885B920684069C0432E
:100F000040070BD5002044F8300F20216173A073F7
:100F1000216941F0200121612073E4E720684069E4
:100F2000C0434007DBD4002070BD00002DE9F0472E
:100F3000984617460D460446C1F30746DDF8209053
:100F40002AE000BFB8F1FF3F26D0FFF7CDFAA0EBB3
:100F50000901414502D8B8F1000F1DD12068012ECA
:100F600016D0806925EA00000004000C12D0002091
:100F7000B84211D1002044F8300F20216173A073D2
:100F8000216941F02001216120730120BDE8F08733
:100F90004069E7E70120EBE72068012E0AD080696D
:100FA00025EA00000004000C06D00020B842C9D099
:100FB0000020EBE74069F3E70120F7E72DE9F04770
:100FC000984616460D4604464FF000094FF0200A99
:100FD000C1F3074723E020684069C043400515D4AA
:100FE0002068016841F40071016021686FF480603D
:100FF0004861C4F8309084F83DA084F83E90216C9C
:1010000041F00401216484F83C9021E0701C06D07A
:10101000FFF76AFAA0EB0800B04203D816B1012F1F
:101020001FD021E02068012F15D0806925EA00003B
:101030000004000C18D000BF44F8309F84F80DA0C5
:1010400084F80E90216941F02001216184F80C9010
:101050000120BDE8F087406925EA00000004000C8B
:10106000EAD12068406901E02068806925EA000033
:101070000004000CAFD1ECE770B516460D460446EF
:101080001EE02046FFF7BBFE08B1012070BD681CC2
:1010900016D0FFF729FA801BA84200D885B920682E
:1010A0004069C04300060BD5002044F8300F2021D2
:1010B0006173A073216941F0200121612073E4E78D
:1010C00020684069C0430006DBD4002070BD0000EA
:1010D00070B586B000241C480094019402940394D7
:1010E000816941F010018161816901F01001049171
:1010F000816941F020018161816901F02001049141
:10110000816941F004018161816901F00401049168
:10111000816941F0080181618069012200F00800C5
:101120000A4E5503049029463046FFF7D7F911209F
:101130000095CDE901040220039069463046FFF78F
:10114000DDF806B070BD0000001002400010014044
:101150000D4810B50B4901600C49416000214FF466
:1011600080428160C0E9031241618161C161016215
:10117000FFF7C0F9002803D0BDE81040FFF7A9B879
:1011800010BD00000054004090050020801A0600A9
:10119000FEE7FEE770B5002404F1B000C0B2002104
:1011A00000F041F90021084600F03DF9002110202F
:1011B00000F039F900250121002000F034F96D1C00
:1011C000EDB2802DF7D3641CE4B2082CE4D370BDDB
:1011D0002DE9F04798461746824600260C46DDF872
:1011E000209011E02146504600F081F8554607E076
:1011F00019F806000121761C00F015F96D1CEDB2FE
:10120000BD42F5D3641CE4B24445EBD3BDE8F0879E
:1012100010B50021AE2000F006F90021084600F0CC
:1012200002F90021102000F0FEF80021402000F01B
:10123000FAF80021B02000F0F6F80021812000F03B
:10124000F2F80021FF2000F0EEF80021A12000F0CC
:10125000EAF80021A62000F0E6F80021A82000F01E
:10126000E2F800213F2000F0DEF80021C82000F065
:10127000DAF80021D32000F0D6F80021084600F06B
:10128000D2F80021D52000F0CEF80021802000F017
:10129000CAF80021D82000F0C6F80021052000F08F
:1012A000C2F80021D92000F0BEF80021F12000F0A2
:1012B000BAF80021DA2000F0B6F80021122000F080
:1012C000B2F80021DB2000F0AEF80021302000F061
:1012D000AAF800218D2000F0A6F80021142000F0CB
:1012E000A2F80021BDE81040AF2000F09CB810B576
:1012F0000446B031C8B2002100F095F8102040EA51
:101300001410002100F08FF804F00F00BDE8104029
:10131000002100F088B800002DE9F04115460E4686
:101320000746FFF7E4FF0F48002400EB8515012175
:10133000285D00F078F8641CE4B2102CF7D3761C1A
:10134000F1B23846FFF7D3FF00242819012190F8A5
:10135000200000F068F8641CE4B2102CF5D3BDE85E
:10136000F0810000100400202DE9F041203A002413
:101370000D468046D6B27F2803D900208D1C8046BA
:10138000EDB2102B294610D0FFF7B1FF164906EB3E
:10139000460001EB40050121285D00F044F8641C83
:1013A000E4B2062CF7D3BDE8F081FFF7A0FF0F4FA2
:1013B00004EB06100121385C00F035F8641CE4B23F
:1013C000082CF5D36D1CE9B24046FFF790FF0024CE
:1013D00004EB061038440121007A00F024F8641C64
:1013E000E4B2082CF4D3DEE7F21500081A1800085E
:1013F0002DE9F041984617460E46044600250DE0BB
:10140000434631462046FFF7AFFF0834E4B2782C5C
:1014100002D90024B61CF6B26D1CEDB27A5D002A2A
:10142000EED1BDE8F08109B100F04AB800F036B85D
:1014300070477047FFF7E8B930B58FB0282168468C
:10144000FEF7E2FE14210AA8FEF7DEFE01210804E1
:10145000CDE900100024029402250491CDE9075043
:101460004FF4E01009906846FFF724FB08B172B60C
:10147000FEE70F20CDE90A054FF48060CDE90C406E
:1014800002210AA80E94FFF749FA002801D072B68B
:10149000FEE70FB030BD7047FEE7000001B584B035
:1014A000012104A864228DE807000B460022782160
:1014B0000248FFF7E3F805B000BD000090050020EA
:1014C00001B584B0012104A864228DE807000B4611
:1014D000402278210248FFF7D1F805B000BD000096
:1014E000900500200907090E002804DB00F1E02028
:1014F00080F80014704700F00F0000F1E02080F841
:10150000141D704708B5FFF787F9FFF795FFFFF740
:10151000DFFDFFF71DFEFFF77BFEFFF73BFE4FF4FD
:101520007A74204DFFF736FE002211461046FFF771
:10153000F3FE012200211220FFF7EEFE022200211D
:101540002420FFF7E9FE032200213620FFF7E4FE06
:10155000042200214820FFF7DFFE052200215A2047
:10156000FFF7DAFE102310A203210620FFF740FF49
:10157000102311A206210020FFF73AFF102310A22A
:1015800006213F20FFF734FF2046FEF7A5FE00218D
:101590000823802208460095FFF71AFE2046FEF732
:1015A0009BFEBFE700000020302E393627204F4C2D
:1015B000454420544553540041534349493A00009F
:1015C000434F44453A0000000102020304050607A8
:1015D00008090A0B0C0D0E0F10100000000000008F
:1015E00000000102030406070809000000000102D0
:1015F00003040000000000000000002F00000000B5
:101600000700070000147F147F1400242A7F2A1289
:101610000062640813230036495522500000050378
:10162000000000001C224100000041221C000014A8
:10163000083E08140008083E0808000000A06000EA
:10164000000808080808000060600000002010087A
:101650000402003E5149453E0000427F40000042E6
:1016600061514946002141454B31001814127F1049
:10167000002745454539003C4A4949300001710978
:10168000050300364949493600064949291E00002C
:1016900036360000000056360000000814224100D3
:1016A0000014141414140000412214080002015103
:1016B000090600324959513E007C1211127C007F0C
:1016C00049494936003E41414122007F4141221CA7
:1016D000007F49494941007F09090901003E41490C
:1016E000497A007F0808087F0000417F4100002000
:1016F00040413F01007F08142241007F40404040AC
:10170000007F020C027F007F0408107F003E4141F1
:10171000413E007F09090906003E4151215E007FDC
:10172000091929460046494949310001017F010153
:10173000003F4040403F001F2040201F003F4038F6
:10174000403F006314081463000708700807006135
:101750005149454300007F41410000552A552A5513
:10176000000041417F0000040201020400404040AB
:101770004040000001020400002054545478007FCF
:101780004844443800384444442000384444487FA6
:1017900000385454541800087E0901020018A4A40B
:1017A000A47C007F080404780000447D40000040D1
:1017B00080847D00007F102844000000417F4000AD
:1017C000007C04180478007C080404780038444441
:1017D000443800FC242424180018242418FC007C1D
:1017E0000804040800485454542000043F44402096
:1017F000003C4040207C001C2040201C003C40302D
:10180000403C004428102844001CA0A0A07C0044B8
:1018100064544C4414141414141400000000000008
:1018200000000000000000000000000000F80000C0
:101830000000000000333000000000100C06100C07
:101840000600000000000000000040C07840C078A2
:101850004000043F04043F040400007088FC08308A
:101860000000001820FF211E0000F008F000E01822
:10187000000000211C031E211E0000F008887000DB
:1018800000001E2123241927211010160E0000002D
:1018900000000000000000000000000000E018044C
:1018A0000200000000071820400000020418E000B9
:1018B00000000040201807000000404080F08040F9
:1018C00040000202010F01020200000000F00000CF
:1018D00000000101011F01010100000000000000E3
:1018E000000080B070000000000000000000000058
:1018F00000000001010101010101000000000000E1
:101900000000003030000000000000000000806097
:101910001804006018060100000000E0100808101C
:10192000E000000F102020100F00001010F8000041
:1019300000000020203F20200000007008080888D8
:1019400070000030282422213000003008888848A8
:1019500030000018202020110E000000C02010F8D8
:10196000000000070424243F240000F808888808A9
:1019700008000019212020110E0000E010888818AE
:101980000000000F112020110E0000380808C83890
:1019900008000000003F0000000000708808088870
:1019A0007000001C222121221C0000E010080810F9
:1019B000E0000000312222110F00000000C0C00032
:1019C0000000000000303000000000000080000037
:1019D0000000000080600000000000008040201037
:1019E0000800000102040810200040404040404030
:1019F0004000040404040404040000081020408093
:101A000000000020100804020100007048080808C7
:101A1000F0000000003036010000C030C828E81097
:101A2000E0000718272423140B000000C038E00052
:101A30000000203C23020227382008F8888888709C
:101A40000000203F202020110E00C03008080808A8
:101A50003800071820202010080008F8080808108F
:101A6000E000203F202020100F0008F88888E808B8
:101A70001000203F20202320180008F88888E8085C
:101A80001000203F200003000000C0300808083884
:101A9000000007182020221E020008F80800000895
:101AA000F808203F210101213F20000808F808081C
:101AB00000000020203F2020000000000808F80857
:101AC0000800C08080807F00000008F888C02818C7
:101AD0000800203F20012638200008F808000000F8
:101AE0000000203F20202020300008F8F800F8F8FF
:101AF0000800203F003F003F200008F830C00008E9
:101B0000F808203F200007183F00E01008080810E0
:101B1000E0000F10202020100F0008F80808080827
:101B2000F000203F210101010000E010080808102A
:101B3000E0000F18242438504F0008F8888888885F
:101B40007000203F2000030C302000708808080837
:101B500038000038202121221C00180808F8080845
:101B600018000000203F2000000008F808000008CE
:101B7000F808001F202020201F000878880000C8D7
:101B80003808000007380E010000F80800F80008C7
:101B9000F800033C0700073C0300081868808068D1
:101BA000180820302C03032C30200838C800C8380F
:101BB00008000000203F2000000010080808C83876
:101BC00008002038262120201800000000FE020214
:101BD00002000000007F40404000000C30C00000C8
:101BE0000000000000010638C00000020202FE00F2
:101BF0000000004040407F0000000000040202029C
:101C000004000000000000000000000000000000D0
:101C100000008080808080808080000202040000BC
:101C200000000000000000000000000080808080B4
:101C300000000019242222223F2008F800808000A2
:101C40000000003F112020110E0000000080808065
:101C50000000000E1120202011000000008080886C
:101C6000F800000E112020103F20000080808080AE
:101C70000000001F222222221300008080F08888AA
:101C800088180020203F20200000000080808080F5
:101C90008000006B94949493600008F8008080802A
:101CA0000000203F210000203F2000809898000085
:101CB00000000020203F20200000000000809898B5
:101CC000000000C08080807F000008F80000808055
:101CD0008000203F24022D302000000808F800007A
:101CE00000000020203F2020000080808080808035
:101CF0008000203F20003F20003F808000808080C7
:101D00000000203F210000203F20000080808080D4
:101D10000000001F202020201F0080800080800005
:101D2000000080FFA12020110E00000000808080B4
:101D30008000000E112020A0FF8080808000808025
:101D4000800020203F212000010000008080808052
:101D500080000033242424241900008080E0808047
:101D600000000000001F2020000080800000008094
:101D70008000001F202020103F20808080000080F5
:101D8000808000010E300806010080800080008005
:101D900080800F300C030C300F00008080008080AA
:101DA00080000020312E0E312000808080000080D5
:101DB000808080818E701806010000808080808085
:101DC00080000021302C2221300000000000807CA7
:101DD000020200000000003F404000000000FF0041
:101DE000000000000000FF0000000002027C8000F4
:101DF00000000040403F0000000000060101020218
:101E00000404000000000000000000002C1E000878
:101E1000000000209005000028010008981F00081D
:101E200090050020B8060000840100081116060A7B
:101E3000FE0AC612E012F062F84EFE7DBBC7EF014B
:101E4000053EC7BB7DFE300D080CFEFE0C08206071
:101E5000FEFE60208F7848FE82BABA0309135EAA9C
:101E60000101017E6CFEFF0301CBFFFF0F39BBECCC
:101E7000C0C0C0271918F92701392975990B6CFFC3
:101E8000FF0C01491A0C22E1E1E12701396C0F1F17
:101E90001801FB1F0F0F092E270136168C42221244
:101EA0000C26FC020202FC3304FE16205844FE40BD
:101EB0002A10015912491E4912A92A0123300A2465
:101EC000A42E24E4242EA424C00AF84A4C48F8483E
:101ED0004C4AF82A01013907490D5915991F9918DB
:101EE000091412712BC020A1AB20C00A11300A12B4
:101EF0000A07027F02070A121E0B0A0A0A7F04025F
:101F0000560B980A1F2040404050205F800A29A5A8
:101F1000821013127ACA8001013218080404F49462
:101F200094949F040412F4040419784B7F4A011A14
:101F30007F0C0111280C080888C8380C0B0808E829
:101F4000080101111302011CFF4041012A7F05090C
:101F5000104051051701E21CE037804020100C03AF
:101F60000D12030C3040E01CF80106664901021313
:101F7000FE8AFFCB0312807F14FC04FC14FE42BED9
:101F80000712F212F202FE02140F040F1CFF100FD0
:081F9000080A124F3F11000086
:04000005080000ED02
:00000001FF
