:020000040800F2
:10000000C80A002035020008EB2900086126000814
:10001000E9290008431B00084939000800000000D6
:10002000000000000000000000000000E5380008AB
:10003000451B000800000000E3380008E73800080E
:100040004F0200084F0200084F0200084F0200084C
:100050004F0200084F0200084F0200084F0200083C
:100060004F0200084F0200084F0200084F0200082C
:100070004F0200084F0200084F0200084F0200081C
:100080004F0200084F0200084F0200084F0200080C
:100090004F0200084F0200084F0200084F020008FC
:1000A0004F0200084F0200084F0200084F020008EC
:1000B0004F0200084F0200084F0200084F020008DC
:1000C0004F0200084F0200084F0200084F020008CC
:1000D0004F0200084F0200084F0200084F020008BC
:1000E0004F0200084F0200084F02000800F002F81B
:1000F00000F090F80AA090E8000C82448344AAF132
:100100000107DA4501D100F085F8AFF2090EBAE82F
:100110000F0013F0010F18BFFB1A43F0010318473B
:100120006C5800008C580000103A24BF78C878C181
:10013000FAD8520724BF30C830C144BF04680C60ED
:10014000704700000023002400250026103A28BF35
:1001500078C1FBD8520728BF30C148BF0B60704739
:100160006E2900F06181702900F0A382662904F0F5
:100170008486652904F08186672904F07E866129DA
:1001800004F07D8603681B0A28BF41F080016929BD
:1001900000F00E81642900F00B81752900F00881C0
:1001A0006F2900F03082782900F06F82E92900F091
:1001B000CB81E42900F0C881F52900F0C581EF2941
:1001C00000F02D82F82900F06E820368DB0928BF59
:1001D00041F08001632900F07187732900F0768770
:1001E000E32900F08187F32900F08687002070471B
:1001F0001FB500F0D7FF04000020002103F05EFFD0
:10020000401C60600020002103F042FFE0601FBD41
:1002100010B510BD00F098FF1146FFF7E9FF03F09D
:10022000F3FD01F075F803B4FFF7F2FF03BC01F032
:10023000B9F800000948804709480047FEE7FEE793
:10024000FEE7FEE7FEE7FEE7FEE7FEE7FEE7FEE786
:1002500004480549054A064B704700004739000825
:10026000ED000008C8040020C80A0020C8060020CD
:10027000C80600201CB50C46064B7B44694600901E
:10028000204600F0EAF804460020694600F0F8F83D
:1002900020461CBD030200004FF0000200B51346CB
:1002A00094469646203922BFA0E80C50A0E80C5096
:1002B000B1F12001BFF4F7AF090728BFA0E80C5047
:1002C00048BF0CC05DF804EB890028BF40F8042B40
:1002D00008BF704748BF20F8022B11F0804F18BFAD
:1002E00000F8012B704770477047704770B504469F
:1002F00085690068C10601D5302600E02026C007C8
:1003000007D070BDD4E9012130469047206A401CD7
:1003100020626D1EF6D570BD70B504468569007803
:10032000C00707D170BDD4E9012120209047206A81
:10033000401C20626D1EF6D570BD09684A0501D5C6
:1003400040B27047C905FCD500B2704709684A053C
:1003500001D5C0B27047C905FCD580B2704770B5F1
:100360000C460546012A05D02878800600D5EA69A2
:10037000002302E0012305E05B1C934202D2E05C13
:100380000028F9D1A869E618C01AA861286A18449B
:1003900028622846FFF7AAFF04E0D5E9012114F8F6
:1003A000010B9047B442F8D32846FFF7B5FF70BD64
:1003B0002DE9F0410646002410687529314616A53E
:1003C00010D0FFF7BAFF002802DA404213A507E079
:1003D00031688A0701D512A502E0490704D511A5A5
:1003E000012401E0FFF7B2FF00210A2206F12407F1
:1003F00009E0B0FBF2FCB0FBF2F302FB1C00303072
:1004000078541846491C0028F3D123462A46304622
:10041000BDE8F04100F061BA000000002D000000CE
:100420002B0000002000000011680268006A5305DC
:1004300001D508700AE0D30501D5088006E013064F
:1004400003D5C217C1E9000200E00860012070472F
:1004500001694A1C02610878704700B58FB0CDE988
:1004600001310021059105497944CDE90310114678
:10047000684600F029F90FB000BD0000E5FFFFFF5E
:100480000A6802F8010B0A60704700002DE9FF5F5F
:1004900015468A460446DFF8AC80F8440027D8E9C0
:1004A00000103E46CDE9001010E03AF816106A46FA
:1004B00002A800F025FE411C07D02178890603D54B
:1004C000E269391891420DD80744761C20788006DD
:1004D00002D5E069B84205DDAE42E6DB3AF8160027
:1004E0000028E2D1A069C01BA0612046FFF7FEFEF4
:1004F000D8E90010CDE90010002017E03AF81810F4
:100500006A4602A800F0FCFDB0F1FF3F81460BD027
:1005100000250DF1080B05E0D4E901211BF80500C9
:1005200090476D1C4D45F7D308F10100B04280465D
:10053000E4DB206A384420622046FFF7EDFEBDE888
:10054000FF9F00004A5300002DE9F0418046D21D74
:1005500022F007020025D2E90002F52915A614D0E1
:10056000011E72F1000106DA0023D0EB030063EBF9
:10057000020211A608E0D8F800108B0701D50FA6DB
:1005800002E0490701D50EA601251146002408F115
:10059000240704E000F05CF930323A55641C50EA5C
:1005A0000102F7D12B46324621464046BDE8F041D4
:1005B00000F093B9000000002D0000002B000000A7
:1005C0002000000030B4002100F1240408E002F013
:1005D0000705D208303542EA4372DB086554491CEE
:1005E00052EA0305F3D10468002310A2250707D5BA
:1005F000A40600D421B1C46901230DA2641EC46104
:1006000030BC00F06AB910B5044621461068FFF707
:100610009DFE02462046BDE810400023D2E7D21DD1
:1006200022F00701D1E90023CCE700000000000020
:1006300030000000F0B40D460188090502D5214CB8
:100640007C4402E01F4C7C440E34002100F124065F
:1006500008E002F00F071209E75D42EA03721B0986
:100660007754491C52EA0307F3D10278002312079A
:1006700004D5702D06D009B1022311342246F0BCF6
:1006800000F02BB901231034F8E770B504460D468D
:1006900021461068FFF75AFE024629462046BDE86B
:1006A00070400023C6E7D21D22F00703D3E90023E0
:1006B000C0E70368126843F0200303600823C361A6
:1006C0000023B7E7AC5100002DE9F05F89460446EE
:1006D0004FF0000ADFF874B1FB44C0F820A02046B8
:1006E000E1688847002874D0252806D0D4E9012184
:1006F0009047206A401C2062F1E700265F462046B2
:10070000E16888472028054607DB312D05D2781996
:1007100010F8200C08B10643F1E7B00701D526F028
:100720000406C4F81CA00027C4F818A02A2D09D07C
:10073000284603F091F938B304EB8708303DC8F838
:10074000185019E059F8041B204604EB8702916108
:10075000E1688847012F054618D1E069002820DAB2
:1007600026F020061DE0D8F8180000EB800005EB0D
:1007700040003038C8F818002046E1688847054630
:1007800003F06AF90028EED1012F0AD02E2D08D1EE
:100790002046E16888477F1C0546022F46F0200668
:1007A000C4DBA069002803DA404246F00106A061DC
:1007B000F00701D026F010066C2D0BD0682D09D063
:1007C0004C2D39D06A2D35D0742D35D07A2D33D0BB
:1007D00016E038E0E1682F4620468847B8420546D3
:1007E00009D16C2F26D04FF48060E1680643204683
:1007F0008847054604E06C2F1AD04FF480700643FA
:100800000DB3A5F14100192802D8203546F4006641
:100810004A462946204626604E46FFF7A1FC80B195
:1008200001280BD0F61D26F0070000F1080956E755
:100830004020E4E78020D8E70020D6E706F104094D
:100840004DE7284652E7206ABDE8F09F3C51000082
:1008500030B5B0F10A024FEA900E71F100034EEA92
:10086000817EB0EB0E0061EB91014FEA101E4EEA63
:10087000017E10EB0E0041EB11114FEA102E4EEAF3
:10088000016E10EB0E0041EB11214FEA104E4EEAC3
:10089000014E10EB0E0041EB1141401841F10001F7
:1008A0004FEAD00040EA41704FEAD10110EB8005D9
:1008B0004FEA810444EA907444EB01046D1944EB5F
:1008C0000404521BA3414FF0000348BF0A3200D575
:1008D00030BD401C41F1000130BD2DE9F0470D460F
:1008E00099469246044600F124080168880604D51A
:1008F000E06921F01001216000E00120A84201DD43
:10090000471B00E00027A1697A1902EB0900081AC9
:10091000A0612078C00602D42046FFF7E7FC00263D
:1009200008E0D4E901211AF806009047206A401C2B
:10093000761C20624E45F4DB2078C0060AD520469E
:10094000FFF7D4FC06E0D4E9012130209047206A6B
:10095000401C2062381EA7F10107F4DC07E0D4E94F
:10096000012118F805009047206A401C2062281ECB
:10097000A5F10105F3DC2046FFF7CEFC2078000648
:1009800002D50220BDE8F0870120FBE770472DE982
:10099000FF4F0C461E464FF0FF378BB0D2E90001E7
:1009A000DDF860800A908A46C1F30A5505B93D46D4
:1009B000002108464FF00000BAF1000F00F440009B
:1009C00005DA00EB80004FF4400101EA50004FEAE5
:1009D0009059B9F1010F00DDB9460A9850EA4A0072
:1009E0000ED044F61050A5F2FF3545432F14B8F150
:1009F000000F1ED07542291E1EDDC9F100021CE049
:100A0000B8F1010F4FF0000001D0302103E0F243B4
:100A100005E02154401CB042FBDB3046002200219F
:100A200021540B99C1F80880C1E900200FB0BDE83E
:100A3000F08FBD1B6D1CDEE74A4600DA694206A84E
:100A400000F0F4FB06AB93E8070003AB83E8070074
:100A500050460A9900F0ADFC8DE80700A0F5005063
:100A60001F3800900398002D0ADD42F21F014A460C
:100A70000844002303A90390684600F016FF09E02C
:100A8000A0F500504A461F38002303A9039068468A
:100A900000F020FF8DE807000004000C03D04FF0A9
:100AA000FF30410800E01046B8F1000F03D00022EB
:100AB000009215461EE0751E05D4FFF7C9FE3032C0
:100AC00062556D1EF9D5B3460122084302D00022BB
:100AD0007F1C04E02078302801D100227F1E002AEC
:100AE000099784D01DE0112D07DAFFF7B1FE3032EF
:100AF00062556D1C50EA0102F5D1084302D00098FE
:100B0000C8B10EE00021681E05E0235C625C6354FE
:100B10002254401E491C8142F7DBAB46A81B401EF5
:100B20000990002004F80B000B98099AC0F808807F
:100B3000C0E9002B7AE711264FF0000857E72DE9AE
:100B4000F04F88460446D21D22F0070191B0D1E94A
:100B50000001CDE90A0102F0F8FE02460B98C00F31
:100B600001D02D2007E02068810701D52B2002E06D
:100B7000202101EAC000032A099001D0072A05DBE1
:100B800003464146204600F011FB0BE12078800629
:100B900001D5E06900E00620B8F1650F814606D076
:100BA000B8F1660F18D0B8F1670F70D131E00020AE
:100BB000B9F1110F009001DB112301E009F10103EC
:100BC0000AAA01A90CA8FFF7E2FEDDE90C700026D5
:100BD00009F10105834647E001204B4600904FF0A4
:100BE00000470AAA01A90CA8FFF7D1FEDDE90DB064
:100BF0000C995D46002610B909F101000D18B9EBFA
:100C0000050003D4C0F1FF3609F10105A5EB090089
:100C10002BE0B9F1010F01DA4FF001090020B9F121
:100C2000110F0090484601DD112300E003460AAA97
:100C300001A90CA8FFF7ABFEDDE90C704D460026BC
:100C40008346207800070AD4AB4500DA5D4601A848
:100C5000012D04DD411911F8011C302907D04F4541
:100C600002DA17F1040F04DA012082460FE06D1E4C
:100C7000EEE7002F02DCED1B3E4403E0781CA842A7
:100C800000DD7D1CB81B00F1010A4FF00047207801
:100C9000000703D4AA4501DB4FF0FF3A0021B7F16A
:100CA000004F0DF143088DF8431024D002202B2370
:100CB000002F01DA7F422D230A21021EA0F101003C
:100CC00000DC5FB197FBF1FC97FBF1F201FB1C7CB0
:100CD00017460CF1300C08F801CDEEE7A8F1010041
:100CE00003702188090501D5452100E06521A0F1A7
:100CF000010800F8011C09980FA9A1EB0807FF1DC6
:100D000000B10120411901EBEA70A1693844081AC9
:100D1000401EA0612078C00602D42046FFF7E6FA04
:100D2000099828B1D4E901219047206A401C20622B
:100D30002078C00622D52046FFF7D8FA1EE0002E04
:100D400004DBB34502DD01A8805D00E03020D4E97A
:100D500001219047206A401C2062761CAAF1010004
:100D60005FEA000A0AD100F01DFAC0680168405C21
:100D7000D4E901219047206A401C2062281EA5F179
:100D80000105DCDC07E0D4E9012118F8010B9047EC
:100D9000206A401C2062381EA7F10107F3DC2046C0
:100DA000FFF7BAFA032011B041E600002DE9F04F39
:100DB00004460D46D21D22F0070089B0D0E9009705
:100DC0004846394602F0C1FD0246F80F01D02D23F6
:100DD00007E02068810701D52B2302E0202101EAEA
:100DE000C0038DF820300BB1012000E00020032A61
:100DF000824601D0072A04DB2946204600F0D6F9B6
:100E00003FE12078800601D40D2500E0E569C7F3B5
:100E10000A560D2D49DA00214FEA175B08464FF0BC
:100E20000000002F00F4400007DA00EB80004FF4D0
:100E3000400100EBD07001EA60008115012901DD5D
:100E40004FF0FF3100224FEA850CBCF1180F06D39A
:100E50001346ACF118004FF08052C24003E04FF44B
:100E6000801323FA0CF30CF10C0CBCF1200F04D30B
:100E7000ACF1200C09FA0CF001E007FA0CF00029A3
:100E80004FF0004801DD18B90FE00ED140450CD3FA
:100E900019EB02095F4121B9404502D19F4329EA7C
:100EA0000209BBEB175F00D0761C2088000502D535
:100EB0007B48784402E07A487844193808AA3023FD
:100EC00002F80A30037C0AF10101002E0AF1020A3D
:100ED00053546A4602DC4FF0300101E04FF031011B
:100EE0004FF001088DF8001002D0A6F2FF3603E0A3
:100EF00059EA470100D06B4E002D02DC217809072A
:100F000004D54FF002082E218DF80110C4460021AF
:100F10000BE0C7F303433F01C35C491C6D1E02F89D
:100F20000830052908F1010801DA002DF1DC002163
:100F30000CE000EB1973491C1B786D1E082902F8A0
:100F400008304FEA091908F1010801DA002DF0DC38
:100F500021688B0602D516E0A8F10108E04505DD01
:100F600002EB080313F8013C302BF5D0B8F1000F69
:100F700009DD02EB080313F8013C2E2B03D109070E
:100F800001D4A8F10108002D05DD3E2102F808106A
:100F90006D1E08F10108407C002E02F8080008F1DF
:100FA000010804DA2D20764202F8080002E02B2026
:100FB00002F808000A214FF47A70864208F101080D
:100FC0000BDB96FBF0F3303302F8083096FBF0F3BE
:100FD00008F1010800FB136601E0642E0CDB6420BD
:100FE00096FBF0F3303302F8083096FBF0F308F18B
:100FF000010800FB136601E00A2E06DB96FBF1F008
:10100000303002F8080008F1010896FBF1F001FB0E
:101010001060303002F80800A16908F1010808EBFF
:10102000050202EB0A00081AA0612078C00602D46B
:101030002046FFF75BF9216A08AE01EB0A00206247
:1010400004E0D4E9012116F8010B9047BAF1010A36
:10105000F7D22078C00602D52046FFF747F96E4642
:1010600009E016F8010B3E280FD0D4E90121904782
:10107000206A401C2062B8F10108F2D22046FFF736
:101080004BF909B00320BDE8F08F206A28442062A4
:1010900003E0D4E90121302090476D1EEBD3F8E73F
:1010A0002D4A000002FCFFFF10B5436913B1AFF3F6
:1010B000008001E0FFF753F9012010BD127800F124
:1010C00024010A7000224A700122EDE711684FF0F6
:1010D000FF32E9E710B5436913B1AFF3008001E0D7
:1010E000FFF7D4F9012010BD128800F12401828499
:1010F0000022C2840122EDE711684FF0FF32E9E7D8
:1011000070B516460C46054600F044F8036893F89F
:101110000101012806D0FF2C0FD8185D68B101200D
:101120002C7070BDD3F807013246214603F2071335
:1011300003442846BDE8704018474FF0FF3070BDAB
:1011400000487047640400207546FFF7F9FFAE467B
:1011500005006946534620F00700854618B020B5C3
:10116000FFF776F8BDE820404FF000064FF000078B
:101170004FF000084FF0000B21F00701AC46ACE83F
:10118000C009ACE8C009ACE8C009ACE8C0098D46AC
:101190007047000010B500F005F8001D10BD00BF3D
:1011A0001D2F000000487047840400202DE9F04105
:1011B0001F46044603260168072A01F4006004DB89
:1011C00008B116A505E016A503E008B115A500E0D5
:1011D00015A521F010002060A069C01EA0610FB10C
:1011E000401EA0612046FFF781F84FB1D4E90121EC
:1011F00038469047206A401C2062C01C206206E0EE
:10120000206AFAE7D4E9012115F8010B9047761E10
:10121000F8D22046FFF780F8BDE8F0814E414E003D
:101220006E616E00494E4600696E66002DE9F0471A
:10123000814616468AB0354878440DC88DE80D00C1
:1012400032487844801C03AC0DC884E80D0041F698
:101250009B300844372190FBF1F290FBF1F5A5F1AA
:10126000800501FB12041B3C02D56442012000E012
:101270000020DFF898A080460027FA44AAF1BE0AB1
:101280000EE0E0070AD03246684607EB470101232B
:101290000AEB810100F01EFB8DE8070064107F1C43
:1012A000002CEED1194F7F44AE3F19E0E80715D06E
:1012B00007EB04100DF1180A90E80E008AE80E0002
:1012C000C068F04201D1981908903246012306A95E
:1012D00003A800F0FFFA03AB83E807006D10641C5D
:1012E000002DE3D14FF0010332466946B8F1000FFB
:1012F00003A802D000F0D9FA01E000F0EBFAC9E946
:101300000001C9F808200AB0BDE8F087384700009E
:1013100010B50446AFF300802046BDE81040FEF74C
:1013200082BF00004FF0013C50F8042B51F8043B01
:101330009A4221D1A2EB0C03934313EACC1317D1A9
:1013400050F8042B51F8043B9A4215D1A2EB0C0340
:10135000934313EACC130BD150F8042B51F8043B00
:101360009A4209D1A2EB0C03934313EACC13DBD0CE
:101370004FF00000704700BFD01A01BAB1FA81F1F6
:1013800001F0180122FA01F0CB40C1F12001DBB2DB
:10139000C0B2C01A2CFA01F3D11A914311EAC31159
:1013A000E6D1704701491820ABBEFEE726000200D7
:1013B00070475FEA400C08BF91F0000F4FEA8C23A2
:1013C0004FEAC12243EA51514FEA1C5018BF00F5C1
:1013D000F0404FEA300018BF41F000415FEA6C5C1A
:1013E00000F02980BCF1FF3F08BF40F0804070470B
:1013F000130C06BF12044FF0100C4FF0000C130E2C
:1014000004BF12020CF1080C130F04BF12010CF1FF
:10141000040C930F04BF92000CF1020CD30F04BF15
:1014200052000CF1010C11464FF00002A0F11F0018
:10143000A0EB0C00704711F0004F08BF704731F06F
:1014400000413FF4D5AF0B0C06BF09044FF0100C60
:101450004FF0000C0B0E04BF09020CF1080C0B0F2F
:1014600004BF09010CF1040C8B0F04BF89000CF1BF
:10147000020CCB0F04BF49000CF1010CCCF120038E
:10148000A0EB0C0022FA03F302FA0CF241EA03018A
:1014900000F10100704720F07F4C80EA030023F048
:1014A0007F47ACEB070303F57C5300F0004003F1EA
:1014B000FF032DE980494FEA154B09B44FEA144365
:1014C00025EA0B4E24EA03480FF2042606EB132705
:1014D00049083E785FEA320203FB0667C7F500075A
:1014E00007FB06F64FEA54374FEAD64606F10206E6
:1014F00007FB066CCCF1005C4FEA1C472CEA074C5A
:1015000007FB06F40CFB06F504EB15464FEA9616AE
:1015100034BF00204FF000404FEAD13706FB07FCF4
:101520004FEA1C4C0CFB0BF7D21B03FB0CF761EBD7
:1015300007010CFB0EF7B0EB074072EB17420CFBF8
:1015400008F734BFA2EB0742B2EB074261EB174149
:101550004FEA0C444FEA910706FB07FC4FEA1C4C8C
:101560000CFB0BF7B0EBC74072EB573203FB0CF7E9
:1015700034BFA2EBC742B2EBC74261EB57310CFB61
:101580000EF7B0EBC70072EB57720CFB08F734BFD5
:10159000A2EBC702B2EBC70261EB5771039F4FEAA0
:1015A000816141EA921104EBCC044FEAD1374FEA52
:1015B000826206FB07FC42EA90124FEA80604FEA23
:1015C0001C4C0CFB0BF7D21B03FB0CF761EB070168
:1015D0000CFB0EF7B0EB074072EB17420CFB08F761
:1015E00034BFA2EB0742B2EB074261EB17414FEA6F
:1015F0008C554FEA910704EB9C2406FB07FC4FEA4D
:101600001C4C0CFB0BF7B0EBC74072EB573203FBE3
:101610000CF734BFA2EBC742B2EBC74261EB5731C4
:101620000CFB0EF7B0EBC70072EB57720CFB08F720
:1016300034BFA2EBC702B2EBC70261EB577115EBE7
:101640004C254FEA816141EA92114FEA82624FEAEA
:10165000D13742EA901206FB07FC44F100044FEA3E
:1016600080604FEA1C4C0CFB0BF7D21B03FB0CF702
:1016700061EB07010CFB0EF7B0EB074072EB174272
:101680000CFB08F734BFA2EB0742B2EB074261EB59
:10169000174115EB1C154FEA813141EA92414FEA9F
:1016A000823242EA90424FEA80304FEA0C7644F1AF
:1016B000000448EA03434EEA0B484FF0000EB2EB39
:1016C000080C71EB030724BF624639464EEB0E0E41
:1016D0004FF0000B0018524149414BEB0B0BB2EBA2
:1016E000080C71EB03077BF1000B24BF62463946FF
:1016F0004EEB0E0E4FF0000B0018524149414BEBE0
:101700000B0BB2EB080C71EB03077BF1000B24BF52
:10171000624639464EEB0E0E51EA020718BF46F0FC
:10172000010616EB0E7655F1000254F1000103D5C7
:10173000BDE88901BDE80088BDE88901BDE8004831
:10174000B619524141EB0101A3F1010370478080BA
:101750007F7E7D7C7B7A797877767675747372710B
:1017600071706F6E6E6D6C6C6B6A6A6968686766C3
:1017700066656464636362616160605F5F5E5E5D55
:101780005D5C5C5B5B5A5A595958585757565655C9
:1017900055555454535352525251515050504F4F2B
:1017A0004F4E4E4D4D4D4C4C4C4B4B4B4A4A4A497B
:1017B00049494848484747474746464645454544BE
:1017C0004444444343434342424242414141002B4B
:1017D0009C4630D477002BD01CB54FEA370703B4B2
:1017E0004FF010004FF01001BAF1000F06D0BCF11D
:1017F000000FDCBF40F0080040F008014FF000008F
:101800000FBCBDE810400BF1010BBBF1010F08BF8D
:101810005FEA170722BF12F1010211F101014FF037
:10182000004143F1000300F0004043EA000070472C
:10183000F9D35708D0E746EA064613F1400F4FEABE
:1018400016461FDD13F1200FDFBF16430A460021A5
:1018500020335B42BED0C3F1200746EA064602FAB7
:1018600007F74FEA164646EA0706C3F1200722FAB1
:1018700003F201FA07F721FA03F14FF0000342EAFD
:101880000702A7E746EA020646EA06464FEA164678
:1018900046EA0106BCBF46EA0646360C4FF0000396
:1018A0004FF000024FF0000194E72DE9804C9A467A
:1018B000934670B491E8380007C831EA400C48BF3D
:1018C00034EA430C03D5FFF7E6FDFFF780FFF0BCD9
:1018D000BDE8008C2DE9804C9A46934670B491E89F
:1018E000380007C810F0804F08BF13F0804F03D1B5
:1018F00000F005F8FFF76BFFF0BCBDE8008C20F0AE
:101900007F4780EA030023F07F4C07EB0C03A3F52D
:101910007C5300F00040A3F1FE0392F0000F00F0B2
:10192000B38095F0000F00F077802DE901494FEA70
:1019300011404FEA144621EA004800FB06FC24EA65
:10194000064708FB06F607FB08F800FB07F718EB4D
:1019500006484CEB164C4FEA124B18EB07484FEA7F
:1019600015464CEB174022EA0B4E0BFB06FC25EA12
:1019700006470EFB06F607FB0EFE0BFB07F71EEBFA
:10198000064E4CEB164C4FF000061EEB074E4CEB90
:10199000174B18EB0B0840F1000018EB0E0B58EB3F
:1019A000000840F100008F1A4FF000013CBFC9430E
:1019B000661B14BFB5EB040C00213CBFC943F61BEA
:1019C0004FEA17444EEA8E0E27EA04454FEA1C47B9
:1019D00004FB07622CEA074C05FB07F70CFB05F636
:1019E00004FB0CFC16EB074642EB174216EB0C46C9
:1019F00042EB1C421BEB060658EB0202414146EA51
:101A00009E0601D5BDE80189B619524141EB01019D
:101A1000A3F10103BDE801894FEA14454FEA1147DC
:101A200024EA054621EA074C05FB07F406FB07F705
:101A30000CFB06F105FB0CFC11EB074144EB1744D2
:101A40004FEA124711EB0C4144EB1C4422EA074CCD
:101A500005FB07F206FB07F70CFB06F605FB0CFC83
:101A600016EB074642EB174216EB0C4642EB1C45C1
:101A70006A1854F1000148BF7047B619524141EB52
:101A80000101A3F10103704795F0000F37D04FEA31
:101A900011424FEA144721EA024624EA074C02FBAE
:101AA00007F106FB07F70CFB06F402FB0CFC14EB3A
:101AB000074441EB17414FEA154714EB0C4441EB47
:101AC0001C4125EA074C02FB07F506FB07F70CFB58
:101AD00006F602FB0CFC16EB074645EB174516EB2A
:101AE0000C4645EB1C42121951F1000148BF7047EA
:101AF000B619524141EB0101A3F1010370474FEACE
:101B000014454FEA114724EA054621EA074C05FB34
:101B100007F106FB07F70CFB06F24FF0000605FB8A
:101B20000CFC12EB074241EB174112EB0C4251EB5C
:101B30001C4148BF7047921841EB0101A3F101031A
:101B40007047FEE7704772B6FEE7000070B50446C6
:101B500000F0FAF80546601C02D0044800780444FE
:101B600000F0F2F8401BA042FAD370BD0000002044
:101B70002DE9F84FDFF8A4910024A9F1040B2346C6
:101B80004FF00F0809F1040AABF1040EBEE0012783
:101B9000A7403A40BA4272D1DFF884C14D68A5EB44
:101BA0000C0665452BD00DDC032D34D005DC35B398
:101BB000012D19D0022D2FD11BE0112D16D0122D81
:101BC0002AD119E0B6F5881F19D006DCB6F5803F9A
:101BD00015D0B6F5801F1FD111E0B6F5001F0ED04D
:101BE000B6F5041F18D10AE0CB6815E0CB681B1DC1
:101BF00012E0CB6808330FE0CB680C330CE08B6845
:101C00002BB1012B4FF0080303D0476104E00423FC
:101C100002E0076100E00023FF2A01D8064601E048
:101C200000F104064FEA840501D9A5F120053768C3
:101C300008FA05FC27EA0C0703FA05F547EA050749
:101C400037604D68ED0060D5364DAE6946F001064F
:101C5000AE61AD6924F0030605F001050095324D33
:101C60007719BE68A5072D0F08FA05FC26EA0C06B1
:101C7000DFF8B8C0604503D14FF0000C17E044E036
:101C8000DFF8ACC0604502D14FF0010C0FE0DFF887
:101C9000A4C0604502D14FF0020C08E0DFF898C004
:101CA000604502D14FF0030C01E04FF0040C0CFA38
:101CB00005FC4CEA060CC7F808C04D68D9F800606E
:101CC000ED024D4601D5164300E096432E604D6867
:101CD000DAF80060AD02554601D5164300E09643A0
:101CE0002E604D68DBF80060AD035D4601D51643FC
:101CF00000E096432E604D68DEF80060ED03754607
:101D000001D5164300E096432E60641C0A6832FA3F
:101D100004F57FF43CAFBDE8F88F000008040140F3
:101D200000001110001002400000014000080140B6
:101D3000000C014000100140001401400AB1016193
:101D400070470904FBE70000014880687047000005
:101D50000000002070B5040025D094F83D00002557
:101D600020B984F83C50204600F050F9242084F833
:101D70003D002068016821F00101016020680168D0
:101D800041F4004101602068016821F400410160D4
:101D900000F090FA4D4B6168994201D84C4900E03F
:101DA0004C49884201D2012070BD4B492268B0FBEA
:101DB000F1F1566826F03F060E43566062689A427B
:101DC00006D94FF4967251434FF47A72B1FBF2F197
:101DD0002268491C166A26F03F0631431162616889
:101DE000994210D84900401EB0FBF1F2521CC2F3D8
:101DF0000B02042A01D2042022E0B0FBF1F0401CC7
:101E0000C0F30B001CE0A268F2B301EBC10303EBCB
:101E10000116431EB3FBF6F35B1C43F480431B0522
:101E200049D092B301EBC10202EB0111401EB0FB9D
:101E3000F1F0401CC0F30B0040F4804040F400403F
:101E40002168CA694CF6FF739A431043C861D4E90C
:101E5000071001432068026822F0C00211430160AC
:101E6000D4E9030101432068826848F2FF339A43B2
:101E700011438160D4E9051001432068C26822F053
:101E8000FF021143C16001E00EE016E02068016826
:101E900041F0010101602564202084F83D002563A4
:101EA00084F83E50002070BD01EB4106431EB3FB99
:101EB000F6F35B1CB3E70120C2E701EB4101401ED2
:101EC000B0FBF1F0401CC0F30B00B7E7A0860100A7
:101ED00080841E0000093D0040420F002DE9FF4FA5
:101EE00083B09A46DDE9119793460446DDF84080B9
:101EF000FFF72AFF054694F83D0020287FD11923DB
:101F0000012240492046009500F041FC002876D18E
:101F100094F83C00012872D0012084F83C0020682D
:101F20000168C90703D1016841F00101016020681F
:101F3000016821F400610160212084F83D00402007
:101F400084F83E0000262664C4F82480A4F82A9071
:101F5000608D20852C48E062CDE9007553465A46D5
:101F60002046049900F094FB70B930E02A463946C7
:101F7000204600F0ADFC58B1206C042804D1206844
:101F8000016841F400710160012007B0BDE8F08FE5
:101F9000606A216800780861626A521C6262208D62
:101FA000401E80B22085618D491E618521684B6984
:101FB000DB435B070BD468B110780861606A401C92
:101FC0006062208D401E2085608D401E6085208DC2
:101FD0000028CBD12A463946204600F0ADFB002828
:101FE000CAD154F83D0B016841F400710160202012
:101FF00004F81E09E67766770020C6E7FFE70220AF
:10200000C3E70000020010000000FFFF10B586B01B
:102010000021009101910291039100680F498842CB
:102020001AD10F4CA06940F00800A061A069694670
:1020300000F008000490C0200090122001900320BE
:1020400003900848FFF794FDE06940F40010E06158
:10205000E06900F40010049006B010BD0054004088
:1020600000100240000C01400248816802781144CF
:102070008160704700000020074810B5016841F0FA
:1020800010010160032000F067F80F2000F006F84F
:1020900000F024F8002010BD0020024070B50D4D66
:1020A00004464FF47A712878B1FBF0F00A490968C8
:1020B000B1FBF0F000F0C0FA48B9102C07D20022B2
:1020C0002146501E00F028F800206C6070BD0120F1
:1020D00070BD0000000000200C0000200C4808B576
:1020E000816941F001018161816901F00101009183
:1020F000C16941F08051C161C069064900F080505A
:102100000090486820F0E06040F00070486008BD32
:102110000010024000000140F0B40E4B1B68C3F3F6
:102120000223C3F10704042C00D904241D1D072D2C
:1021300001D2002300E0DB1E012606FA04F56D1E25
:102140000D409D409E40761E164045EA0601F0BCBB
:1021500001F00FBC0CED00E0064A00F0070110682A
:102160004FF6FF03184040EA01200349084310607E
:10217000704700000CED00E00000FA052DE9F04783
:102180000D46040067D0DFF81881D8F8000000F091
:102190000700A8420CD2D8F8001021F0070129430B
:1021A000C8F80010D8F8000000F00700A84252D18B
:1021B00020683C4E810712D5400703D5706840F473
:1021C000E06070602078000703D5706840F46050CC
:1021D00070607068A16820F0F0000843706020789B
:1021E000C00727D06068012810D03168022810D0BD
:1021F000890700292FDA716821F00301014371601A
:10220000FFF7A2FD074641F288390CE031688903E7
:10221000EFE78901EDE7FFF797FDC11B494502D9BB
:102220000320BDE8F0877068616800F00C00B0EB37
:10223000810FF0D1D8F80010404601F00701A94203
:102240000BD9016821F0070129430160006800F003
:102250000700A84201D00120E3E72078400705D518
:102260007068E16820F4E06008437060207800073F
:1022700006D57068216920F4605040EAC1007060A2
:1022800000F028F87168084AC1F30311515CC84096
:102290000649086006480068FFF700FF0020C0E715
:1022A0000020024000100240844F00080C00002073
:1022B000040000200448054900684968044AC1F345
:1022C0000221515CC84070470C0000200010024001
:1022D000944F00080E4B59680E4801F00C02042A76
:1022E00011D0082A0FD10C48C1F38342C903805C86
:1022F0000AD55968084AC1F34041921E515C054A0B
:102300005043B0FBF1F07047044948437047000068
:102310000010024000127A00744F000800093D00CE
:102320002DE9F84F04006FD02078BE4DC00747D08C
:102330006868C0F38100012807D06868C0F3810095
:10234000022809D16868C00306D52868800337D5FC
:1023500060680028E7D033E06068B0F5803F0BD0BC
:1023600010B1B0F5A02F11D0286820F4803028607B
:10237000286820F4802002E0286840F4803028603B
:10238000606888B1FFF7E0FC064609E0286840F481
:1023900080202860F0E7FFF7D7FC801B642873D803
:1023A00028688003F7D50BE0FFF7CEFC064604E073
:1023B000FFF7CAFC801B6428F1D828688003F7D493
:1023C0002078DFF8648280074FF0010A4FF000099F
:1023D00039D5686810F00C0F07D06868C0F3810029
:1023E000022809D16868C00306D42868800714D57C
:1023F0002069012808D110E02069B0B1C8F800A018
:10240000FFF7A2FC064605E007E1FFF79DFC801BF5
:102410000228C4D828688007F7D52868616920F0A9
:10242000F80040EAC10028600DE0C8F80090FFF70E
:102430008BFC064604E0FFF787FC801B022823D8AC
:1024400028688007F7D4207800072CD57748A16941
:10245000D9B1C0F800A0FFF777FC064604E0FFF70B
:1024600073FC801B02280FD8686A8007F7D5704874
:102470004FF4FA510068B0FBF1F0009000BF0098F3
:10248000411E0091FAD20EE07CE0C0F80090FFF708
:102490005BFC064604E0FFF757FC801B022871D85E
:1024A000686A8007F7D4207840075BD5E869002781
:1024B000C00008D4E86940F08050E861E86901276D
:1024C00000F0805000905B480168C90511D4016894
:1024D000834641F480710160FFF736FC064604E054
:1024E000FFF732FC801B64284CD8DBF80000C005E5
:1024F000F6D5E06801280AD008B1052813D0286A6B
:1025000020F001002862286A20F0040002E0286A16
:1025100040F001002862E06841F2883B88B1FFF793
:1025200013FC064609E0286A40F004002862EEE742
:10253000FFF70AFC811B59455BD8286A8007F7D54D
:102540000BE0FFF701FC064604E0FFF7FDFB811BF3
:1025500059454ED8286A8007F7D41FB1E86920F0A2
:102560008050E861E069A8B36968C1F3810102297C
:1025700046D00228484606D0C8F86000FFF7E4FBC2
:10258000044639E035E04746C8F86000FFF7DCFB59
:10259000064604E0FFF7D8FB801B022829D82868EC
:1025A0008001F7D4206AB0F5803F05D16868A16842
:1025B00020F4003008436860D4E9080108436968E2
:1025C00021F4741108436860C7F860A0FFF7BCFBF2
:1025D000044605E023E0FFF7B7FB001B022808D8FC
:1025E00028688001F7D51AE0FFF7AEFB001B022830
:1025F00002D90320BDE8F88F28688001F4D40EE0EA
:102600000128F7D06868226A00F48031914204D131
:10261000616A00F47010884201D00120EAE70020CE
:10262000E8E70000001002400000424280044242FD
:102630000C0000200070004010B5401EB0F1807FFB
:1026400001D3012010BD4FF0E02460610F2160171D
:1026500001F08FF90020A06107202061002010BD4B
:10266000FEE701684A69D24352050FD46FF48062D5
:102670004A61002140F8301F2022427381730269B1
:1026800042F004020261017301207047002070478C
:102690002DE9F843044600680D46DDE90897016816
:1026A0009846164641F4807101604B4600224FF077
:1026B00001112046009700F06AF848B120680068D0
:1026C000C00502D54FF4007020640320BDE8F883F4
:1026D000216805F0FE0008613B464A461549204640
:1026E00000F099F888B920684169806900903A46FD
:1026F0004946204600F0ECF848B1206C042804D18B
:102700002068016841F4007101600120DEE7F5B244
:10271000B8F1010F09D02168300A08613A464946EC
:10272000204600F0D5F80028E7D120680561002098
:10273000CCE700000200010070B516460D460446C5
:102740001EE02046FFF78DFF08B1012070BD681C18
:1027500016D0FFF7F9FA801BA84200D885B9206887
:102760004069C04340070BD5002044F8300F2021BA
:102770006173A073216941F0200121612073E4E7B6
:1027800020684069C0434007DBD4002070BD2DE9BC
:10279000F0471E4690460D460446C1F30747DDF854
:1027A000209026E0701C24D0FFF7CEFAA0EB0900A1
:1027B000B04200D8EEB92068012F16D0806925EA12
:1027C00000000004000C12D00020404511D1002070
:1027D00044F8300F20216173A073216941F020017A
:1027E000216120730120BDE8F0874069E7E70120FF
:1027F000EBE72068012F0AD0806925EA0000000479
:10280000000C06D000204045CCD00020EBE740690A
:10281000F3E70120F7E72DE9F047984616460D4605
:1028200004464FF000094FF0200AC1F3074723E0A8
:1028300020684069C043400515D42068016841F410
:102840000071016021686FF480604861C4F83090C5
:1028500084F83DA084F83E90216C41F0040121648D
:1028600084F83C9020E0701C06D0FFF76DFAA0EBD6
:102870000800B04203D816B1012F1ED020E0206816
:10288000012F14D0806925EA00000004000C17D045
:1028900044F8309F84F80DA084F80E90216941F02F
:1028A0002001216184F80C900120BDE8F087406987
:1028B00025EA00000004000CEAD12068406901E02C
:1028C0002068806925EA00000004000CB0D1ECE724
:1028D00070B516460D4604461EE02046FFF7C1FEC1
:1028E00008B1012070BD681C16D0FFF72DFA801BBF
:1028F000A84200D885B920684069C04300060BD5BE
:10290000002044F8300F20216173A073216941F049
:10291000200121612073E4E720684069C04300067C
:10292000DBD4002070BD000070B586B000241C48C8
:102930000094019402940394816941F01001816133
:10294000816901F010010491816941F020018161E8
:10295000816901F020010491816941F004018161E4
:10296000816901F004010491816941F008018161EC
:1029700080690C4E00F008004FF4005504900022CE
:1029800029463046FFF7DAF901200095CDE9010428
:102990000220039069463046FFF7EAF806B070BDA2
:1029A00000100240001001400D4810B50B490160B5
:1029B0000C49416000214FF480428160C0E903125C
:1029C00041618161C1610162FFF7C4F9002803D050
:1029D000BDE81040FFF7B7B810BD0000005400403C
:1029E00010000020801A0600FEE7FEE710B5002167
:1029F000074C0A46002004EBC1131A54401CC0B215
:102A00008028FAD3491CC9B20829F3D310BD0000AD
:102A100064000020F0B501EB030C20E004468718A9
:102A200019E07F2C15D8002913DB3F2911DCCB17C7
:102A300001EB5376F5100B4B26F0070603EBC5139D
:102A40002344A1EB060E1D78012606FA0EF6B543C7
:102A50001D70641C24B2A742E3DC491C09B28C45FA
:102A6000DCDCF0BD640000202DE9FF5F14460E465B
:102A70000746C2F1010B0025214628460E9B039A0A
:102A800000F090FC20B1301901B2384600F06AFB2A
:102A900061424FF00009884648460E9B039A00F0B9
:102AA00081FC20B1301B01B2384600F05BFB2946A7
:102AB00020460E9B039A00F075FC20B13819314670
:102AC00000B200F04FFB494640460E9B039A00F0CF
:102AD00069FC20B1381B314600B200F043FB0F986F
:102AE000002814D0404610E0014600200E9B039AB7
:102AF00000F058FC28B106EB080001B2384600F09F
:102B000031FB08F1010000B28046A045ECDBC9E0D2
:102B10006D1C2DB2BBF1000F02DA0BEB450004E097
:102B2000641E24B2291B0BEB4100401C0FFA80FBF2
:102B3000214628460E9B039A00F034FC28B1301938
:102B400001B2781900B200F00DFB294620460E9B19
:102B5000039A00F027FC28B1701901B2381900B2AD
:102B600000F000FB604201B2684200B28A46814632
:102B70000E9B039A00F016FC28B1301B01B2781BA3
:102B800000B200F0EFFA494650460E9B039A00F05F
:102B900009FC28B1701B01B2381B00B200F0E2FA48
:102BA000514628460E9B039A00F0FCFB28B1301BCF
:102BB00001B2781900B200F0D5FA494620460E9BC2
:102BC000039A00F0EFFB28B1701B01B2381900B274
:102BD00000F0C8FA214648460E9B039A00F0E2FB3B
:102BE00028B1301901B2781B00B200F0BBFA2946B7
:102BF00050460E9B039A00F0D5FB28B1701901B224
:102C0000381B00B200F0AEFA0F98E8B35046D04639
:102C10001FE0014628460E9B039A00F0C3FB30B12B
:102C200006EB080001B2781900B200F09BFA4146A9
:102C300048460E9B039A00F0B5FB30B106EB080046
:102C400001B2781B00B200F08DFA08F1010000B269
:102C50008046A045DDDB4846C84621E00146504697
:102C60000E9B039A00F09EFB30B106EB080001B208
:102C7000381B00B200F076FA414620460E9B039ABC
:102C800000F090FB40B100E00CE006EB080001B260
:102C9000381900B200F066FA08F1010000B280466F
:102CA000A845DBDBA542FFF633AFBDE8FF9F2DE96A
:102CB000FF4F804614460E46081901B288B0C2F193
:102CC000010900254046474600F04CFA301B01B28E
:102CD000384600F047FA08EB0400314600B200F035
:102CE00041FAA8EB0400314600B200F03BFA0B9821
:102CF000002876D0674206E0F01901B2404600F0A5
:102D000031FA7F1C3FB2A742F6DB6AE06D1C2DB2A0
:102D1000B9F1000F02DA09EB450004E0641E24B2A9
:102D2000291B09EB4100401C0FFA80F9301901B250
:102D300008EB050007B2CDE90671384600F012FA3B
:102D4000701901B208EB040000B2029000910390E8
:102D500000F008FA301B01B2A8EB050000B2834670
:102D6000059100F0FFF9701B01B2A8EB040000B25E
:102D70008A460490019000F0F5F93846059900F074
:102D8000F1F95146039800F0EDF95846079900F023
:102D9000E9F9DDE9001000F0E5F90B9808B36042AD
:102DA00007B20BE0F01901B28A46069800F0DAF992
:102DB0005146584600F0D6F97F1C3FB2A742F1DBDE
:102DC000684207B20BE0F01901B28A46049800F09D
:102DD000C9F95146029800F0C5F97F1C3FB2AF42D5
:102DE000F1DBA54292DB0CB0BDE8F08F2DE9F04F8E
:102DF00089B00646584200930F46904600251C466F
:102E0000059001F014FC00229A4B01F09FF98146D5
:102E100008FB08FA8B46504601F009FC4A465B461F
:102E2000CDE9010101F06AFC009B804603FB03F938
:102E30008B46484601F0FBFB42465B46CDE9030169
:102E400001F084F901F050F98346129890B1059889
:102E50000DE007EB080001B23046059100F082F961
:102E60003046059900F07EF908F1010000B2804675
:102E7000A042EEDB381901B2701900B2059107903B
:102E800000F070F9381B01B2701B00B28046069149
:102E900000F068F94046059900F064F9DDE9061094
:102EA00000F060F9204601F0C2FB0022714B01F0F6
:102EB000BFFD02460B46DDE9010101F01FFC804623
:102EC000681CCDE9051000FB09F001F0B0FB42469B
:102ED000059B01F0D7FB3ED24FF0030101EB45010A
:102EE000BBF5000F09FB01F006DA01F0EDFE5946D3
:102EF00001F088FE83460DE06342022202EB4302AA
:102F00000AFB020001F0E0FE594601F07BFE641E60
:102F1000834624B2069805B212980028AAD06042CF
:102F20000FFA80F8701900B20590701B00B207907C
:102F30000EE007EB080001B20691059800F012F9C7
:102F4000DDE9061000F00EF908F101000FFA80F833
:102F5000A0458FDAEDE700990AFB01F0484301F044
:102F600066FBCDE90601601E0AFB00F1484301F053
:102F70005EFBCDE90001284601F059FB00223D4BE4
:102F800001F0E4F802460B4680468B46DDE903017A
:102F900001F0B4FB42465B4601F0B0FBDDE90023E3
:102FA00001F0D4F8DDE9062301F042FD01F09CF8C0
:102FB000834659E0BBF5000F13DA022101EB45010E
:102FC0006342032209FB01F002EB43020AFB020009
:102FD00001F07AFE594601F015FE6D1C83462DB2B4
:102FE0000BE06242032101EB42010AFB01F001F018
:102FF0006BFE594601F006FE8346641E129824B209
:10300000D0B160420FFA80F8701900B20290701BC4
:1030100000B201900EE007EB080001B200910298A7
:1030200000F0A0F8DDE9001000F09CF808F10100C4
:103030000FFA80F8A045EEDB381901B2701900B222
:103040000091029000F08EF8381B01B2701B00B2A4
:103050008846019000F086F8DDE9001000F082F863
:103060004146029800F07EF8002CA3DC09B0BDE8D0
:10307000F08F00000000E03F2DE9F04F1D464FF0BB
:10308000000916460C460746C846A9420ED1B7426B
:1030900008DD3E46174605E02146384600F062F856
:1030A0007F1C3FB2B742F7DDBDE8F08FB7420DD1CC
:1030B000AC4208DD1C460D4605E02146384600F0CE
:1030C00051F8641C24B2AC42F7DDEDE703DD3E4667
:1030D00017461C460D46AC4205DD604204B268420C
:1030E00005B24FF00109281BF11B884207DD384665
:1030F0002746044630462E4605464FF00108281B59
:103100004200F11B0FFA82FB421A52000FFA82FAB8
:10311000C1EB400019E0784201B203E0604201B225
:1031200003E03946204601E02146384600F01AF80F
:10313000B742B9DA7F1C3FB2002D02DA05EB0B0073
:1031400003E0641C24B205EB0A0005B2B9F1000FDC
:1031500003D0B8F1000FE1D0DDE7B8F1000FE3D004
:10316000DFE7000010B57F2813D8002911DB3F29C5
:103170000FDCCA1701EB5272D410064B22F0070283
:1031800003EBC41318448A1A0378012191400B43BE
:10319000037010BD640000202DE9F0430746CD18F0
:1031A00007988846BE1870BB681E3C460FFA80F927
:1031B00009E041462046FFF7D5FF49462046FFF784
:1031C000D1FF641C24B2A642F3DC761E444636B21C
:1031D00009E021463846FFF7C5FF30462146FFF794
:1031E000C1FF641C24B2A542F3DCBDE8F083444671
:1031F00005E021463846FFF7B5FF641C24B2A5421E
:10320000F7DC7F1C3FB2BE42F1DCEEE72DE9F04F68
:1032100085B00546DDE90F700E9EADF80450ADF89F
:103220000C109B4692460C46A8468946ADF80620EF
:10323000ADF80860ADF80E30ADF81070D8B150465A
:10324000C24500DA8046464500DAB046CB4500DA92
:10325000D9464F4500DAB9465046AA4500DD054635
:10326000AE4200DD35465846A34500DD0446A74280
:103270002CDD3C462AE05B46524621462846FFF7B5
:10328000FBFE3B46324621462846FFF7F5FE3B460D
:10329000324659465046FFF7EFFE05B0BDE8F08FC5
:1032A0004E460DE0434603AA01A90320009600F014
:1032B000DFFA18B131464046FFF754FF761C36B2AC
:1032C000A642EFDD08F101080FFA88F8A845E7DD0E
:1032D000E3E7000010B57F2814D8002912DB3F294E
:1032E00010DCCA1701EB5272D310074C22F0070210
:1032F00004EBC3138A1A185C01219140084201D0E3
:10330000012010BD002010BD6400002010B5AE20CB
:1033100000F08EFAD52000F08BFA802000F088FAB9
:10332000A82000F085FA3F2000F082FAD32000F0B8
:103330007FFA002000F07CFA402000F079FAA1200A
:1033400000F076FAC82000F073FADA2000F070FA84
:10335000122000F06DFA812000F06AFACF2000F010
:1033600067FAD92000F064FAF12000F061FADB205E
:1033700000F05EFA302000F05BFAA42000F058FA6A
:10338000A62000F055FA8D2000F052FA142000F02B
:103390004FFAAF2000F04CFAFFF728FBBDE81040D1
:1033A00000F032BA2DE9F0411C461546884601F07E
:1033B0003EF906460F46404601F039F932463B4693
:1033C00000F062FC0C4A0D4B00F07CFF00220C4B1D
:1033D00001F094F901F0CEF800B2A54204DAA84257
:1033E00007DBA04202DD04E0A842FADB0120BDE8D1
:1033F000F0810020FBE700001F85EB51B81E09405B
:10340000008066400346012000E05843491EFCD27C
:1034100070470FB470B5C0B014460D46064648AAB2
:1034200068464799FCF726FF23466A4629463046F8
:1034300000F0C2F940B070BC5DF814FB10B5084B49
:103440000021002003EBC112145CE4431454401C1F
:10345000C0B28028F8D3491CC9B20829F1D310BDE5
:1034600064000020F0B501EB030C20E0044687184F
:1034700019E07F2C15D8002913DB3F2911DCCB176D
:1034800001EB5376F5100B4B26F0070603EBC51343
:103490002344A1EB060E1D78012606FA0EF67540B0
:1034A0001D70641C24B2A742E3DC491C09B28C45A0
:1034B000DCDCF0BD6400002010B50C4640F0B0002C
:1034C00000F0B6F9102040EA141000F0B1F904F051
:1034D0000F00BDE8104000F0ABB92DE9F0431D46E8
:1034E0001746894680460024079E12E0291B0220C9
:1034F000491EFFF787FFB7FBF0F000F0010204FB65
:10350000068000B233464946303200F007F8641CAA
:10351000E4B2AC42EAD3BDE8F083000008B5082B62
:103520000DD0062B0AD10A4B02EB420203EB4202FA
:10353000C03A00920823062200F092F808BD054B1D
:1035400003EB0212A2F50072102300920822F3E7A7
:103550008C5500089C4F00082DE9FF5F82B014468F
:103560001D46DDE911B607460022134620462946CE
:10357000DDF8408001F0C0F9334605D82B223846EB
:103580000399FFF7CBFF06E02D2238460399FFF79A
:10359000C5FF85F000452046294601F01BF882460C
:1035A00001F05CF822462B4601F036FA04460D463F
:1035B00059460A20FFF726FF814601F04FF82246C0
:1035C0002B4601F09BF800F019FD01F003F8B0FB69
:1035D000F9F1044601EB0A02B81900B2434600961D
:1035E000039900F097F808F1010000FB067000B2A3
:1035F00033462E220399FFF791FF08F1020000FBEA
:10360000067000B25B4622460096039900F082F8ED
:1036100006B0BDE8F09F2DE9F0431E46904689466E
:1036200007460024079D16E0311B1020491EFFF7B6
:10363000E9FEB8FBF0F000F00F0204FB05700A2A67
:1036400000B22B46494601D2303200E03732FFF754
:1036500065FF641CE4B2B442E6D3BDE8F083000029
:103660002DE9FF4F1F4616460D460024DDF834A015
:103670000098FFF7CFF97F1EF81707EB5070012174
:10368000DFF88CB001EBE00E3DE0002037E0009960
:103690000B187F2B31D8E91705EB5171CA1021F0B7
:1036A0000701691A002D03DA521E083112B209B25D
:1036B0002244072A0ED804FB06F70AEB00080BEB9E
:1036C000C21917F8087019F803C08F404CEA070CAC
:1036D00009F803C0571C072F0FD80BEBC21204FBCD
:1036E00006F70AEB000C1A4417F80C7012F8803F2A
:1036F000C1F10801CF403B431370401CC0B2B0423F
:10370000C5D3641CE4B2A645BFDCBDE8FF8F000052
:10371000640000202DE9F0471D4617468A46804682
:1037200000244FF00A09089E14E0291B0A20491EB4
:10373000FFF768FEB7FBF0F1B1FBF9F209FB1212DB
:1037400004FB068000B2334651463032FFF7E6FEF6
:10375000641CE4B2AC42E8D3BDE8F0872DE9F04741
:103760001E46089F15008A4680463B4603D42B22FE
:10377000FFF7D4FE03E02D22FFF7D0FE6D420024B8
:103780004FF00A0914E0311B0A20491EFFF73AFEE8
:10379000B5FBF0F1B1FBF9F209FB1212641C04FB5A
:1037A000078000B23B4651463032FFF7B7FEE4B225
:1037B000B442E8D3BDE8F087002003E00B0605D44F
:1037C000401C80B2115C0029F8D170470623B3EB8E
:1037D000511F05D1401C80B2115C0029F5D0EFE7E4
:1037E0000E23B3EB111F05D1401C80B2115C0029E0
:1037F000EBD0EFE71E23B3EBD10FE1D1401C80B239
:10380000115C0029F0D1704770B5084D00240021EB
:103810002046FFF751FE05EBC410802100F01AF896
:10382000641CE4B2082CF2D370BD000064000020D8
:1038300001B584B0012104A864228DE807000B467D
:10384000002278210248FEF749FB05B000BD0000C8
:10385000100000200EB564228DE8070001234022ED
:1038600078210248FEF73AFB0EBD00001000002050
:103870002DE9F04781469A4600200346A9F101044C
:10388000089E28E032F91350B54202DD4FF0010CDA
:1038900001E04FF0000C32F91470B74202DD4FF036
:1038A000010801E04FF00008C44511D031F914C0FF
:1038B00031F91340A6EB0508ACEB040C0CFB08FC3B
:1038C0007D1B9CFBF5F52544554501DD38B10020F5
:1038D0001C465B1C1BB24B45D4DBBDE8F0870120C6
:1038E000F6E770477047FEF7BFBB30B58FB02821B1
:1038F0006846FCF7D1FC14210AA8FCF7CDFC012096
:10390000010400248DE8130004904FF4E010CDE989
:103910000810022507956846FEF702FD08B172B649
:10392000FEE70F20CDE90A054FF48060CDE90C4099
:1039300002210AA80E94FEF721FC002801D072B6DD
:10394000FEE70FB030BD7047FEE7490050EAC120E6
:1039500018BF04204A0D18BF40F0010040F2FF726A
:10396000B2EB515F08BF40F00200012808BF0520FC
:1039700070470907090E002804DB00F1E02080F8F9
:103980000014704700F00F0000F1E02080F8141DD3
:1039900070472DE9F0414F1E00EBC7010446D1E905
:1039A000000115461E4637F006020DD02A46334662
:1039B00000F0A4FE7F1E04EBC703D3E9002300F050
:1039C000C5FB37F00602F1D1022F25D0042F13D00A
:1039D000062F18BFBDE8F0812A46334600F08EFE60
:1039E000D4E90A2300F0B2FB2A46334600F086FEF3
:1039F000D4E9082300F0AAFB2A46334600F07EFEF5
:103A0000D4E9062300F0A2FB2A46334600F076FEF6
:103A1000D4E9042300F09AFB2A46334600F06EFEF8
:103A2000D4E9022300F092FB2A46334600F066FEFA
:103A3000D4E90023BDE8F04100F088BB012201F089
:103A400052BA00F083BB0000024A0020110701F0C7
:103A50004ABA000001FDFFFF30380A2801D20120D8
:103A600070470020704700002DE9F84F04460D46CE
:103A700021F0004000917349814211DC7249884273
:103A800001DC06D12CB120462946BDE8F84FFFF7EE
:103A9000D5BF6E48002DCCBF6D496E49BDE8F88F8B
:103AA0006D49814211DD6D498142D8BF4FF0FF362B
:103AB0006DDD20462946FFF748FF042808BFFFF7C1
:103AC000C3FF20462946BDE8F88F6549654F25F0BC
:103AD0000045814233DD6449814219DD00263246CA
:103AE0004FF080432046294600F030FB80468A464E
:103AF00001222046294601F0F6F900223B4600F05B
:103B000097FF4246534600F0DDFB04460D463EE07B
:103B100001260022BA463B462046294600F016FB05
:103B200080460F46002253462046294600F080FF7B
:103B300042463B4600F0C6FB04460D4627E04B4993
:103B400081421BDDDFF828A10226002253462046D1
:103B5000294600F0D3FD00223B4600F0F7FA8046EC
:103B60000F46002253462046294600F061FF424698
:103B70003B4600F0A7FB04460D4608E0032622461C
:103B80002B4600203B4900F09DFB04460D46224693
:103B90002B461046194600F0B1FD8B468246024680
:103BA0000B4600F0ABFD07460246334888460B46FD
:103BB00006217844FFF7EDFE52465B4600F09EFD7D
:103BC00082462E488B463A46434605217844FFF705
:103BD000E0FE3A46434600F091FD02460B46002EB9
:103BE000504659460CDA00F0B1FA22462B4600F056
:103BF00085FD01B022462B46BDE8F04F00F00CBF1A
:103C000000F0A4FA22462B4600F078FD1C4A7A44C4
:103C100002EBC603D3E9002300F00AFF22462B463D
:103C200000F006FF174A7A4402EBC603D3E90023EB
:103C300000F0F2FE009A002AB8BF81F00041BDE812
:103C4000F88F0000000010440000F07F182D44544D
:103C5000FB21F93FFB21F9BF0000DC3F0000203EC3
:103C60000000F33F0000F03F0000E63F008003400B
:103C70000000F83F0000F0BFE21C0000A01C0000A4
:103C80003E1C0000061C00002DE9F04D9446CCF1CE
:103C9000000423F000464CEA0404524F46EAD47470
:103CA0009A46884621F00042BC4206D8454240EA86
:103CB000050442EAD474BC4204D9BDE8F04D624622
:103CC000FFF7BFBEAAF14055A5F17F6555EA0C0488
:103CD0000BD0022404EAAA74434DDFF810E144EA51
:103CE000D87452EA000B04D00CE0BDE8F04DFFF7A9
:103CF000BBBE002C14BF012CBDE8F08D022C30D0CF
:103D0000032C32D056EA0C0B0AD0BE4220D1BA4264
:103D100009D126F0804622F080423346114617E052
:103D200000291ADB25E0DFF8C8B0FB44002C04BFF3
:103D3000DBE90001BDE8F08D012C02BFDBE90001E9
:103D400081F00041BDE8F08D022C0AD0032C0CD08C
:103D5000BA4212D1B8F1000F0BDA23482549BDE869
:103D6000F08D28462449BDE8F08D28467146BDE80F
:103D7000F08D1D482149BDE8F08D921B12153C2A9B
:103D8000C4BF19481D490EDCBAF1000FBEBF12F1C5
:103D90003C0F0020014606DB624600F093FA21F05A
:103DA0000041FFF761FE002C08BFBDE8F08D012C3B
:103DB00004BF81F00041BDE8F08D114A114B022C87
:103DC00007D000F035FE2A46BDE8F04D0A4B00F062
:103DD0002FBE00F02DFE2A46BDE8F04D064B00F048
:103DE0001BBE00000000F07F182D4454FB2109C0C9
:103DF0009A1B0000FB21F9BFFB210940FB21F93F81
:103E0000075C143326A6A13C0EB5FEF735F9FFF783
:103E10006CFDFEF789FDFEF7C7FDFFF777FA00217D
:103E2000082341220846FFF779FB0623412212218D
:103E30000020FFF773FB0624052343F239021C21FF
:103E400000200094FFF766FC02236FF041021C2162
:103E500028200094FFF782FC04234AF2A5521C217B
:103E600046200094FFF7D7FB0823A5222621002037
:103E70000094FFF732FB02200321CDE90010584ADD
:103E8000584B029426213C20FFF766FB564810232E
:103E900000901A4630216020FFF7E2FB53A3062270
:103EA000122160200094FFF7B4FAFFF7ADFC40F652
:103EB000B8373846FDF74AFEFEF798FD0821052081
:103EC000FFF750F908210520FFF704FA234608B14F
:103ED00048A200E048A204210A20FFF76DFC0F234E
:103EE0007F2200212820FFF7C7F800237F220F211F
:103EF0002820FFF7C1F800250F230C2214212846A3
:103F00000095FFF749F901240F230C2228210020F6
:103F10000094FFF741F91E2623200096CDE9010504
:103F20001421192328220846FFF770F9372000963C
:103F3000CDE9010428222D2311461420FFF766F94C
:103F4000002308221B213720FEF7B1FE012308229F
:103F50002F213720FEF7ABFE08230C221B21522015
:103F60000095FEF743FF08230C222F2152200094D6
:103F7000FEF73CFF7D26CDE9006519230F221221B3
:103F80006E20FEF771FDCDE9006419230F22262172
:103F90006E20FEF769FDFFF737FC3846FDF7D6FDCA
:103FA000F600002425011023802229460020FFF777
:103FB00059FAFFF729FC3046FDF7C8FD102380228F
:103FC00029460020FFF74EFA641CE4B2042CE9D322
:103FD000FFF734FAFFF718FC3046FDF7B7FDE0E7CE
:103FE000CDCCCCCCCCDC5E40C65700085B25303253
:103FF000645D0000594553004E4F20002DE9F04DFF
:1040000007460E4600F0AEFC04460D463A463346DF
:1040100000F002FDDFF86CA0DFF86CB01B4B074628
:10402000884616F0004F4FF000020AD000F02AFB3D
:104030000AD900225B463846414600F05DFC1BD29F
:1040400012E000F01FFB08D200225346204629460A
:1040500000F0EEFC04460D460EE000225B463846BA
:10406000414600F049FC07D8002253462046294625
:1040700000F06CF804460D463146204665F31E01FB
:10408000BDE8F08D0000F03F0000E03F0000E0BF21
:1040900010B500290AD00878002807D005487844D0
:1040A000FDF740F9002801D0002010BD02487844F7
:1040B00010BD00000E1900000619000010B50029FF
:1040C0000AD00878002807D005487844FDF72AF977
:1040D000002801D0002010BD0248784410BD000027
:1040E000FE180000F618000021F00042A2F1605214
:1040F000B2F5801F01F0004328BFD2F17F6C0BD9CD
:104100005FEA001C43EAC20242EB507018BF7047DE
:1041100028BF20F001007047B2F5801FBCBF1846D1
:1041200070474FEA410C1CF5001F02D2084600F010
:1041300029BE70B500F08CFB00000089FFF7F6BFC8
:104140004FF00040A0F580007047000010B591EAE4
:10415000030F48BF83F0004300F17284841A71EBAF
:10416000030C05D2121943EB0C03001B61EB0C018D
:10417000DFF824E14FEA1154A4EB135C1EEA430F6D
:1041800018BF9EEA445F73D023EA0E03DCF1200ED1
:1041900021EA045143F4801332D322FA0CFE10EBCF
:1041A0000E0023FA0CFE41EB0E01CCF1200E03FAB7
:1041B0000EFE10EB0E0051F10001B1F5801FCCF1A5
:1041C000200E32D201EB045112FA0EF2BDE810407B
:1041D00058BF7047401C38BF5FEA420218BF7047A3
:1041E000002814BF20F0010041F100014FEA410313
:1041F00013F5001F38BF7047A1F1C04100F076BB36
:10420000012A43EB0302ACF1200CDCF11F0E32BF9C
:104210004FF0000E23FA0CF310EB030041EB0451B6
:10422000B4EB115FD0D0A1EB045101F58011490826
:104230005FEA300001EB04510ED350F1000038BFAB
:1042400012FA0EFE08D1BDE81040C9E7401C38BF85
:104250005FEA4202CAD1C3E7BDE810404FEA41031A
:1042600013F5001F38BF7047A1F1C04100F03EBBFD
:104270009EEA445F08D011EA5E0FBDE8104004BF1B
:1042800001F0004100207047BDE8104070B500F01B
:10429000DFFA00BF64FBBE3E0000E0FF02494FF0C2
:1042A000000000F0EEBD00BF0000F87F491058BFCD
:1042B000C1F140415B1058BFC3F140438B42EFF363
:1042C000008070472DE9C04130B4DFF8A0C23CEA5D
:1042D000111418BF3CEA131400F0EC8081EA0305C6
:1042E0001CEA111444EAD57418BF1CEA131500F037
:1042F000C780A4EB05044FF0004545EAC12145EA1B
:10430000C32341EA505143EA525304F17F74994266
:1043100004F500344FEAC0204FEAC22208BF9042A1
:1043200000F09C804FEA13650FF24016765D4FEA6D
:10433000134506FB05F7C7F1807706FB07F74FEA41
:10434000D737A7FB03687642C8F58038A7FB06CEAF
:1043500038BFA8F1010807FB08E64FF0000EA6FBE6
:10436000028CE6FB03CEDCF1000CCEF1004E38BF30
:10437000AEF1010EA6FB0C584FF000074FF0000500
:10438000E6FB0E87A1FB08C6A0FB07CE16EB0E06C8
:1043900045F10005E1FB076515F1E04E7EBFA4F590
:1043A00080345FEA46066D4116F1800745F100054D
:1043B0004FEA17274FEA066647EA0567A6F1DE4689
:1043C000B6F1805F4FEA15251FD9384624F0010C5D
:1043D00005EBC471BCF1FE6F01EB0C1102D8F0BC0F
:1043E000BDE8008124425CBF01F5801E9EEAC47FC7
:1043F00002D4F0BCBDE80081244238D4F0BCA1F165
:10440000C041BDE8004100F071BA4FEAD22242EA51
:1044100043524FEAD323A7FB02864FEAD02040EA5B
:10442000415007FB03661EEA0E0F4FEAD12105FB40
:10443000026658BFA6EB0056B6EB00564FEA520E86
:104440004EEAC37E18EB0E0E56EB530EBDD518EB9D
:1044500002085E417F1C55F10005B6E74FF4801558
:104460004FF000074FF000064FF00008ADE7F0BC3A
:104470004FF0000001F1C04101F00041BDE80081B2
:1044800011EA0C1F0CEA131500D00CE013EA0C1F04
:1044900000F025804FF00000F0BC81EA030101F03C
:1044A0000041BDE80081F0BCBDE8004181EA0301A4
:1044B00000F01CBAF0BCBDE8004170B500F0C8F9CE
:1044C000097EFC3E00F007B881EA03014FF00000CE
:1044D00001F00041704781EA030100F007BAF0BC27
:1044E000BDE800414FF0000021497047FFFDFBF996
:1044F000F7F5F4F2F0EEEDEBE9E8E6E4E3E1E0DE17
:10450000DDDBDAD8D7D5D4D3D1D0CFCDCCCBCAC888
:10451000C7C6C5C4C2C1C0BFBEBDBCBBBAB9B8B7AF
:10452000B6B5B4B3B2B1B0AFAEADACABAAA9A8A8A2
:10453000A7A6A5A4A3A3A2A1A09F9F9E9D9C9C9B70
:104540009A9999989797969595949393929191901B
:104550008F8F8E8E8D8C8C8B8B8A898988888787AC
:104560008685858484838382828181800000FF0721
:104570000000F87F4FEA41034FEA5353A3F58063ED
:10458000D3F11E03C8BFD3F1210C0CDD4FF0004264
:1045900042EAC12242EA505232FA03FC8CEAE17C40
:1045A000ACEBE1707047102BC4BF0020704703F5DF
:1045B000787CBCF1FF3F04D06FF0004282EA21001A
:1045C000704770B500F044F949922480002070478C
:1045D000F2E700004FEA1153A3F58063D3F11E0305
:1045E000A8BFD3F1200C08DB4FF0004242EAC12201
:1045F00052EA505232FA03F0704709420BD4102BA2
:10460000C4BF0020704703F5787CBCF1FF3F05D0A4
:104610004FF0FF3070474FF00000704770B500F06A
:1046200017F900BF4992248000207047F0E710F08E
:10463000004248BF4042B0FA80F310FA03F10AD0BA
:10464000C3F11D0303F580634FEA415002EB0352AF
:1046500002EBD12170474FF000007047B0FA80F3B1
:1046600010FA03F10AD0C3F11D0303F580634FEA8A
:1046700041504FEA035202EBD12170474FF0000046
:104680007047000051EA030C17D41CF5801F58BF77
:10469000BCF5801F00F10680994218BF704708BF23
:1046A0009042704707D711F5801F58BF13F5801F40
:1046B00019D499427047894270471CF5801F08D56C
:1046C000BCF5801FF7D58B4218BF704708BF8242E8
:1046D00070474FF4001C1CEB410F38BF1CEB430F1D
:1046E00001D28B42704770B500F0B2F892244900B5
:1046F0004FF000514FF08053FFF7D8BDDFF848C1AD
:1047000070B51CEA111E1EBF1CEA13159EEA0C0FA1
:1047100095EA0C0F00F06F8081EA030423EA4C1342
:104720004EEAD47E21EA4C1141F4801143F4801307
:10473000AE44A1FB024CA0FB0365AEF17F7E3619AF
:1047400055EB0C05A1FB034C4CF10003A0FB021C34
:1047500016EB0C06654153F10003094218BF46F001
:10476000010613F4007F0BD14FEA03314FEA053005
:10477000340341EA155140EA16506FF003020AE093
:104780004FEAC3214FEAC520F40241EA555140EAFD
:1047900056506FF0020202EB2E4201EB025585EA01
:1047A000CE710AD05FEA440C18BF24F0004450F1E7
:1047B000000041F1000120EAD47040F2FE7C624525
:1047C00000D270BDA84214BF4FF080444FF0404467
:1047D000002E08BF0024BEF1806FA8BFA1F1C04128
:1047E000BDE8704080F282804FF0000001F1C041CE
:1047F00001F0004170479EEA0C0F0CEA131518BF38
:1048000095EA0C0F06D04FF0000081EA030E0EF07F
:10481000004170BD00F01CF88900013E00F007B8AF
:1048200000F009B84FEA430C5FEA5C5C08D081EA0B
:10483000030100F05BB84FEA410C5FEA5C5CF6D123
:104840004FF00000014970470000FF070000F87FAB
:104850000EF1020E2EF0030E5EF8046B364205D404
:10486000012A43EB030515F5001F12D8012841EB7F
:10487000010C1CF5001F0CD80ED14FEAD17C15F5A8
:10488000001F0CEB4C0C0CF1020C08BF4CEBD37C62
:1048900004E04FF0080C01E04FEAD37C0CEB4C0530
:1048A00026FA05F606F00706B6F1040C06D20EEB62
:1048B000860CBDE870404CF0010C6047DFE80CF05E
:1048C000090B02024FF000414FF00000A1F500215A
:1048D00070BD19461046012851EB010418BFD4F5EC
:1048E000001484BF002001F0004170BD0808A0F54D
:1048F00000114FEA3101704753EA010C17D41CF53F
:10490000801F58BFBCF5801F00F106808B4218BF86
:10491000704708BF8242704707D713F5801F58BF02
:1049200011F5801F19D48B4270479B4270471CF5CC
:10493000801F08D5BCF5801FF7D5994218BF704776
:1049400008BF904270474FF4001C1CEB430F38BF68
:104950001CEB410F01D2994270470FB40CBC03BC51
:10496000FFF7C1BE5FEA410C5FEA5C5CACF58063B7
:104970005B1C39D4D3F1340240F34580B2F12003FB
:1049800014DA4FF0010C0CFA02FCACF10103034005
:10499000B3EB5C0220EA030008BF10EA0C0F98BFDB
:1049A000704710EB0C0041F1000170470AD0C3F1D1
:1049B000200201FA02FC012821FA03F101FA03F1B5
:1049C0004CF100004FF0010C0CFA03FCACF10103B8
:1049D000B0F1004F21EA030108BF11EA0C0F4FF0BC
:1049E000000088BF61447047B3F1FF3F28BF50EA21
:1049F000C12C01F000414FF0000084BF41F07C5118
:104A000041F470017047B3F5806FB8BF704770B55F
:104A1000FFF71EFF40DBB6BE91EA030F10B581F031
:104A200000413FF59BAB83F0004300F009B8000064
:104A300010B591EA030F48BF83F000433FF58EABFA
:104A4000841A71EB030C07D212198CF0004C43EB63
:104A50000C03001B61EB0C01DFF8A4E14FEA1154D9
:104A6000A4EB135C1EEA430F18BF9EEA445F00F0FC
:104A7000B08023EA6E03524221EA0451C3EB6E0375
:104A800038BF5B1EDCF1200E25D322FA0CFE10EBA2
:104A90000E0043FA0CFE41EB0E01CCF1200E03FA9E
:104AA0000EFE10EB0E0051F10001CCF1200E29D4C6
:104AB00012FA0EF201EB0451BDE8104058BF7047E6
:104AC000401C1CBFB2F1004F704700280CBF491CAE
:104AD00020F00100704712EB020E43EB030218BFF7
:104AE0004FF0010E4EEA4202ACF1200CDCF11E0E3A
:104AF00054D943FA0CFE10EB0E0051F1FF31CCF10A
:104B00001E0ED5D50EF1010E12FA0EFE404141EBFC
:104B1000010101EB445C5FEA5C5C10D910EBDE70D4
:104B200001EB045138BFBEF1004FBDE8104018BF83
:104B3000704700280CBF491C20F00100704730D29C
:104B40004FEAD42C11F5001124F400641BD0B1FA03
:104B500081F20B3AA41AA41ED2F12003914030FA3C
:104B600003F31943904001EBCC71002C01EB04518D
:104B7000BDE81040A8BF704701F1C0414FF00000F0
:104B800001F000417047B0FA80F310FA03F100D150
:104B900010BDE41A173C4805C90AE4E701EB0451CB
:104BA00010BD491001EB0451BDE810404FEA300040
:104BB00002E04FF0000170474A0008BF0042F8D001
:104BC000B2F5001F28BF704701F000414FF0000010
:104BD00070479EEA445F07D011EA5E0FBDE81040BF
:104BE00004BF002100207047BDE8104070B5FFF7FA
:104BF0002FFE00BF40DFF63E83F0004110467047B5
:104C00000000E0FF90EA010F48BF81F0004100F191
:104C1000C680421A3CBF801A89184FEAD0524FF022
:104C20007F4C1CEA410FA2EBD15318BF9CEA026FE4
:104C300000F03B804FF0004C4CEA00204CEA012190
:104C400021FA03FC10EB0C0C1ED202F1FF325FEADA
:104C50001C2040EBC25038BF70471CF07F0F4FEA5A
:104C6000400C18BFBCF17F4F38BF7047C3F1200321
:104C7000994008BF20F00100BCF17F4F38BF70475A
:104C8000A0F1C04000F07EB84FEA3C00000A40EBC3
:104C9000C25028BF1CF0FF0F4FEA400CE6D018BFEF
:104CA000BCF17F4F38BF7047EAE79CEA026F05D03E
:104CB00010EA5C0F08BF00F00040704710B500F02C
:104CC0001BF800BF64FBBE3E10F0004148BF4042ED
:104CD000B0FA80F310FA03F2C3F19D030BD051EA4E
:104CE000C35101EB1220530638BF704700F1010099
:104CF00008BF20F0010070470EF1020E2EF0030EE7
:104D00005EF8044B244204D44FEA4102B2F17F4FD3
:104D100011D84FEA4003B3F17F4F0CD80ED14FEAC0
:104D2000D07CB2F17F4F0CEB4C0C0CF1020C08BFA5
:104D30004CEBD17C04E04FF0080C01E04FEAD17C51
:104D40000CEB4C0324FA03F404F00704B4F1040C54
:104D500006D20EEB840CBDE810404CF0010C60470D
:104D6000DFE80CF0070802024FF00040A0F58000D9
:104D700010BD0846420018BFD2F1807288BF00F013
:104D8000004010BDFF2141EAD050C005704700002F
:104D900090EA010F48BF81F000413FF53AAF421A57
:104DA00004D882F00042A0EB020011444FEAD05236
:104DB0004FF07F4C1CEA410FA2EBD15318BF9CEA85
:104DC000026F4AD04FF0004C4CEA00204CEA01211F
:104DD00021FA03FCB0EB0C0C0FD412F0FE0F36D00E
:104DE0005FEA4C001DD5001240EBC25038BF70473F
:104DF0001CF03F0F18BF70470BE0A2F101025FEA01
:104E00001C2040EBC25038BF70471CF07F0F18BF0A
:104E10007047C3F12003994014BF401E20F00100E9
:104E2000704780084FEA122308BF7047B0FA80FC31
:104E3000A2EB0C02CCF1280C60FA0CF093EA122FD2
:104E400004BF00EBC25070474FEAC3707047130AAB
:104E50005FEADC1008BF7047F6E79CEA026F04D0F7
:104E600010EA5C0F08BF0020704710B5FFF744FF41
:104E700040DFF63E81F000407047FBF760BEFBF775
:104E800095BF0CF00F03092B08BF082000F05980D4
:104E90000A2B0BD0082B18BF704708BF1CF0400F1F
:104EA0000AD04FF000004FF0000170471CF0400F97
:104EB00018BF4FF0004070471CF0100F08D020F0D2
:104EC000704300F07F4242EAD3014FEA43707047DB
:104ED00000F0604021F07F4242EA000201F07F4092
:104EE00040EA727070474FF0FF0C4CF4E06C1CEA23
:104EF00011531CBF9CEA030C9445C2BFDA4201EB7C
:104F000002517047002B0DD0BCF1000F0FD0002ACA
:104F100001F00041A4BF41F0E04141F07F614FF05A
:104F20000000704701F000414FF00000704750EA68
:104F300001334FF09B0C18BF4CF0806C7FF4AEA98E
:104F400070471CF4801F11D01CF4E02F03D06FEACF
:104F5000CC31490070474FF04050EFF3008222F00F
:104F6000704242EA000282F3008870474FF000006E
:104F70007047010202030405060708090A0B0C0D1D
:104F80000E0F1010000000000000000001020304DA
:104F900006070809000000000102030400000000E9
:104FA000000000000000000000000000000000F809
:104FB00000000000000000333000000000160E006A
:104FC000160E0000000000000000000040C0784005
:104FD000C0784000043F04043F040400007088FCD3
:104FE00008300000001820FF211E0000F008F0002B
:104FF000E018000000211C031E211E0000F008889C
:10500000700000001E212324192721100000001623
:105010000E0000000000000000000000000000E0A2
:1050200018040200000000071820400000020418C5
:10503000E00000000040201807000000404080F021
:10504000804040000202010F01020200000000F057
:10505000000000000101011F01010100000000002B
:105060000000000000B07000000000000000000020
:105070000000000000010101010101010000000029
:1050800000000000003030000000000000000000C0
:1050900080601804006018060100000000E010089D
:1050A0000810E000000F102020100F00001010F872
:1050B000000000000020203F2020000000700808B1
:1050C0000888700000302824222130000030088831
:1050D000884830000018202020110E000000C02059
:1050E00010F8000000070424243F240000F808887A
:1050F000880808000019212020110E0000E0108807
:1051000088180000000F112020110E000038080838
:10511000C83808000000003F000000000070880848
:1051200008887000001C222121221C0000E01008C9
:105130000810E0000000312222110F00000000C022
:10514000C00000000000003030000000000000C07F
:10515000C0000000000080B070000000000080402F
:1051600020100800000102040810200040404040C8
:10517000404040000404040404040400000810201B
:105180004080000000201008040201000070480860
:105190000808F0000000003036010000C030C828C8
:1051A000E810E0000718272423140B000000C03883
:1051B000E0000000203C23020227382008F88888FD
:1051C00088700000203F202020110E00C030080809
:1051D00008083800071820202010080008F80808E0
:1051E0000810E000203F202020100F0008F88888D9
:1051F000E8081000203F20202320180008F88888A5
:10520000E8081000203F200003000000C03008081C
:105210000838000007182020221E020008F80800A5
:105220000008F808203F210101213F20000808F86C
:10523000080800000020203F20200000000008088F
:10524000F8080800C08080807F00000008F888C04F
:1052500028180800203F20012638200008F8080000
:1052600000000000203F20202020300008F8F80037
:10527000F8F80800203F003F003F200008F830C049
:105280000008F808203F200007183F00E010080839
:105290000810E0000F10202020100F0008F8080868
:1052A0000808F000203F210101010000E01008087B
:1052B0000810E0000F18242438504F0008F88888A0
:1052C00088887000203F2000030C30200070880880
:1052D000080838000038202121221C00180808F88E
:1052E000080818000000203F2000000008F808000F
:1052F0000008F808001F202020201F0008788800E0
:1053000000C83808000007380E010000F80800F84F
:105310000008F800033C0700073C030008186880F9
:105320008068180820302C03032C30200838C8006F
:10533000C83808000000203F2000000010080808BE
:10534000C83808002038262120201800000000FE60
:10535000020202000000007F40404000000C30C00C
:1053600000000000000000010638C0000002020238
:10537000FE000000004040407F00000000201008B8
:1053800004081020000000000000000000000000E1
:1053900000000000808080808080808000020408FF
:1053A00000000000000000000000000000008080FD
:1053B000808000000019242222223F2008F800806B
:1053C00080000000003F112020110E00000000802E
:1053D00080800000000E11202020110000000080BD
:1053E0008088F800000E112020103F2000008080EF
:1053F00080800000001F222222221300008080F003
:10540000888888180020203F20200000000080802D
:1054100080808000006B94949493600008F8008072
:1054200080800000203F210000203F2000809898CD
:10543000000000000020203F20200000000000802D
:105440009898000000C08080807F000008F800006D
:1054500080808000203F24022D302000000808F8C2
:10546000000000000020203F20200000808080807D
:1054700080808000203F20003F20003F008080008F
:105480008080000000203F2100203F20000080801D
:1054900080800000001F202020201F0080800080CE
:1054A0008000000080FFA12020110E00000000807D
:1054B00080808000000E112020A0FF80808080006E
:1054C0008080800020203F2120000100000080809B
:1054D000808080000033242424241900008080E090
:1054E000808000000000001F20200000808000005D
:1054F00000808000001F202020103F20808080003E
:105500000080808000010E3008060100808000804D
:10551000008080800F300C030C300F000080800072
:10552000808080000020312E0E312000808080009D
:105530000080808080818E7018060100008080804D
:10554000808080000021302C2221300000000000EB
:10555000807C020200000000003F4040000000008C
:10556000FF00000000000000FF0000000002027CBD
:10557000800000000040403F0000000000804040EC
:105580008000008000000000000101000000000019
:1055900000000000002F00000000070007000014BA
:1055A0007F147F1400242A7F2A12002313086462C8
:1055B00000364955225000000007000000001C2260
:1055C0004100000041221C000014083E081400089D
:1055D000083E0808000000A060000008080808084D
:1055E000000060600000002010080402003E5149E5
:1055F000453E0000427F4000004261514946002183
:1056000041454B31001814127F100027454545399C
:10561000003C4A49493000017109050300364949F7
:10562000493600064949291E0000363600000000B0
:1056300056360000000814224100001414141414FB
:10564000000041221408000201510906003E49559C
:10565000592E007C1211127C007F49494936003EC8
:1056600041414122007F4141221C007F494949417B
:10567000007F09090901003E4149497A007F080875
:10568000087F0000417F4100002040413F01007F32
:1056900008142241007F40404040007F020C027FFE
:1056A000007F0408107F003E4141413E007F090910
:1056B0000906003E4151215E007F09192946004636
:1056C000494949310001017F0101003F4040403F0D
:1056D000001F2040201F003F4038403F0063140857
:1056E0001463000708700807006151494543000032
:1056F0007F414100000204081020000041417F006A
:105700000004020102040040404040400000010249
:105710000400002054545478007F48444438003832
:105720004444442000384444487F003854545418BA
:1057300000087E0901020018A4A4A47C007F0804CC
:1057400004780000447D4000004080847D00007F9C
:10575000102844000000417F4000007C04180478B9
:10576000007C0804047800384444443800FC2424B5
:1057700024180018242418FC007C0804040800489D
:105780005454542000043F444020003C4040207CBE
:10579000001C2040201C003C4030403C00442810AD
:1057A0002844001CA0A0A07C004464544C44000089
:1057B000087F41000000007F00000000417F0800DA
:1057C000000804081008FF01818181FD8991A1C1B1
:1057D000FD81818101FFFF808080809F888482819C
:1057E0009F80808080FF000000000000000000001B
:1057F0003031323334353637383941424344454607
:105800004030580030313233343536373839616200
:105810006364656640307800040000080000000002
:105820000000000200010000100000000000000065
:105830004FBB610567ACDD3F182D4454FB21E93FA8
:105840009BF681D20B73EF3F182D4454FB21F93F97
:10585000E2652F227F2B7A3C075C143326A6813C1D
:10586000BDCBF07A8807703C075C143326A6913CC8
:10587000C4EB98999999C9BF711623FEC671BCBF34
:105880006D9A74AFF2B0B3BF9AFDDE522DDEADBF9C
:105890002F6C6A2C44B4A2BF0D5555555555D53FB4
:1058A000FF8300922449C23F6E204CC5CD45B73FCF
:1058B000513DD0A0660DB13FEB0D76244B7BA93F47
:1058C00011DA22E33AAD903F000000000000000032
:1058D0003031323334353637383961626364656666
:1058E00078700030313233343536373839414243FD
:1058F000444546585000000002400000000000A04F
:105900000000000005400000000000C8000000008A
:105910000C4000000000409C000000001940000006
:105920000020BCBE0000000034400000BFC91B8E38
:1059300000000004B5400000504BCFD06607E2CF16
:10594000010000006C4100003E8251AADFEEA73446
:1059500001000000D9420000DCB5A0E23A301F97F8
:10596000FFFFFFFFB4450000FD25A0C8E9A3C14F1C
:10597000FFFFFFFFFF3F000000000080000000006D
:10598000FF3F00000000008000000000D85A00081F
:10599000000000201000000028010008E85A00085C
:1059A00010000020B80A0000440100081C0000009C
:1059B00043000000F8FFFFFF0C0000000E00000095
:1059C0000F0000002E000000100100004300000046
:1059D000F8FFFFFF00404040404040404040414110
:1059E00041414140404040404040404040404040B4
:1059F000404040404005020202020202020202024E
:105A0000020202020220202020202020202020024A
:105A100002020202020290909090909010101010DA
:105A20001010101010101010101010101010101076
:105A3000020202020202888888888888080808080A
:105A400008080808080808080808080808080808D6
:105A500002020202400000000000000000000000FE
:105A60000000000000000000000000000000000036
:105A70000000000000000000000000000000000026
:105A80000000000000000000000000000000000016
:105A90000000000000000000000000000000000006
:105AA00000000000000000000000000000000000F6
:105AB00000000000000000000000000000000000E6
:105AC00000000000000000000000000000000000D6
:105AD00000000000000000000100000010000000B5
