:020000040800F2
:10000000500B002035020008073D0008C52E0008EF
:10001000053D0008331C0008713D00080000000089
:100020000000000000000000000000000B3D000880
:100030006B1C000800000000093D00080D3D000891
:100040004F0200084F0200084F0200084F0200084C
:100050004F0200084F0200084F0200084F0200083C
:100060004F0200084F0200084F0200084F0200082C
:100070004F0200084F0200084F0200084F0200081C
:10008000351C00084F0200084F0200084F0200080C
:100090004F0200084F0200084F0200084F020008FC
:1000A0004F0200084F0200084F0200084F020008EC
:1000B0004F0200084F0200084F020008C92E000836
:1000C0004F0200084F0200084F0200084F020008CC
:1000D0004F0200084F0200084F0200084F020008BC
:1000E0004F0200084F0200084F02000800F002F81B
:1000F00000F090F80AA090E8000C82448344AAF132
:100100000107DA4501D100F085F8AFF2090EBAE82F
:100110000F0013F0010F18BFFB1A43F0010318473B
:10012000DC6F0000FC6F0000103A24BF78C878C173
:10013000FAD8520724BF30C830C144BF04680C60ED
:10014000704700000023002400250026103A28BF35
:1001500078C1FBD8520728BF30C148BF0B60704739
:100160006E2900F0A781702900F0E982662904F069
:100170009380652904F09080672904F08D806129BF
:1001800004F08C8003681B0A28BF41F080016929B4
:1001900000F05481642900F05181752900F04E81EE
:1001A0006F2900F07682782900F0B582E92900F005
:1001B0001182E42900F00E82F52900F00B82EF296C
:1001C00000F07382F82900F0B4820368DB0928BFCD
:1001D00041F08001632900F0E987732900F0EE8780
:1001E000E32900F0F987F32900F0FE87002070472B
:1001F0001FB501F04BF804000020002104F036F890
:10020000401C60600020002104F01AF8E0601FBD6F
:1002100010B510BD01F00CF81146FFF7E9FF03F02F
:10022000C9FF01F0E9F803B4FFF7F2FF03BC01F0E6
:1002300031F900000948804709480047FEE7FEE71A
:10024000FEE7FEE7FEE7FEE7FEE7FEE7FEE7FEE786
:1002500004480549054A064B704700006F3D0008F9
:10026000ED00000850050020500B00205007002032
:10027000500700201CB50C46064B7B446946009095
:10028000204600F030F904460020694600F03EF9AF
:1002900020461CBD8F020000032A40F2308010F07F
:1002A000030C00F0158011F8013BBCF1020F624411
:1002B00098BF11F801CB00F8013B38BF11F8013BA2
:1002C000A2F1040298BF00F801CB38BF00F8013B4F
:1002D00011F0030300F00283083AC0F0088051F8DF
:1002E000043B083A51F804CBA0E80810F5E7121DCA
:1002F0005CBF51F8043B40F8043BAFF30080D207E9
:1003000024BF11F8013B11F801CB48BF11F8012BB4
:1003100024BF00F8013B00F801CB48BF00F8012BD7
:1003200070474FF0000200B51346944696462039B8
:1003300022BFA0E80C50A0E80C50B1F12001BFF49E
:10034000F7AF090728BFA0E80C5048BF0CC05DF804
:1003500004EB890028BF40F8042B08BF704748BF52
:1003600020F8022B11F0804F18BF00F8012B7047C6
:1003700070477047704770B5044685690068C106CC
:1003800001D5302600E02026C00707D070BDD4E993
:10039000012130469047206A401C20626D1EF6D530
:1003A00070BD70B5044685690078C00707D170BD7F
:1003B000D4E9012120209047206A401C20626D1E54
:1003C000F6D570BD09684A0501D540B27047C90528
:1003D000FCD500B2704709684A0501D5C0B2704724
:1003E000C905FCD580B2704770B50C460546012A98
:1003F00005D02878800600D5EA69002302E00123B1
:1004000005E05B1C934202D2E05C0028F9D1A869A8
:10041000E618C01AA861286A184428622846FFF71F
:10042000AAFF04E0D5E9012114F8010B9047B4427A
:10043000F8D32846FFF7B5FF70BD00002DE9F04165
:100440000646002410687529314616A510D0FFF71E
:10045000B9FF002802DA404213A507E031688A0795
:1004600001D512A502E0490704D511A5012401E038
:10047000FFF7B1FF00210A2206F1240709E0B0FBD3
:10048000F2FCB0FBF2F302FB1C003030785418464B
:10049000491C0028F3D123462A463046BDE8F041E6
:1004A00000F093BA000000002D0000002B000000B7
:1004B0002000000011680268006A530501D5087029
:1004C0000AE0D30501D5088006E0130603D5C2175C
:1004D000C1E9000200E008600120704701694A1C80
:1004E00002610878704700B58FB0CDE90131002175
:1004F000059105497944CDE903101146684600F09D
:1005000029F90FB000BD0000E5FFFFFF0A6802F8FF
:10051000010B0A60704700002DE9FF5F15468A460F
:100520000446DFF8AC80F8440027D8E900103E46C6
:10053000CDE9001010E03AF816106A4602A800F063
:1005400057FE411C07D02178890603D5E269391886
:1005500091420DD80744761C2078800602D5E069C8
:10056000B84205DDAE42E6DB3AF816000028E2D1DB
:10057000A069C01BA0612046FFF7FDFED8E900106E
:10058000CDE90010002017E03AF818106A4602A8DA
:1005900000F02EFEB0F1FF3F81460BD000250DF19B
:1005A000080B05E0D4E901211BF8050090476D1CFC
:1005B0004D45F7D308F10100B0428046E4DB206AE4
:1005C000384420622046FFF7ECFEBDE8FF9F0000A4
:1005D000D66A00002DE9F0418046D21D22F00702C4
:1005E0000025D2E90002F52915A614D0011E72F1EA
:1005F000000106DA0023D0EB030063EB020211A630
:1006000008E0D8F800108B0701D50FA602E04907D3
:1006100001D50EA601251146002408F1240704E0A7
:1006200000F08EF930323A55641C50EA0102F7D1DD
:100630002B46324621464046BDE8F04100F0C5B9A0
:10064000000000002D0000002B0000002000000032
:1006500030B4002100F1240408E002F00705D208BC
:10066000303542EA4372DB086554491C52EA0305FF
:10067000F3D10468002310A2250707D5A40600D4EF
:1006800021B1C46901230DA2641EC46130BC00F015
:100690009CB910B5044621461068FFF79CFE02463F
:1006A0002046BDE810400023D2E7D21D22F007010A
:1006B000D1E90023CCE7000000000000300000007A
:1006C000F0B40D460188090502D5214C7C4402E0B6
:1006D0001F4C7C440E34002100F1240608E002F097
:1006E0000F071209E75D42EA03721B097754491CA0
:1006F00052EA0307F3D102780023120704D5702DC4
:1007000006D009B1022311342246F0BC00F05DB9D5
:1007100001231034F8E770B504460D4621461068F1
:10072000FFF759FE024629462046BDE870400023E7
:10073000C6E7D21D22F00703D3E90023C0E7036810
:10074000126843F0200303600823C3610023B7E766
:10075000386900002DE9F05F894604464FF0000A31
:10076000DFF874B1FB44C0F820A02046E168884758
:10077000002874D0252806D0D4E901219047206AAA
:10078000401C2062F1E700265F462046E16888476A
:100790002028054607DB312D05D2781910F8200CEA
:1007A00008B10643F1E7B00701D526F00406C4F806
:1007B0001CA00027C4F818A02A2D09D0284603F051
:1007C000F1FC38B304EB8708303DC8F8185019E045
:1007D00059F8041B204604EB87029161E1688847C1
:1007E000012F054618D1E069002820DA26F02006FE
:1007F0001DE0D8F8180000EB800005EB4000303811
:10080000C8F818002046E1688847054603F0CAFC8E
:100810000028EED1012F0AD02E2D08D12046E16804
:1008200088477F1C0546022F46F02006C4DBA069DE
:10083000002803DA404246F00106A061F00701D02B
:1008400026F010066C2D0BD0682D09D04C2D39D018
:100850006A2D35D0742D35D07A2D33D016E038E09E
:10086000E1682F4620468847B842054609D16C2FDB
:1008700026D04FF48060E16806432046884705464D
:1008800004E06C2F1AD04FF4807006430DB3A5F12D
:100890004100192802D8203546F400664A46294608
:1008A000204626604E46FFF75BFC80B101280BD046
:1008B000F61D26F0070000F1080956E74020E4E79E
:1008C0008020D8E70020D6E706F104094DE7284646
:1008D00052E7206ABDE8F09FC868000010B5203AD2
:1008E000C0F00B80B1E81850203AA0E81850B1E8E9
:1008F0001850A0E81850BFF4F5AF5FEA027C24BF9F
:10090000B1E81850A0E8185044BF18C918C0BDE895
:1009100010405FEA827C24BF51F8043B40F8043B5E
:1009200008BF7047D20728BF31F8023B48BF11F813
:10093000012B28BF20F8023B48BF00F8012B70476D
:1009400030B5B0F10A024FEA900E71F100034EEAA1
:10095000817EB0EB0E0061EB91014FEA101E4EEA72
:10096000017E10EB0E0041EB11114FEA102E4EEA02
:10097000016E10EB0E0041EB11214FEA104E4EEAD2
:10098000014E10EB0E0041EB1141401841F1000106
:100990004FEAD00040EA41704FEAD10110EB8005E8
:1009A0004FEA810444EA907444EB01046D1944EB6E
:1009B0000404521BA3414FF0000348BF0A3200D584
:1009C00030BD401C41F1000130BD2DE9F0470D461E
:1009D00099469246044600F124080168880604D529
:1009E000E06921F01001216000E00120A84201DD52
:1009F000471B00E00027A1697A1902EB0900081AD9
:100A0000A0612078C00602D42046FFF7B4FC00267F
:100A100008E0D4E901211AF806009047206A401C3A
:100A2000761C20624E45F4DB2078C0060AD52046AD
:100A3000FFF7A1FC06E0D4E9012130209047206AAD
:100A4000401C2062381EA7F10107F4DC07E0D4E95E
:100A5000012118F805009047206A401C2062281EDA
:100A6000A5F10105F3DC2046FFF79BFC207800068A
:100A700002D50220BDE8F0870120FBE770472DE991
:100A8000FF4F0C461E464FF0FF378BB0D2E90001F6
:100A9000DDF860800A908A46C1F30A5505B93D46E3
:100AA000002108464FF00000BAF1000F00F44000AA
:100AB00005DA00EB80004FF4400101EA50004FEAF4
:100AC0009059B9F1010F00DDB9460A9850EA4A0081
:100AD0000ED044F61050A5F2FF3545432F14B8F15F
:100AE000000F1ED07542291E1EDDC9F100021CE058
:100AF000B8F1010F4FF0000001D0302103E0F243C4
:100B000005E02154401CB042FBDB304600220021AE
:100B100021540B99C1F80880C1E900200FB0BDE84D
:100B2000F08FBD1B6D1CDEE74A4600DA694206A85D
:100B300000F0F0FB06AB93E8070003AB83E8070087
:100B400050460A9900F0ADFC8DE80700A0F5005072
:100B50001F3800900398002D0ADD42F21F014A461B
:100B60000844002303A90390684600F016FF09E03B
:100B7000A0F500504A461F38002303A90390684699
:100B800000F020FF8DE807000004000C03D04FF0B8
:100B9000FF30410800E01046B8F1000F03D00022FA
:100BA000009215461EE0751E05D4FFF7C9FE3032CF
:100BB00062556D1EF9D5B3460122084302D00022CA
:100BC0007F1C04E02078302801D100227F1E002AFB
:100BD000099784D01DE0112D07DAFFF7B1FE3032FE
:100BE00062556D1C50EA0102F5D1084302D000980D
:100BF000C8B10EE00021681E05E0235C625C63540E
:100C00002254401E491C8142F7DBAB46A81B401E04
:100C10000990002004F80B000B98099AC0F808808E
:100C2000C0E9002B7AE711264FF0000857E72DE9BD
:100C3000F04F88460446D21D22F0070191B0D1E959
:100C40000001CDE90A0103F089FA02460B98C00FB2
:100C500001D02D2007E02068810701D52B2002E07C
:100C6000202101EAC000032A099001D0072A05DBF0
:100C700003464146204600F00DFB0BE1207880063C
:100C800001D5E06900E00620B8F1650F814606D085
:100C9000B8F1660F18D0B8F1670F70D131E00020BD
:100CA000B9F1110F009001DB112301E009F10103FB
:100CB0000AAA01A90CA8FFF7E2FEDDE90C700026E4
:100CC00009F10105834647E001204B4600904FF0B3
:100CD00000470AAA01A90CA8FFF7D1FEDDE90DB073
:100CE0000C995D46002610B909F101000D18B9EB09
:100CF000050003D4C0F1FF3609F10105A5EB090099
:100D00002BE0B9F1010F01DA4FF001090020B9F130
:100D1000110F0090484601DD112300E003460AAAA6
:100D200001A90CA8FFF7ABFEDDE90C704D460026CB
:100D30008346207800070AD4AB4500DA5D4601A857
:100D4000012D04DD411911F8011C302907D04F4550
:100D500002DA17F1040F04DA012082460FE06D1E5B
:100D6000EEE7002F02DCED1B3E4403E0781CA842B6
:100D700000DD7D1CB81B00F1010A4FF00047207810
:100D8000000703D4AA4501DB4FF0FF3A0021B7F179
:100D9000004F0DF143088DF8431024D002202B237F
:100DA000002F01DA7F422D230A21021EA0F101004B
:100DB00000DC5FB197FBF1FC97FBF1F201FB1C7CBF
:100DC00017460CF1300C08F801CDEEE7A8F1010050
:100DD00003702188090501D5452100E06521A0F1B6
:100DE000010800F8011C09980FA9A1EB0807FF1DD5
:100DF00000B10120411901EBEA70A1693844081AD9
:100E0000401EA0612078C00602D42046FFF7B3FA46
:100E1000099828B1D4E901219047206A401C20623A
:100E20002078C00622D52046FFF7A5FA1EE0002E46
:100E300004DBB34502DD01A8805D00E03020D4E989
:100E400001219047206A401C2062761CAAF1010013
:100E50005FEA000A0AD100F019FAC0680168405C34
:100E6000D4E901219047206A401C2062281EA5F188
:100E70000105DCDC07E0D4E9012118F8010B9047FB
:100E8000206A401C2062381EA7F10107F3DC2046CF
:100E9000FFF787FA032011B041E600002DE9F04F7B
:100EA00004460D46D21D22F0070089B0D0E9009714
:100EB0004846394603F052F90246F80F01D02D2377
:100EC00007E02068810701D52B2302E0202101EAF9
:100ED000C0038DF820300BB1012000E00020032A70
:100EE000824601D0072A04DB2946204600F0D2F9C9
:100EF0003FE12078800601D40D2500E0E569C7F3C5
:100F00000A560D2D49DA00214FEA175B08464FF0CB
:100F10000000002F00F4400007DA00EB80004FF4DF
:100F2000400100EBD07001EA60008115012901DD6C
:100F30004FF0FF3100224FEA850CBCF1180F06D3A9
:100F40001346ACF118004FF08052C24003E04FF45A
:100F5000801323FA0CF30CF10C0CBCF1200F04D31A
:100F6000ACF1200C09FA0CF001E007FA0CF00029B2
:100F70004FF0004801DD18B90FE00ED140450CD309
:100F800019EB02095F4121B9404502D19F4329EA8B
:100F90000209BBEB175F00D0761C2088000502D544
:100FA0007B48784402E07A487844193808AA30230C
:100FB00002F80A30037C0AF10101002E0AF1020A4C
:100FC00053546A4602DC4FF0300101E04FF031012A
:100FD0004FF001088DF8001002D0A6F2FF3603E0B2
:100FE00059EA470100D06B4E002D02DC2178090739
:100FF00004D54FF002082E218DF80110C4460021BF
:101000000BE0C7F303433F01C35C491C6D1E02F8AC
:101010000830052908F1010801DA002DF1DC002172
:101020000CE000EB1973491C1B786D1E082902F8AF
:1010300008304FEA091908F1010801DA002DF0DC47
:1010400021688B0602D516E0A8F10108E04505DD10
:1010500002EB080313F8013C302BF5D0B8F1000F78
:1010600009DD02EB080313F8013C2E2B03D109071D
:1010700001D4A8F10108002D05DD3E2102F8081079
:101080006D1E08F10108407C002E02F8080008F1EE
:10109000010804DA2D20764202F8080002E02B2035
:1010A00002F808000A214FF47A70864208F101081C
:1010B0000BDB96FBF0F3303302F8083096FBF0F3CD
:1010C00008F1010800FB136601E0642E0CDB6420CC
:1010D00096FBF0F3303302F8083096FBF0F308F19A
:1010E000010800FB136601E00A2E06DB96FBF1F017
:1010F000303002F8080008F1010896FBF1F001FB1E
:101100001060303002F80800A16908F1010808EB0E
:10111000050202EB0A00081AA0612078C00602D47A
:101120002046FFF728F9216A08AE01EB0A00206289
:1011300004E0D4E9012116F8010B9047BAF1010A45
:10114000F7D22078C00602D52046FFF714F96E4684
:1011500009E016F8010B3E280FD0D4E90121904791
:10116000206A401C2062B8F10108F2D22046FFF745
:1011700018F909B00320BDE8F08F206A28442062E6
:1011800003E0D4E90121302090476D1EEBD3F8E74E
:10119000AE60000002FCFFFF10B5436913B1AFF36E
:1011A000008001E0FFF720F9012010BD127800F166
:1011B00024010A7000224A700122EDE711684FF005
:1011C000FF32E9E710B5436913B1AFF3008001E0E6
:1011D000FFF7A2F9012010BD128800F124018284DA
:1011E0000022C2840122EDE711684FF0FF32E9E7E7
:1011F00070B516460C46054600F040F8036893F8B3
:101200000101012806D0FF2C0FD8185D68B101201C
:101210002C7070BDD3F807013246214603F2071344
:1012200003442846BDE8704018474FF0FF3070BDBA
:10123000754600F0EBF8AE4605006946534620F0CF
:101240000700854618B020B5FFF702F8BDE820403A
:101250004FF000064FF000074FF000084FF0000B72
:1012600021F00701AC46ACE8C009ACE8C009ACE825
:10127000C009ACE8C0098D467047000010B500F009
:1012800005F8001D10BD00BFE52F000000487047A5
:101290000C0500202DE9F0411F4604460326016895
:1012A000072A01F4006004DB08B116A505E016A5C5
:1012B00003E008B115A500E015A521F0100020609D
:1012C000A069C01EA0610FB1401EA0612046FFF7BB
:1012D00052F84FB1D4E9012138469047206A401CAA
:1012E0002062C01C206206E0206AFAE7D4E90121EE
:1012F00015F8010B9047761EF8D22046FFF751F8FB
:10130000BDE8F0814E414E006E616E00494E4600D0
:10131000696E66002DE9F047814616468AB0354869
:1013200078440DC88DE80D0032487844801C03AC29
:101330000DC884E80D0041F69B300844372190FB2E
:10134000F1F290FBF1F5A5F1800501FB12041B3CC5
:1013500002D56442012000E00020DFF898A080461A
:101360000027FA44AAF1BE0A0EE0E0070AD032468E
:10137000684607EB470101230AEB810100F022FBDD
:101380008DE8070064107F1C002CEED1194F7F44BC
:10139000AE3F19E0E80715D007EB04100DF1180A6D
:1013A00090E80E008AE80E00C068F04201D198195A
:1013B00008903246012306A903A800F003FB03AB03
:1013C00083E807006D10641C002DE3D14FF001038A
:1013D00032466946B8F1000F03A802D000F0DDFAEA
:1013E00001E000F0EFFAC9E90001C9F808200AB0ED
:1013F000BDE8F087C05D000010B50446AFF3008083
:101400002046BDE81040FEF70EBF000000487047C0
:10141000EC0400204FF0013C50F8042B51F8043B41
:101420009A4221D1A2EB0C03934313EACC1317D1B8
:1014300050F8042B51F8043B9A4215D1A2EB0C034F
:10144000934313EACC130BD150F8042B51F8043B0F
:101450009A4209D1A2EB0C03934313EACC13DBD0DD
:101460004FF00000704700BFD01A01BAB1FA81F105
:1014700001F0180122FA01F0CB40C1F12001DBB2EA
:10148000C0B2C01A2CFA01F3D11A914311EAC31168
:10149000E6D1704701491820ABBEFEE726000200E6
:1014A00070475FEA400C08BF91F0000F4FEA8C23B1
:1014B0004FEAC12243EA51514FEA1C5018BF00F5D0
:1014C000F0404FEA300018BF41F000415FEA6C5C29
:1014D00000F02980BCF1FF3F08BF40F0804070471A
:1014E000130C06BF12044FF0100C4FF0000C130E3B
:1014F00004BF12020CF1080C130F04BF12010CF10F
:10150000040C930F04BF92000CF1020CD30F04BF24
:1015100052000CF1010C11464FF00002A0F11F0027
:10152000A0EB0C00704711F0004F08BF704731F07E
:1015300000413FF4D5AF0B0C06BF09044FF0100C6F
:101540004FF0000C0B0E04BF09020CF1080C0B0F3E
:1015500004BF09010CF1040C8B0F04BF89000CF1CE
:10156000020CCB0F04BF49000CF1010CCCF120039D
:10157000A0EB0C0022FA03F302FA0CF241EA030199
:1015800000F10100704720F07F4C80EA030023F057
:101590007F47ACEB070303F57C5300F0004003F1F9
:1015A000FF032DE980494FEA154B09B44FEA144374
:1015B00025EA0B4E24EA03480FF2042606EB132714
:1015C00049083E785FEA320203FB0667C7F5000769
:1015D00007FB06F64FEA54374FEAD64606F10206F5
:1015E00007FB066CCCF1005C4FEA1C472CEA074C69
:1015F00007FB06F40CFB06F504EB15464FEA9616BE
:1016000034BF00204FF000404FEAD13706FB07FC03
:101610004FEA1C4C0CFB0BF7D21B03FB0CF761EBE6
:1016200007010CFB0EF7B0EB074072EB17420CFB07
:1016300008F734BFA2EB0742B2EB074261EB174158
:101640004FEA0C444FEA910706FB07FC4FEA1C4C9B
:101650000CFB0BF7B0EBC74072EB573203FB0CF7F8
:1016600034BFA2EBC742B2EBC74261EB57310CFB70
:101670000EF7B0EBC70072EB57720CFB08F734BFE4
:10168000A2EBC702B2EBC70261EB5771039F4FEAAF
:10169000816141EA921104EBCC044FEAD1374FEA61
:1016A000826206FB07FC42EA90124FEA80604FEA32
:1016B0001C4C0CFB0BF7D21B03FB0CF761EB070177
:1016C0000CFB0EF7B0EB074072EB17420CFB08F770
:1016D00034BFA2EB0742B2EB074261EB17414FEA7E
:1016E0008C554FEA910704EB9C2406FB07FC4FEA5C
:1016F0001C4C0CFB0BF7B0EBC74072EB573203FBF3
:101700000CF734BFA2EBC742B2EBC74261EB5731D3
:101710000CFB0EF7B0EBC70072EB57720CFB08F72F
:1017200034BFA2EBC702B2EBC70261EB577115EBF6
:101730004C254FEA816141EA92114FEA82624FEAF9
:10174000D13742EA901206FB07FC44F100044FEA4D
:1017500080604FEA1C4C0CFB0BF7D21B03FB0CF711
:1017600061EB07010CFB0EF7B0EB074072EB174281
:101770000CFB08F734BFA2EB0742B2EB074261EB68
:10178000174115EB1C154FEA813141EA92414FEAAE
:10179000823242EA90424FEA80304FEA0C7644F1BE
:1017A000000448EA03434EEA0B484FF0000EB2EB48
:1017B000080C71EB030724BF624639464EEB0E0E50
:1017C0004FF0000B0018524149414BEB0B0BB2EBB1
:1017D000080C71EB03077BF1000B24BF624639460E
:1017E0004EEB0E0E4FF0000B0018524149414BEBEF
:1017F0000B0BB2EB080C71EB03077BF1000B24BF62
:10180000624639464EEB0E0E51EA020718BF46F00B
:10181000010616EB0E7655F1000254F1000103D5D6
:10182000BDE88901BDE80088BDE88901BDE8004840
:10183000B619524141EB0101A3F1010370478080C9
:101840007F7E7D7C7B7A797877767675747372711A
:1018500071706F6E6E6D6C6C6B6A6A6968686766D2
:1018600066656464636362616160605F5F5E5E5D64
:101870005D5C5C5B5B5A5A595958585757565655D8
:1018800055555454535352525251515050504F4F3A
:101890004F4E4E4D4D4D4C4C4C4B4B4B4A4A4A498A
:1018A00049494848484747474746464645454544CD
:1018B0004444444343434342424242414141002B5A
:1018C0009C4630D477002BD01CB54FEA370703B4C1
:1018D0004FF010004FF01001BAF1000F06D0BCF12C
:1018E000000FDCBF40F0080040F008014FF000009E
:1018F0000FBCBDE810400BF1010BBBF1010F08BF9D
:101900005FEA170722BF12F1010211F101014FF046
:10191000004143F1000300F0004043EA000070473B
:10192000F9D35708D0E746EA064613F1400F4FEACD
:1019300016461FDD13F1200FDFBF16430A460021B4
:1019400020335B42BED0C3F1200746EA064602FAC6
:1019500007F74FEA164646EA0706C3F1200722FAC0
:1019600003F201FA07F721FA03F14FF0000342EA0C
:101970000702A7E746EA020646EA06464FEA164687
:1019800046EA0106BCBF46EA0646360C4FF00003A5
:101990004FF000024FF0000194E72DE9804C9A4689
:1019A000934670B491E8380007C831EA400C48BF4C
:1019B00034EA430C03D5FFF7E6FDFFF780FFF0BCE8
:1019C000BDE8008C2DE9804C9A46934670B491E8AE
:1019D000380007C810F0804F08BF13F0804F03D1C4
:1019E00000F005F8FFF76BFFF0BCBDE8008C20F0BD
:1019F0007F4780EA030023F07F4C07EB0C03A3F53D
:101A00007C5300F00040A3F1FE0392F0000F00F0C1
:101A1000B38095F0000F00F077802DE901494FEA7F
:101A200011404FEA144621EA004800FB06FC24EA74
:101A3000064708FB06F607FB08F800FB07F718EB5C
:101A400006484CEB164C4FEA124B18EB07484FEA8E
:101A500015464CEB174022EA0B4E0BFB06FC25EA21
:101A600006470EFB06F607FB0EFE0BFB07F71EEB09
:101A7000064E4CEB164C4FF000061EEB074E4CEB9F
:101A8000174B18EB0B0840F1000018EB0E0B58EB4E
:101A9000000840F100008F1A4FF000013CBFC9431D
:101AA000661B14BFB5EB040C00213CBFC943F61BF9
:101AB0004FEA17444EEA8E0E27EA04454FEA1C47C8
:101AC00004FB07622CEA074C05FB07F70CFB05F645
:101AD00004FB0CFC16EB074642EB174216EB0C46D8
:101AE00042EB1C421BEB060658EB0202414146EA60
:101AF0009E0601D5BDE80189B619524141EB0101AD
:101B0000A3F10103BDE801894FEA14454FEA1147EB
:101B100024EA054621EA074C05FB07F406FB07F714
:101B20000CFB06F105FB0CFC11EB074144EB1744E1
:101B30004FEA124711EB0C4144EB1C4422EA074CDC
:101B400005FB07F206FB07F70CFB06F605FB0CFC92
:101B500016EB074642EB174216EB0C4642EB1C45D0
:101B60006A1854F1000148BF7047B619524141EB61
:101B70000101A3F10103704795F0000F37D04FEA40
:101B800011424FEA144721EA024624EA074C02FBBD
:101B900007F106FB07F70CFB06F402FB0CFC14EB49
:101BA000074441EB17414FEA154714EB0C4441EB56
:101BB0001C4125EA074C02FB07F506FB07F70CFB67
:101BC00006F602FB0CFC16EB074645EB174516EB39
:101BD0000C4645EB1C42121951F1000148BF7047F9
:101BE000B619524141EB0101A3F1010370474FEADD
:101BF00014454FEA114724EA054621EA074C05FB44
:101C000007F106FB07F70CFB06F24FF0000605FB99
:101C10000CFC12EB074241EB174112EB0C4251EB6B
:101C20001C4148BF7047921841EB0101A3F1010329
:101C30007047FEE7014800F06BB800006800002024
:101C400030B590F840500124AC40C56B6C6004681E
:101C500063604368102B036803D099600068C2601A
:101C600030BD9A600068C16030BD704772B6FEE753
:101C700010B590F821100024022903D004218163BB
:101C800001243DE001680A6822F00E020A60016842
:101C90000A6822F001020A601A4A0168914201D1E1
:101CA000012121E0174A1432914201D110211BE099
:101CB000144A2832914201D1891515E0114A3C326B
:101CC000914201D189140FE00E4A5032914202D163
:101CD0004FF4803108E00B4A6432914202D14FF454
:101CE000801101E04FF08071064A083A51600121ED
:101CF00080F82110002180F82010416B01B1884745
:101D0000204610BD0800024090F8210070470000F6
:101D10002DE9F05FC16B0C6801680B68D0F840C01A
:101D2000042202FA0CF2494DDFF824A1494E4A4F31
:101D3000DFF828B1DFF828E122422CD05A072AD553
:101D40000A68920603D40A6822F004020A60016855
:101D5000A94201D1042219E0514501D1402215E0E8
:101D6000B14202D14FF4806210E0B94202D14FF487
:101D700080420BE0594502D14FF4802206E07145C4
:101D800002D14FF4800201E04FF080622F49083900
:101D90004A60C16A3BE04FF0020808FA0CF818EA02
:101DA000040F4FF000094FF0010235D05FEA83784D
:101DB00032D50B689B0605D40B6823F00A030B6031
:101DC00080F821200168A94201D1022219E0514581
:101DD00001D1202215E0B14202D14FF4007210E08F
:101DE000B94202D14FF400520BE0594502D14FF4F1
:101DF000003206E0714502D14FF4001201E04FF0CD
:101E00000072124908394A6080F82090816A0029DE
:101E10001AD0BDE8F05F0847082505FA0CF5254201
:101E200012D01B0710D50B6823F00E030B6090F83F
:101E30004010C36B02FA01F15960826380F82120DF
:101E400080F82090016BE2E7BDE8F09F08000240B7
:101E50001C00024030000240440002405800024092
:101E60006C00024030B528B308C813491422194445
:101E7000B1FBF2F18900C16310498163022141770E
:101E80001A6843F6F0718A43D0E900142143D0E97F
:101E900002452C4321430469214344692143846959
:101EA00021431143196000214163012242770177E8
:101EB000084630BD012030BDF8FFFDBF00000240E4
:101EC00070B5044690F82000002501280CD00120B0
:101ED00084F8200094F821600020012E06D084F8B8
:101EE00020000225284670BD022070BD022684F81D
:101EF0002160A0632068066826F00106066020467F
:101F0000FFF79EFEE06A00282068016802D041F0D9
:101F10000E0106E021F0040101602068016841F033
:101F20000A0101602068016841F001010160D9E700
:101F300070B5044600F0FEF80546601C02D0044867
:101F40000078044400F0F6F8401BA042FAD370BDBC
:101F5000000000202DE9F84FDFF8B8910024A9F126
:101F6000040B23460F2709F1040AABF1040EC9E064
:101F70000125A5402A40AA427DD1674ED1F804C070
:101F8000ACEB0608B44532D014DCBCF1030F3AD0F8
:101F900009DCBCF1000F2AD0BCF1010F1CD0BCF150
:101FA000020F31D11DE0BCF1110F17D0BCF1120F9F
:101FB0002AD119E0B8F5881F19D006DCB8F5803FA2
:101FC00015D0B8F5801F1FD111E0B8F5001F0ED055
:101FD000B8F5041F18D10AE0CB6815E0CB681B1DCB
:101FE00012E0CB6808330FE0CB680C330CE08B6851
:101FF0002BB1012B4FF0080303D0456104E004230B
:1020000002E0056100E00023FF2A01D8064601E056
:1020100000F104064FEA840501D9A5F12005D6F8A0
:10202000008007FA05FC28EA0C0803FA05F548EADF
:102030000508C6F800804D68ED0062D5374DAE69E1
:1020400046F00106AE61AD6924F0030605F0010516
:102050000095334D06EB050CDCF80850A607360F4B
:1020600007FA06F825EA0805DFF8B880404503D1ED
:102070004FF0000817E044E0DFF8AC80404502D1A3
:102080004FF001080FE0DFF8A480404502D14FF087
:10209000020808E0DFF89880404502D14FF00308BD
:1020A00001E04FF0040808FA06F848EA0508CCF801
:1020B00008804D68D9F80060ED024D4601D5164301
:1020C00000E096432E604D68DAF80060AD02554698
:1020D00001D5164300E096432E604D68DBF80060A2
:1020E000AD035D4601D5164300E096432E604D6872
:1020F000DEF80060ED03754601D5164300E0964317
:102100002E60641C0D682A46E5407FF431AFBDE8BF
:10211000F88F000008040140000011100010024078
:102120000000014000080140000C01400010014087
:102130000014014001488068704700000000002042
:10214000704770472DE9F047026800215368C66A5E
:1021500090F83E4090F83D50102C12D0402C10D0FA
:10216000046C002C7DD05469E443A6077AD4DE4386
:10217000B60577D4036C03B19169BDE8F04701F06F
:1021800095BB976951694FF42A0CC9435FEAC1783E
:102190004FF02A4904D066452AD04E4528D010E099
:1021A000DE43B6050DD4C16A614501D1012103E0CA
:1021B000C16A494501D10821C162BDE8F04701F07B
:1021C00087BA0E0716D4DE43B60513D4416CC9B2E4
:1021D0001161416B09B1896A29B9816B002907D066
:1021E000896A002904D00068416841F400614160B7
:1021F000BDE8F0878E0706D4DE43B60503D4BDE8FC
:10220000F04701F0B9B9FE43526876074FEA02522F
:102210001DD4002AECDB0A0608D4DA43520505D4A3
:10222000490705D5BDE8F04701F04AB94907DFD4B1
:10223000D9438905DCD4212D05D0402CD8D1BDE867
:10224000F04701F08BBABDE8F04701F0F7B8002A7B
:10225000CEDB4A060BD4DA43520508D4490708D529
:1022600001E00DE00EE0BDE8F04701F06DB8490770
:10227000BED4D9438905BBD4BDE8F04700F0F7BF11
:10228000916970E7E10606D4D943890503D4BDE816
:10229000F04701F02FBB2821212D27D0292D25D053
:1022A000650655D4DD436D0552D4640752D590F8C8
:1022B0003D30448D002C9BD01269446A2270426AE2
:1022C000521C4262428D521E4285428D002A8FD19D
:1022D0002A2B8DD10268536823F480635360222235
:1022E000026380F83D1000F0E3FA81E7250623D46D
:1022F000DD436D0520D4640720D590F83D30448D32
:10230000002CF2D0446A24781461426A521C426262
:10231000428D521E4285428D002AE6D1292BE4D1FE
:102320000268536823F4806353602122026380F8BB
:102330003D1000F0BEFA5BE76107D6D4D9438905AA
:10234000D3D4418D0029D0D0416A097811610AE0C7
:102350006107CAD4D9438905C7D4418D0029C4D0A7
:102360001169426A1170416A491C4162418D491EDE
:1023700041853DE77047000070B5040025D094F812
:102380003D00002520B984F83C50204600F040FA7A
:10239000242084F83D002068016821F001010160DB
:1023A0002068016841F4004101602068016821F45F
:1023B0000041016000F0ACFB4D4A6168914201D8D8
:1023C0004C4900E04C49884201D2012070BD4B4984
:1023D0002368B0FBF1F15E6826F03F060E435E60B5
:1023E0006368934206D94FF4967359434FF47A7356
:1023F000B1FBF3F12368491C1E6A26F03F06314306
:1024000019626168914210D84900401EB0FBF1F298
:10241000521CC2F30B02042A01D2042022E0B0FBBA
:10242000F1F0401CC0F30B001CE0A268F2B301EB1A
:10243000C10303EB0116431EB3FBF6F35B1C43F42D
:1024400080431B0549D092B301EBC10202EB01119D
:10245000401EB0FBF1F0401CC0F30B0040F4804084
:1024600040F400402168CA694CF6FF739A43104358
:10247000C861D4E9071001432068026822F0C00255
:1024800011430160D4E9030101432068826848F2E6
:10249000FF339A4311438160D4E905010843216861
:1024A000CA6822F0FF021043C86001E00EE016E0A7
:1024B0002068016841F0010101602564202084F852
:1024C0003D00256384F83E50002070BD01EB4106BD
:1024D000431EB3FBF6F35B1CB3E70120C2E701EB3D
:1024E0004101401EB0FBF1F0401CC0F30B00B7E708
:1024F000A086010080841E0000093D0040420F00BC
:10250000704770477047704738B50F4C2078401CB3
:10251000C0B22070082815D2B0308DF8000000201D
:102520008DF8010010208DF802000322694600207A
:1025300001F0D4FD05482178802200EBC111402034
:1025400001F0DAFD38BD000010000020EC00002092
:102550002DE9FF4F83B09A46DDE911979346044673
:10256000DDF84080FFF7E6FD054694F83D002028A1
:102570007FD11923012240492046009501F094FAA9
:10258000002876D194F83C00012872D0012084F80C
:102590003C0020680168C90703D1016841F00101CE
:1025A00001602068016821F400610160212084F845
:1025B0003D00402084F83E0000262664C4F82480B4
:1025C000A4F82A90608D20852C48E062CDE9007542
:1025D00053465A462046049901F014F970B930E088
:1025E0002A463946204601F005FB58B1206C0428E4
:1025F00004D12068016841F400710160012007B036
:10260000BDE8F08F606A216800780861606A401C4C
:102610006062218D491E89B22185628D521E6285BC
:1026200022685369DB435B070BD469B10078106102
:10263000606A401C6062208D401E2085608D401EB7
:102640006085208D0028CBD12A463946204601F0EE
:10265000FFF90028CAD154F83D0B016841F400711C
:102660000160202004F81E09E67766770020C6E79F
:10267000FFE70220C3E70000020010000000FFFF98
:102680002DE9FC5F0025984691468A460446DDF810
:1026900030B00095FFF74EFD074694F83D00202826
:1026A00028D1574846F2A81120260068B0FBF1F067
:1026B00000EBC00101EB001000900098401E00905C
:1026C00010D020688069C0438007F6D594F83C009C
:1026D00001280FD0012084F83C0020680168C90758
:1026E0000BD00EE044F8305F6673A573206940F0AC
:1026F000200020610220BDE8FC9F016841F001013B
:1027000001602068016821F400610160212084F8E3
:102710003D00402084F83E002564C4F824B00D98A4
:102720006085608D20853748E062C4F844A0C4F815
:102730004890C4F84C802565208DE8B3606BF0B1FB
:1027400031498162616B31480863606BC562606BBF
:1027500045632268238D1032616A606BFFF7B0FB1E
:10276000B0B184F83D6084F83E5054F8400F40F01A
:10277000100000BF44F8040925700120BBE784F86D
:102780003D6084F83E5054F8400F40F08000F1E77F
:102790002320CDE9000743464A465146204601F032
:1027A00031F898B1606BFFF763FA606B856220685F
:1027B000016821F4806100E019E0016025856585EC
:1027C0002068016821F001010160D6E720684169B5
:1027D0008169009184F83C50416841F48071416006
:1027E0002068416841F400614160002083E784F87B
:1027F0003D6084F83E5054F8400F40F04000B9E787
:102800000C0000200000FFFFC72F0008912F0008D8
:1028100070B586B000250646009501950295039592
:1028200000681E49884236D11D4CA06940F008005E
:10283000A061A069694600F008000490C0200090E3
:1028400012200190032003901648FFF783FBE069F4
:1028500040F40010E061E069144C00F400100490B2
:10286000114820601020C4E901058020C4E9030557
:102870006561A5612046E561FFF7F4FA08B1FFF74D
:10288000F5F97463002211461F20666200F078F8A3
:102890001F2000F067F806B070BD00000054004033
:1028A00000100240000C01406C0002406800002053
:1028B0007047704702488168027811448160704710
:1028C00000000020074810B5016841F010010160C8
:1028D000032000F075F80F2000F006F800F024F84F
:1028E000002010BD0020024070B50D4D04464FF48D
:1028F0007A712878B1FBF0F00A490968B1FBF0F071
:1029000000F0CCFA48B9102C07D200222146501E04
:1029100000F036F800206C6070BD012070BD000032
:10292000000000200C0000200C4808B5816941F02F
:1029300001018161816901F001010091C16941F0EA
:102940008051C161C06900F0805000900448416826
:1029500021F0E06141F00071416008BD00100240CB
:1029600000000140002809DB00F01F020121914016
:102970004009800000F1E020C0F80011704700001D
:10298000F0B40E4B1B680C46C3F30223C3F10705DA
:10299000042D00D90425191D072901D2002300E0C8
:1029A000DB1E012606FA05F1491E214099409E4092
:1029B000761E16403143F0BC01F0E4BB0CED00E0A4
:1029C000064900F0070208684FF6FF03184040EA86
:1029D0000220034A10430860704700000CED00E03D
:1029E0000000FA052DE9F0470F46050061D0434E7F
:1029F000306800F00700B84209D2306820F00700C4
:102A000038433060306800F00700B84251D1286880
:102A10003B4C810712D5400703D5606840F4E06065
:102A200060602878000703D5606840F460506060FB
:102A30006068A96820F0F000084360602878C0074B
:102A400028D06868012810D02168022810D0890792
:102A500000292EDA616821F0030101436160FFF76C
:102A600069FB804641F288390DE021688903EFE770
:102A70008901EDE7FFF75EFBA0EB0801494502D9AC
:102A80000320BDE8F0876068696800F00C00B0EBD7
:102A9000810FEFD1306800F00700B8420BD93068E1
:102AA00020F0070038433060306800F00700B8427B
:102AB00001D00120E5E72878400705D56068E9687E
:102AC00020F4E060084360602878000706D560685D
:102AD000296920F4605040EAC100606000F028F8E5
:102AE0006168084AC1F30311515CC8400649086097
:102AF00006480068FFF7F8FE0020C2E70020024009
:102B000000100240B24200080C0000200400002027
:102B10000448054900684968044AC1F30221515C30
:102B2000C84070470C00002000100240C24200085C
:102B30000E4A51680E4801F00C03042B11D0082BEB
:102B40000FD10C48C1F38343C903C05C0AD5516857
:102B5000084AC1F34041921E515C054A5043B0FB04
:102B6000F1F07047044948437047000000100240EC
:102B700000127A00A242000800093D002DE9F84F3A
:102B8000040070D02078C04DC00749D06868C0F3F9
:102B90008100012807D06868C0F38100022809D1AC
:102BA0006868C00306D52868800339D560680028A6
:102BB000E7D035E06068B0F5803F0BD010B1B0F5DC
:102BC000A02F11D0286820F480302860286820F4D5
:102BD000802002E0286840F480302860606890B16E
:102BE000FFF7A8FA06460AE0286840F4802028602B
:102BF000F0E700BFFFF79EFA801B642873D82868AF
:102C00008003F7D50CE0FFF795FA064605E000BF14
:102C1000FFF790FA801B6428F0D828688003F7D467
:102C200020789A4E80074FF001094FF0000839D5FF
:102C3000686810F00C0F07D06868C0F381000228A4
:102C400009D16868C00306D42868800714D52069B4
:102C5000012808D110E02069B0B1C6F80090FFF754
:102C600069FA074605E00AE1FFF764FAC01B02288B
:102C7000C4D828688007F7D52868616920F0F80073
:102C800040EAC10028600DE0C6F80080FFF752FA64
:102C9000074604E0FFF74EFAC01B022823D8286835
:102CA0008007F7D4207800072CD57948A169D9B1DD
:102CB000C0F80090FFF73EFA074604E0FFF73AFA43
:102CC000C01B02280FD8686A8007F7D571484FF4F7
:102CD000FA510068B0FBF1F0009000BF0098411E6F
:102CE0000091FAD20EE080E0C0F80080FFF722FAEF
:102CF000074604E0FFF71EFAC01B022875D8686A71
:102D00008007F7D42078400760D5E8690027C00025
:102D100008D4E86940F08050E861E869012700F0D4
:102D2000805000905C480168C90513D4016883464F
:102D300041F480710160FFF7FDF9824606E000BFB3
:102D4000FFF7F8F9A0EB0A0064284ED8DBF8000082
:102D5000C005F5D5E06801280AD008B1052813D0D0
:102D6000286A20F001002862286A20F0040002E0AE
:102D7000286A40F001002862E06841F2883B98B17F
:102D8000FFF7D8F982460BE0286A40F00400286279
:102D9000EEE700BFFFF7CEF9A0EB0A0159455AD87C
:102DA000286A8007F6D50CE0FFF7C4F9824605E0F3
:102DB000FFF7C0F9A0EB0A0159454CD8286A8007F3
:102DC000F6D41FB1E86920F08050E861E06988B36B
:102DD0006968C1F38101022944D00228C6F86080E5
:102DE00004D0FFF7A7F9044638E034E0FFF7A2F972
:102DF000074604E0FFF79EF9C01B02282BD828687D
:102E00008001F7D4206AB0F5803F05D16868A168D9
:102E100020F4003008436860D4E908010843696879
:102E200021F4741108436860C6F86090FFF782F9D6
:102E3000044606E025E000BFFFF77CF9001B0228EE
:102E400009D828688001F7D51BE000BFFFF772F9A9
:102E5000001B022802D90320BDE8F88F28688001F2
:102E6000F4D40EE00128F7D06868226A00F48031BB
:102E7000914204D1616A00F47010884201D00120AF
:102E8000EAE70020E8E700000010024000004242AC
:102E9000800442420C0000200070004010B5401E2B
:102EA000B0F1807F01D3012010BD4FF0E0246061BC
:102EB0000F21601701F066F90020A0610720206152
:102EC000002010BDFEE700000148FFF73BB90000FD
:102ED0001400002038B5406A002190F83D202B4BAB
:102EE00046F2A8141B68B3FBF4F3C3EBC30303EB74
:102EF000830300933BB15B1E009303681B689B0533
:102F000005D5009BF6E7036C43F020030364436B95
:102F100003B19962836B03B1996203681C6824F45E
:102F200080641C604185436B03B15963836B03B1BB
:102F3000596303681C6824F001041C6090F83D404C
:102F40002023602C0BD0282434EA02020FD080F812
:102F50003D3080F83E1000BFFFF70CFA38BD80F816
:102F60003D3080F83E100164FFF7EAF838BD026892
:102F7000136843F0010313600268136843F480632D
:102F80001360016380F83D40E6E700000C0000207C
:102F900010B5406A0021426B02B19162826B02B1AE
:102FA00091620268136823F48063136041852022D4
:102FB00080F83D2080F83E10016C41F01001016462
:102FC000FFF7D8F910BD2DE9F041446A94F83D208F
:102FD00094F83E50E16A2068436823F440734360EC
:102FE000636B002003B19862A36B03B19862212345
:102FF00033EA02074FF022060CD036EA020701D16D
:10300000202D07D094F83E20002A21D0628D012A7D
:1030100020D024E021684D6825F400654D6060856E
:103020002820292A02D02A2A07D00CE0236384F81A
:103030003D002046FFF73DFC05E0266384F83D0097
:103040002046FFF735FC2068416841F4407141603B
:10305000BDE8F0812268136823F48063136022685E
:10306000536823F44073536011F5803F06D008295C
:1030700004D0B1F12A4F01D0202904D1226813686D
:1030800043F4007313602268536823F48053536041
:103090002268536823F4006353606085226C1AB180
:1030A0002046FFF767F9D3E7202284F83D2094F803
:1030B0003E2084F83E00402A09D0082902D0202969
:1030C00000D0122020632046FFF71BFAC0E72063E0
:1030D0002046FFF718FABBE700684169C9430906B3
:1030E00001D400210161704770B5044690F83D009D
:1030F00094F83E10102901D0402906D1222804D18D
:1031000021680A6822F400620A60282131EA00027C
:103110004FF000054FF0200626D0216849680905C8
:1031200005D4602803D084F83D6084F83E502563C0
:1031300020684168090537D5416821F40061416084
:10314000606B90F821203C49012A11D04163606BEB
:10315000FEF78EFD38B32068016821F0010101609F
:1031600084F83D60606B1CE0256384F83D10DFE768
:10317000A06B4163A06BFEF77BFDA0B120684169A5
:10318000C943490605D40069616A0870606A401C39
:1031900060622068016821F00101016084F83D60EF
:1031A000A06B416B884710E094F83D10602910D067
:1031B0004169C943490605D40069616A0870606ABB
:1031C000401C60622046FFF7D5F8206CC1071CD177
:1031D00015E084F83D6025644169C943490605D47A
:1031E0000069616A0870606A401C6062206801685A
:1031F00021F0010101602046FEF7A2FFE5E781070B
:1032000003D4410701D4000704D52068416821F4A4
:10321000E061416094F83D00216C49070BD52828F6
:1032200009D10648E062256384F83D6084F83E5089
:103230002046FFF765F970BDD52E00080000FFFF9E
:1032400001684A69D24352050FD46FF480624A6123
:10325000002140F8301F202242738173026942F03E
:10326000040202610173012070470020704710B50D
:10327000C26A438D0168042B06D0438D032B08D00E
:10328000438D022B1DD012E04A6822F480624A600E
:103290000CE04B6823F480634B60042A06D0022ABA
:1032A00004D001680A6822F480620A600168096932
:1032B000426A1170416A491C4162418D491E418533
:1032C00010BD012A34D0102A32D0042A34D0022A68
:1032D00032D00B6843F400730B6001680969436ADC
:1032E0001970416A491C4162438D5B1E4385036826
:1032F0001B690B70416A491C4162418D491E418521
:1033000001684B6823F440734B60202180F83D1026
:1033100090F83E300021402B80F83E1010D0082A53
:1033200002D0202A00D012210163FFF7EAF810BD75
:103330000B6823F48063CFE70B6843F48063CBE72B
:103340000163FFF7E0F810BD38B590F83D10222971
:1033500010D1C36A418D03290DD901680969426AF8
:103360001170416A491C4162418D491E4185418D60
:10337000032906D038BDC26A022A02D0012906D02C
:1033800029B10068416821F48061416038BD2A4A52
:1033900046F2A81400211268B2FBF4F202EB82029A
:1033A000009202682024009D6D1E009526D01568AD
:1033B000AD05F8D4156825F4806515600268556878
:1033C00025F4E065556002681269456A2A70426A10
:1033D000521C4262428D521E428580F83D4090F858
:1033E0003E2080F83E10402A21D0082B02D0202B0E
:1033F00000D012210163FFF784F838BD036C43F05D
:1034000020030364536823F4E06353600268126985
:10341000436A1A70426A521C4262428D521E4285B1
:1034200080F83D4080F83E10FEF7A4FF38BD0163F0
:10343000FFF769F838BD00000C00002010B5C26A23
:1034400090F83D1021290BD1418D51B1416A02689C
:1034500009781161416A491C4162418D491E4185CB
:1034600010BD20230021082A13D0202A11D012F5E4
:10347000803F0ED00268546824F4E0645460112246
:10348000026380F83E1080F83D3000BFFFF73AF845
:1034900010BD0268546824F4E06454600268146843
:1034A00044F400741460016380F83D3090F83E20CD
:1034B00080F83E10402AE9D1FFF726F810BD000041
:1034C00010B590F83D1090F83E30C26A048DB4B14A
:1034D000212903D0402B11D122290FD1418DE1B3F5
:1034E00090F83E10402942D0416A02680978116183
:1034F000416A491C4162418D491E418510BD212907
:10350000E8D120230021082A13D0202A11D012F557
:10351000803F0ED00268546824F4E06454601122A5
:10352000026380F83E1080F83D3000BFFEF7EAFFEE
:1035300010BD0268546824F4E064546002681468A2
:1035400044F400741460016380F83D3090F83E202C
:1035500080F83E10402AE9D100E002E0FEF7D4FFF7
:1035600010BD0068416821F48061416010BDBDE874
:10357000104000F0F3B8000078B590F83E50C26AF1
:10358000046B90F83D6000230168222E73D1066D14
:103590000EB9402D6FD0056D1DB90569B5F5404FC9
:1035A0001BD0458D95B3468D484D012E20D0448DBE
:1035B000022C4DD00C6844F480640C6001684C68A7
:1035C000240579D5AA4273D0012A71D0082A6FD078
:1035D000102A6DD0202A6BD06EE04A698A69009269
:1035E0000A6842F480720A60016D491C016578BD69
:1035F000AA4214D10A6822F480620A6001684A680B
:10360000120504D50A6822F4806217E0FFE74A69D0
:103610008A6900920A6842F400720A6050E0082A3F
:1036200010D0202A0ED0122C0AD0042A03D0022A4D
:1036300001D0102AE6D10A6842F480620A603BE0B9
:10364000012ADFD00A6822F480620A600168DEE79E
:10365000042A11D0022A0FD0102A0DD00C6844F48D
:1036600000640C6001684C698C6900940C6824F457
:1036700080640C6008E025E00C6844F480640C6011
:1036800001684C698969009101684C68240517D567
:10369000AA4207D0012A05D0082A03D0102A01D057
:1036A000202A0DD14A6842F480524A6008E0FFE7C0
:1036B0004A6842F480524A6001684A698969009107
:1036C000036578BD48698869009078BD0000FFFFF8
:1036D00090F83E10402910D00169B1F5804F19D003
:1036E000016DA9B3016D012910D1416C5FF0F102A8
:1036F00001F4407142EAD11106E0016D0029416CEC
:1037000005D0C9B241F0010100680161704701F0C4
:10371000FE01F9E790F83D102129416C09D0C9B2AA
:1037200041F0010102681161416B29B1896A49B90F
:1037300002E001F0FE01F5E7816B0029E6D0896A1D
:103740000029E3D00068416841F40061416070479E
:10375000FFE7416CF02201F44071CBE710B590F81F
:103760003D10026D4AB1026D012A14D0026D022A89
:1037700016D0BDE81040FFF7AFBCC16C0129816CC9
:1037800002D0C1F3072108E00268C9B21161016DDE
:10379000891C016510BD816CC9B20268116123E00A
:1037A00022291CD0428D0AB1212920D0428D002A25
:1037B000F0D12129EED101684A6822F4E0624A6022
:1037C00001680A6842F400720A6000210163202245
:1037D00080F83D2080F83E10FEF796FE10BD01688F
:1037E0000A6842F480720A60016D491CD1E7416A9F
:1037F000026809781161416A491C4162418D491E84
:10380000418510BD2DE9F843044600680D46DDE909
:10381000089701689846164641F4807101604B464E
:1038200000224FF001112046009700F03DF948B109
:1038300020680068C00502D54FF4007020640320A2
:10384000BDE8F883216805F0FE0008613B464A4662
:103850001549204600F070F988B9206841698069EF
:1038600000903A464946204600F0C4F948B1206C21
:10387000042804D12068016841F40071016001202E
:10388000DEE7F5B2B8F1010F09D02168300A08610E
:103890003A464946204600F0ADF90028E7D12068B5
:1038A00005610020CCE700000200010038B50C469D
:1038B00090F83D2000212825954302680B4605D04D
:1038C00051699169009180F83C3038BD556825F404
:1038D00080655560E243540700D50121120601D5E9
:1038E000828900E0028B80F83C3092B2FEF729FC1E
:1038F00038BD0000F8B590F83D60044600684168A6
:1039000021F4E0614160206800254169009101686F
:1039100041F0010101602068016821F480610160CB
:1039200020684168090520D5474F222E48D02A2E0D
:1039300046D0616B096849686185618D19B1216C58
:1039400041F004012164416821F400614160606B31
:10395000FEF7DAF9012808D0606B4763606BFEF769
:1039600087F910B1606B416B8847608D08B32068A0
:103970004169C943490708D40069616A0870606AEF
:10398000401C6062608D401E608520684169C943AB
:10399000490608D40069616A0870606A401C606268
:1039A000608D401E6085608D18B1206C40F0040071
:1039B0002064206C00B32046BDE8F840FFF794BBBC
:1039C000A16B096849686185618D19B1216C41F06D
:1039D00004012164416821F400614160A06BFEF79D
:1039E00093F90128C1D0A06B4763A06BFEF740F9A3
:1039F0000028BAD0A06BB6E72A2E06D1256328206E
:103A000084F83D002046FEF753FF94F83D10202037
:103A100028290DD0216B222901D0222E07D1256320
:103A200084F83D0084F83E502046FEF741FFF8BD83
:103A30000649E162256384F83D0084F83E50204643
:103A4000FEF75EFDF8BD0000D52E00080000FFFF68
:103A500070B516460D4604461EE02046FFF7F0FB03
:103A600008B1012070BD681C16D0FEF763FB801BF7
:103A7000A84200D885B920684069C04340070BD5EB
:103A8000002044F8300F20216173A073216941F0B8
:103A9000200121612073E4E720684069C0434007AA
:103AA000DBD4002070BD00002DE9F0479846174692
:103AB0000D460446C1F30746DDF820902AE000BF1A
:103AC000B8F1FF3F26D0FEF735FBA0EB09014145D9
:103AD00002D8B8F1000F1DD12068012E16D08069E0
:103AE00025EA00000004000C12D00020B84211D1D9
:103AF000002044F8300F20216173A073216941F048
:103B00002001216120730120BDE8F0874069E7E7CB
:103B10000120EBE72068012E0AD0806925EA000029
:103B20000004000C06D00020B842C9D00020EBE70A
:103B30004069F3E70120F7E72DE9F047984616467C
:103B40000D4604464FF000094FF0200AC1F3074725
:103B500023E020684069C043400515D4206801680F
:103B600041F40071016021686FF480604861C4F81D
:103B7000309084F83DA084F83E90216C41F004011F
:103B8000216484F83C9021E0701C06D0FEF7D2FA44
:103B9000A0EB0800B04203D816B1012F1FD021E0DE
:103BA0002068012F15D0806925EA00000004000C70
:103BB00018D000BF44F8309F84F80DA084F80E9010
:103BC000216941F02001216184F80C900120BDE8B9
:103BD000F087406925EA00000004000CEAD1206863
:103BE000406901E02068806925EA00000004000CBB
:103BF000AFD1ECE770B516460D4604461EE02046F0
:103C0000FFF71EFB08B1012070BD681C16D0FEF73F
:103C100091FA801BA84200D885B920684069C0434A
:103C200000060BD5002044F8300F20216173A073EB
:103C3000216941F0200121612073E4E72068406997
:103C4000C0430006DBD4002070BD0000094808B561
:103C5000416941F0010141614069002200F0010029
:103C6000009011461020FEF78BFEBDE808401020A2
:103C7000FEF778BE00100240114808B5816941F096
:103C800010018161816901F010010091816941F0A9
:103C900020018161816901F020010091816941F079
:103CA00004018161816901F004010091816941F0A1
:103CB00008018161806900F00800009008BD0000E3
:103CC000001002400D4810B50B4901600C494160DD
:103CD00000214FF480428160C0E90312416181619B
:103CE000C1610162FEF748FB002803D0BDE8104027
:103CF000FDF7BCBF10BD00000054004014000020C0
:103D0000C05C1500FEE7FEE770477047FEF7D2BDC6
:103D100030B58FB028216846FCF703FB14210AA8B0
:103D2000FCF7FFFA01210804CDE9001000240294F9
:103D300002250491CDE907504FF4E0100990684640
:103D4000FEF71CFF08B172B6FEE70F20CDE90A05A9
:103D50004FF48060CDE90C4002210AA80E94FEF7D2
:103D600041FE002801D072B6FEE70FB030BD7047AB
:103D7000FEE700002DE9F0410024DFF838802746F7
:103D800004F1B000C0B200F0C5F9002000F0C2F9A3
:103D9000102000F0BFF9002508EBC416002000F049
:103DA000CBF977556D1C802DF8DB641C082CE7DB04
:103DB000BDE8F081EC0000202DE9F043A1B01F46E2
:103DC00090460D4604460026E946D1E0B8F10E0FB4
:103DD00030D2DFE808F007305D92CACACACACACA40
:103DE00007305D928028F3D2654900EB400001EB7B
:103DF0004000B8F10A0F50F8C01D00918088ADF85E
:103E000004000CD19DF800204946D2438DF80020D3
:103E100001200A5CD2430A54401C0628F9DB062321
:103E20006A462946204600F01FF9A41D7A2C01DDC0
:103E300000246D1C99E0802824D220385149C0B25A
:103E400001EB001110226846FCF726FAB8F10B0FBF
:103E50000CD19DF800204946D2438DF80020012066
:103E60000A5CD2430A54401C1028F9DB08236A4636
:103E70002946204600F0F8F80823691C204602AACB
:103E800000F0F2F80834782C6FDD0024AD1C6CE0F3
:103E900080282CD22038C0B23B4900EBC00001EB97
:103EA000800124226846FCF7F7F9B8F10C0F0CD119
:103EB0009DF800204946D2438DF8002001200A5C7D
:103EC000D2430A54401C2428F9DB0C236A462946B5
:103ED000204600F0C9F80C23691C204603AA00F014
:103EE000C3F80C23A91C204606AA00F0BDF80C3428
:103EF000742C3ADD0024ED1C37E0802830D22038C5
:103F00002249C0B201EB801140226846FCF7C4F997
:103F1000B8F10D0F0CD19DF800204946D2438DF821
:103F2000002001200A5CD2430A54401C4028F9DBDF
:103F300010236A462946204600F096F81023691C93
:103F4000204604AA00F090F81023A91C204608AAD5
:103F500000F08AF81023E91C20460CAA00F084F82F
:103F60001034702C01DD00242D1D072D04DC761C7F
:103F7000B85D00287FF42AAF21B0BDE8F0830000CF
:103F8000CA420008F2440008E24A00083E5800080D
:103F900010B5AE2000F0BEF8022000F0BBF81020F3
:103FA00000F0B8F8402000F0B5F8B02000F0B2F80A
:103FB000812000F0AFF8FF2000F0ACF8A12000F065
:103FC000A9F8A62000F0A6F8A82000F0A3F83F204A
:103FD00000F0A0F8C82000F09DF8D32000F09AF877
:103FE000002000F097F8D52000F094F8802000F031
:103FF00091F8D82000F08EF8052000F08BF8D92039
:1040000000F088F8F12000F085F8DA2000F082F85E
:10401000122000F07FF8DB2000F07CF8302000F068
:1040200079F88D2000F076F8142000F073F8AF20B6
:1040300000F070F8BDE81040FFF79CBE0FB470B5FB
:1040400014460D46064608AA06480799FCF712F9D9
:10405000044B224629463046FFF7AEFE70BC5DF8A1
:1040600014FB0000AC00002030B41446802812D2AB
:10407000002910DB08290EDA00EBC1121A44B2F550
:10408000806F08D8054A02EBC1110844214630BCB4
:104090001A46FCF701B930BC70470000EC00002064
:1040A00038B50C4C0020B02120708DF800108DF830
:1040B000010010208DF8020003226946002000F064
:1040C0000DF805482178802200EBC111402000F056
:1040D00013F838BD10000020EC0000200EB50523B9
:1040E00092B28DE80E000246012378210148FEF7C6
:1040F0002FFA0EBD140000201CB592B2CDE90012BB
:104100000246012378210248FEF7BAFA1CBD0000DE
:104110001400002001B584B0012004A9CDE90010ED
:1041200003460290002278210248FEF711FA05B0FA
:1041300000BD00001400002001B584B0012004A9D6
:10414000CDE9001003460290402278210248FEF794
:10415000FFF905B000BD000014000020490050EA3E
:10416000C12018BF04204A0D18BF40F0010040F2E2
:10417000FF72B2EB515F08BF40F00200012808BF98
:10418000052070470907090E002804DB00F1E02034
:1041900080F80014704700F00F0000F1E02080F874
:1041A000141D704730380A2801D2012070470020C2
:1041B00070470000FEF786FBFFF7AAFDFFF75CFDE6
:1041C000FFF744FDFFF77EFDFFF7E2FE4FF47A7440
:1041D000012111A30B220846FFF7EEFD10A30322D5
:1041E00004214020FFF72AFFFFF75AFF2046FDF782
:1041F0009FFE01210CA30B220846FFF7DDFD0EA355
:10420000032204214020FFF719FFFFF749FF204652
:10421000FDF78EFEDCE700006173646173640000EB
:104220004F4C4544000000003435363436343635C2
:1042300034363534000000003132333400000000E1
:1042400010B500290AD00878002807D0054878441E
:10425000FDF7E0F8002801D0002010BD02487844A6
:1042600010BD0000CE2E0000C62E000010B50029A3
:104270000AD00878002807D005487844FDF7CAF826
:10428000002801D0002010BD0248784410BD000075
:10429000BE2E0000B62E0000FCF7C9BCFCF7FEBD28
:1042A000010202030405060708090A0B0C0D0E0F94
:1042B00010100000000000000000010203040607C7
:1042C00008090000000001020304000000000000D3
:1042D0000000002F000000000700070000147F14FA
:1042E0007F1400242A7F2A120062640813230036F8
:1042F0004955225000000503000000001C22410027
:10430000000041221C000014083E08140008083E6A
:104310000808000000A06000000808080808000065
:1043200060600000002010080402003E5149453E34
:104330000000427F40000042615149460021414552
:104340004B31001814127F10002745454539003CB9
:104350004A49493000017109050300364949493687
:1043600000064949291E0000363600000000563676
:10437000000000081422410000141414141400005A
:104380004122140800020151090600324959513EE8
:10439000007C1211127C007F49494936003E4141A0
:1043A0004122007F4141221C007F49494941007F51
:1043B00009090901003E4149497A007F0808087F40
:1043C0000000417F4100002040413F01007F081470
:1043D0002241007F40404040007F020C027F007F6E
:1043E0000408107F003E4141413E007F0909090653
:1043F000003E4151215E007F091929460046494986
:1044000049310001017F0101003F4040403F001F52
:104410002040201F003F4038403F006314081463D1
:1044200000070870080700615149454300007F41BB
:10443000410000552A552A55000041417F000004E3
:10444000020102040040404040400000010204001C
:10445000002054545478007F484444380038444481
:10446000442000384444487F00385454541800080D
:104470007E0901020018A4A4A47C007F080404782B
:104480000000447D4000004080847D00007F1028B3
:1044900044000000417F4000007C04180478007C48
:1044A0000804047800384444443800FC24242418C8
:1044B0000018242418FC007C080404080048545404
:1044C000542000043F444020003C4040207C001C1D
:1044D0002040201C003C4030403C00442810284430
:1044E000001CA0A0A07C004464544C441414141478
:1044F0001414000000000000000000000000000094
:104500000000000000F80000000000000033300050
:10451000000000100C06100C060000000000000057
:10452000000040C07840C0784000043F04043F04CD
:104530000400007088FC08300000001820FF211ED5
:104540000000F008F000E018000000211C031E210C
:104550001E0000F00888700000001E212324192787
:10456000211010160E0000000000000000000000E6
:104570000000000000E018040200000000071820FE
:10458000400000020418E00000000040201807006E
:104590000000404080F0804040000202010F010214
:1045A0000200000000F0000000000101011F0101F5
:1045B0000100000000000000000080B0700000005A
:1045C00000000000000000000000000101010101E6
:1045D0000101000000000000000000303000000079
:1045E0000000000000008060180400601806010050
:1045F000000000E010080810E000000F102020105C
:104600000F00001010F8000000000020203F2020C4
:10461000000000700808088870000030282422215B
:104620003000003008888848300000182020201111
:104630000E000000C02010F8000000070424243FF2
:10464000240000F80888880808000019212020119B
:104650000E0000E0108888180000000F11202011C3
:104660000E0000380808C83808000000003F0000AD
:1046700000000070880808887000001C2221212298
:104680001C0000E010080810E00000003122221198
:104690000F00000000C0C00000000000003030002B
:1046A00000000000008000000000000080600000AA
:1046B00000000000804020100800000102040810E3
:1046C00020004040404040404000040404040404F2
:1046D00004000008102040800000002010080402A0
:1046E0000100007048080808F000000000303601A2
:1046F0000000C030C828E810E00007182724231461
:104700000B000000C038E0000000203C230202271C
:10471000382008F8888888700000203F2020201169
:104720000E00C030080808083800071820202010A4
:10473000080008F808080810E000203F202020109A
:104740000F0008F88888E8081000203F2020232068
:10475000180008F88888E8081000203F20000300AF
:104760000000C03008080838000007182020221E6A
:10477000020008F808000008F808203F2101012184
:104780003F20000808F8080800000020203F2020F3
:10479000000000000808F8080800C08080807F0042
:1047A000000008F888C028180800203F200126389B
:1047B000200008F8080000000000203F20202020F2
:1047C000300008F8F800F8F80800203F003F003FEC
:1047D000200008F830C00008F808203F2000071823
:1047E0003F00E01008080810E0000F102020201003
:1047F0000F0008F808080808F000203F2101010117
:104800000000E01008080810E0000F1824243850B9
:104810004F0008F8888888887000203F2000030C2B
:104820003020007088080808380000382021212234
:104830001C00180808F8080818000000203F200095
:10484000000008F808000008F808001F20202020B9
:104850001F000878880000C83808000007380E01DB
:104860000000F80800F80008F800033C0700073CC7
:104870000300081868808068180820302C03032C77
:1048800030200838C800C83808000000203F200049
:10489000000010080808C838080020382621202009
:1048A0001800000000FE020202000000007F4040ED
:1048B0004000000C30C0000000000000000106387D
:1048C000C00000020202FE000000004040407F00E5
:1048D00000000000040202020400000000000000CA
:1048E00000000000000000000000808080808080C8
:1048F00080800002020400000000000000000000B0
:104900000000000080808080000000192422222204
:104910003F2008F8008080000000003F1120201197
:104920000E000000008080800000000E112020207A
:104930001100000000808088F800000E1120201077
:104940003F200000808080800000001F2222222261
:104950001300008080F0888888180020203F2020E5
:1049600000000000808080808000006B949494930D
:10497000600008F8008080800000203F21000020B7
:104980003F2000809898000000000020203F202059
:104990000000000000809898000000C08080807FA8
:1049A000000008F8000080808000203F24022D30A5
:1049B0002000000808F8000000000020203F202010
:1049C00000008080808080808000203F20003F2089
:1049D000003F8080008080800000203F2100002078
:1049E0003F200000808080800000001F20202020C9
:1049F0001F00808000808000000080FFA120201127
:104A00000E000000008080808000000E112020A099
:104A1000FF80808080008080800020203F21200057
:104A20000100000080808080800000332424242442
:104A30001900008080E0808000000000001F20201E
:104A400000008080000000808000001F20202010D7
:104A50003F20808080000080808000010E300806AA
:104A6000010080800080008080800F300C030C30BB
:104A70000F0000808000808080000020312E0E31E9
:104A80002000808080000080808080818E701806E9
:104A9000010000808080808080000021302C222155
:104AA000300000000000807C020200000000003F97
:104AB000404000000000FF00000000000000FF0078
:104AC00000000002027C800000000040403F000027
:104AD00000000006010102020404000000000000C2
:104AE00000000000000000000000000000000000C6
:104AF00000000000000000000000000000000000B6
:104B00000000000000000000000000F0F0000000C5
:104B100000000000000000770F000000000000000F
:104B20000000001C1C000000000000008060301C21
:104B30008C60301C0C000000000000000000000031
:104B40000000000000000000000000000000000065
:104B50000000F000000000F00000008383FF83836A
:104B60008383FB87830000011F01010101011F01F5
:104B70000100000080C06020F820E0C000000000BC
:104B800003070C18FF71E18100000000070F1210ED
:104B90007F100F070000C0301030C00000C0300090
:104BA000000007181018CF38C6311030C0000000C0
:104BB000180700000718101807000000E0F010F0B8
:104BC000E00000000000C0E0173FF8C70308F80845
:104BD0000800070F181010130F0E1910100C00000A
:104BE0008C4C3800000000000000000000000000B5
:104BF00000000000000000000000000000000000B5
:104C000000000000000000008060100804000000A8
:104C1000000000FE01000000000000000000000095
:104C2000030C102040000004081060800000000009
:104C30000000000000000001FE0000000000004035
:104C400020100C0300000000000000000000000025
:104C5000C08000000000006666243810FF183C2465
:104C60006666000000000000030000000000000075
:104C70000000000080000000000000101010101064
:104C8000FF101010101000000000000003000000D2
:104C90000000000000000000000000000000000014
:104CA0000000000000000000000000008C4C3800F4
:104CB00000000000000000000000000000000000F4
:104CC0000000001010101010101010101000000044
:104CD00000000000000000000000000000000000D4
:104CE00000000000000000000000000000000000C4
:104CF000000000001C1C1C00000000000000000060
:104D0000000000000000E0380C000000000080708F
:104D10001C03000000000060380E010000000000CD
:104D20000000000080C060202060C080000000FE05
:104D3000FF010000000001FFFE000001070E181037
:104D400010180E0701000000404040C0E0000000C5
:104D500000000000000000FFFF0000000000000055
:104D60001010101F1F101010000000804020202085
:104D70002060C08000000003030000C060301F07F7
:104D8000000000181C1211101010101E000000C0AE
:104D9000C020202060C08000000000010100101031
:104DA000182FE7800000000E0E10101010180F07CB
:104DB000000000000000000080E0E000000000C0F3
:104DC000A098848380FFFF80808000000000001096
:104DD000101F1F1010000000E020202020202020A5
:104DE000000000003F1008080818F0E0000000076D
:104DF0000B101010101C0F030000000080C040209A
:104E00002020E0C0000000FCFF211008080818F076
:104E1000E0000001070C18101010080F030000003C
:104E2000C0602020202020E0600000000100000081
:104E3000E0180700000000000000001F1F00000035
:104E400000000080C0602020202060C0800000831F
:104E5000CF6C1810303068CF830000070F08101097
:104E60001010180F07000000C0C020202020C080B4
:104E70000000001F3F604040402010FFFE00000087
:104E80000C1C101010080F030000000000000000B0
:104E900000000000000000000000001C1C1C0000BE
:104EA000000000000000001C1C1C000000000000AE
:104EB0000000000000000000000000000000000CE6
:104EC0000C00000000000000000000D838000000C6
:104ED00000000000000000000080402010000000E2
:104EE00010284482010000000000000000000000C3
:104EF0000102040810000000000000000000000093
:104F000000000044444444444444444444000000F9
:104F100000000000000000000000000010204080A1
:104F20000000000000000000000000000182442892
:104F30001000000010080402010000000000000042
:104F40008040402020202060C08000000706000034
:104F5000E01018080F0700000000001C1C1C0000D7
:104F600000000000C0E020109090A060800000FED3
:104F7000FF00F8FF03FC07807F000000070E1811F8
:104F80001111090C0200000000008060E000000028
:104F90000000000080784740415FF0800000101C56
:104FA000131000000000111F18100020E0E0202066
:104FB0002060C0C000000000FFFF101010182FE795
:104FC000800000101F1F10101010180F07000000A5
:104FD00080C04020202060E0800000FCFF01000035
:104FE0000000000003000001070E18101010080C4C
:104FF00003002020E0E020202040C08000000000CE
:10500000FFFF0000000001FFFE0010101F1F101026
:1050100010080E07010020E0E02020202020606022
:10502000800000FFFF10101010FC00000100101F96
:105030001F10101010101018060020E0E020202093
:1050400020206060800000FFFF10101010FC0000A6
:105050000100101F1F1010000000000000000000E1
:1050600080C0602020204080000000FCFF01000084
:105070004040C0C340400001070E181010100F0F31
:10508000000020E0E0200000000020E0E02000FF21
:10509000FF101010101010FFFF00101F1F10000055
:1050A0000000101F1F100000202020E0E020202022
:1050B00000000000000000FFFF00000000000000F2
:1050C0001010101F1F1010100000000000202020E2
:1050D000E0E020202000000000000000FFFF0000B2
:1050E00000000060E08080C07F3F0000000020E002
:1050F000E0200000A0E06020000000FFFF300C3A3C
:10510000E18000000000101F1F10000000131E1897
:10511000100020E0E020200000000000000000FF60
:10512000FF000000000000000000101F1F10101002
:1051300010101018060020E0E000000000C0E0E0C1
:10514000200000FF0FFFE0807C03FFFF0000101F26
:1051500010000F0700101F1F10000020E0E080006B
:10516000002020E020200000FF01071E78C000FF83
:10517000000010101F10100000030F1F000000009F
:1051800080C060202060C080000000FEFF010000A1
:10519000000000FFFE000001070E181010180C0799
:1051A000010020E0E0202020202040C0800000FFFF
:1051B000FF2020202030101F0F00101F1F10100094
:1051C000000000000000000080C060202060C0805F
:1051D000000000FEFF010000000000FFFE000001D3
:1051E000070E1911173C6C67210020E0E0202020F9
:1051F000202060C0800000FFFF10101070D0080F4A
:105200000700101F1F1000000001071E181000806B
:10521000C0602020202040E0000000070F1C18384C
:105220003070E0E1800000070C0810101010180F1B
:1052300007008060202020E0E02020206080010026
:10524000000000FFFF000000000100000010101F20
:105250001F10100000000020E0E02000000020E00F
:1052600020000000FFFF0000000000FF0000000021
:10527000070F18101010080700002060E020000041
:105280000000A06020000000077EE000807807009A
:10529000000000000000071E03000000000020E0E6
:1052A00020002060E0200020E0200003FFC0C03C80
:1052B0003FF0807C03000000001F0300001F070078
:1052C0000000002060E020000020E020200000001E
:1052D0000001877CE886010000000010181601001C
:1052E00000131E1810002060E0200000000020A025
:1052F00060200000010F3CF8E018060100000000EB
:105300000010101F1F10100000000080E06020201F
:105310002020A0E0200000010000806018060300AB
:10532000000000101C1711101010101806000000CB
:10533000000000FC0404040400000000000000FF62
:1053400000000000000000000000007F40404040DE
:105350000000000030C0000000000000000000005D
:1053600000000718E08000000000000000000000BE
:1053700000030C708000000004040404FC00000022
:105380000000000000000000FF000000000000001E
:10539000404040407F000000000000000008040280
:1053A00002040800000000000000000000000000EF
:1053B00000000000000000000000000000000000ED
:1053C00000000000000000000000000000000000DD
:1053D00000000000000080808080808080808080CD
:1053E00080800000000404080800000000000000A5
:1053F00000000000000000000000000000000000AD
:10540000000000000000000000000000000000009C
:1054100000000000989884444444FCF80000000F09
:105420001F19101010080F1F10180020E0F00000C6
:105430000000000000000000FFFF180804040CF842
:10544000F00000001F0F08101010180F03000000DC
:105450000000000000000000000000E0F818040454
:10546000043C3800000000030F0C10101010080658
:1054700000000000000000002020E0F0000000E03C
:10548000F81C04040408FFFF000000030F181010AC
:1054900010081F0F080000000000000000000000BE
:1054A00000000000E0F8888484848CF8E0000000AC
:1054B000030F0C101010100804000000000080C042
:1054C000602020E0C00000040404FFFF0404040086
:1054D0000000000010101F1F10101000000000003E
:1054E00000000000000000000000000070F88C04C4
:1054F0000CFCF40C0C0000707ECF85858DCD787887
:1055000000000020E0F000000000000000000000AB
:10551000FFFF08040404FCF8000000101F1F100027
:1055200000101F1F1000000000000060600000005D
:1055300000000000040404FCFE0000000000000065
:105540001010101F1F1010100000000000000000BD
:1055500060606000000000000000040404FCFE0025
:1055600000000000C0C08080C07F3F00000000201D
:10557000E0F000000000000000000000FFFF80409D
:10558000E01C0404000000101F1F100000131E1870
:1055900010000000202020E0F000000000000000CB
:1055A000000000FFFF000000000000001010101FAE
:1055B0001F1010100000000000000000000000009C
:1055C000000004FCFC0804FCF80804FCFC00101FAC
:1055D0001F10101F1F10101F1F10000000000000E0
:1055E0000000000000000004FCFC08040404FCF8B7
:1055F000000000101F1F100000101F1F10000000EF
:105600000000000000000000000000E0F0180C04A2
:10561000040C18F0E00000030F0C101010100C0F19
:105620000300000000000000000000000000000473
:10563000FCFC080404040CF8F0000080FFFF8890D4
:1056400010101C0F0300000000000000000000000C
:10565000000000E0F81C04040408F8FC000000034B
:105660000F1810109088FFFF80000000000000005D
:10567000000000000000040404FCFC100804041CEA
:1056800018001010101F1F10101000000000000064
:105690000000000000000000000000003878CCC4CA
:1056A00084840C3C000000001E18101011191F0FFC
:1056B00000000000000000C0000000000000000426
:1056C0000404FFFF040404000000000000000F1F9A
:1056D0001010100C0000000000000000000000008E
:1056E00000000004FCFE00000004FCFE00000000BE
:1056F0000F1F181010081F0F080000000000000006
:1057000000000000000000040C7CC4000080740C49
:10571000040000000000031F0C0300000000000054
:1057200000000000000000000000041CF48004ECF5
:10573000FC8400E41C040000011F0F00000F0F0098
:105740000000000000000000000000000000000059
:10575000040C3CE4C0241C0404000010101C1201C2
:1057600001131C18100000000000000000000000E1
:1057700000000004043CC40000C43C040400000019
:10578000C080817F0E0100000000000000000000CA
:1057900000000000000000003C0404C4741C0C0065
:1057A00000000000181E13111010180E0000000059
:1057B0000000000000F804040000000000000010D9
:1057C00028C700000000000000000000003F40402B
:1057D0000000000000000000FF00000000000000CA
:1057E00000000000FF0000000000000000000000BA
:1057F000FF000000000000000404F80000000000AA
:10580000000000000000C728100000000000000099
:1058100040403F00000000000000000C02020204B3
:10582000081810100C00000000000000000000002C
:105830000000000000000000000000000000000068
:105840000000000000000000000000000000000058
:105850000000000000000000000000000000000048
:105860000000000000000000000000000000000038
:105870000000000000000000000000000000000028
:1058800000000000C0C0C0C0C00000000000000058
:10589000000000000FFFFFFF1F00000000000000DD
:1058A00000000000001F1F1F00000000000000009B
:1058B00000000000060F0F0F0600000000000000AF
:1058C0000080E0F87C3C9CE0F87C3C1C0000000080
:1058D00003030100000303010000000000000000BA
:1058E00000000000000000000000000000000000B8
:1058F00000000000000000000000000000000000A8
:10590000000000C0C00000000000C0C0000000385F
:105910003838F8FF3F38383838F8FF3F38380070EB
:1059200070F0FFFF70707070F0FFFF70707000001B
:10593000000F0F00000000000F0F0000000000002B
:1059400000008080C0F0F040C080800000000000B7
:10595000001E7FFFF0FFFF000C0F0F0F0000000084
:10596000C0C0C0C001FFFF071FFEFCF00000000028
:105970000307070C087F7F0C0E070301000000805F
:10598000C0C0C0C08000000000C0C00000007EFF9A
:10599000FF0000FFFF7EE0FC1F030000000000018D
:1059A000030383E37D1FFBFEFF0303FFFEF80000FC
:1059B000000C0F03000001070F0C0C0F0701000083
:1059C0000080C0C040C0C000000000000000000017
:1059D0007FFFFFC0E07F3F0F000000000000F8FCE9
:1059E000FF030F3F7EF8E081F17F0F01010001030B
:1059F000070E0C08080D07070F0E0C0E070300001A
:105A00001C1CFCFC780000000000000000000002EC
:105A1000030301000000000000000000000000007F
:105A20000000000000000000000000000000000076
:105A30000000000000000000000000000000000066
:105A40000000000000000000C0E070380C040000FE
:105A50000000000000F0FCFF0F010000000000004B
:105A600000000000001F7FFFE000000000000000B9
:105A70000000000000000001070F1C386040000417
:105A80000C3870E0C00000000000000000000000C2
:105A9000000000010FFFFCF000000000000000000B
:105AA00000000000E0FFFF1F0000000000000040B9
:105AB00060381C0F0701000000000000000000001B
:105AC00000000000000000000000000000000000D6
:105AD0001838387060C6FFFFCF6070383818000083
