:020000040800F2
:100000001007002089010008AF140008291000081B
:10001000AD1400088F0200087318000800000000EB
:100020000000000000000000000000002917000888
:100030009102000800000000271700082B17000895
:10004000A3010008A3010008A3010008A301000800
:10005000A3010008A301000893020008A3010008FF
:10006000A3010008A3010008A3010008A3010008E0
:10007000A3010008A3010008A3010008A3010008D0
:10008000A3010008A3010008A3010008A3010008C0
:10009000A3010008A3010008A3010008A3010008B0
:1000A000A3010008A3010008A3010008A3010008A0
:1000B000A3010008A3010008A3010008A301000890
:1000C000A3010008A3010008A3010008A301000880
:1000D000A3010008A3010008A3010008A301000870
:1000E000A3010008A3010008A301000800F002F822
:1000F00000F03AF80AA090E8000C82448344AAF188
:100100000107DA4501D100F02FF8AFF2090EBAE885
:100110000F0013F0010F18BFFB1A43F0010318473B
:10012000B4200000D4200000103A24BF78C878C161
:10013000FAD8520724BF30C830C144BF04680C60ED
:10014000704700000023002400250026103A28BF35
:1001500078C1FBD8520728BF30C148BF0B60704739
:100160001FB51FBD10B510BD00F058F81146FFF7C0
:10017000F7FF01F0B3FB00F076F803B4FFF7F2FFEE
:1001800003BC00F07DF8000009488047094800479B
:10019000FEE7FEE7FEE7FEE7FEE7FEE7FEE7FEE737
:1001A000FEE7FEE704480549054A064B7047000094
:1001B0008D170008ED000008100100201007002036
:1001C00010030020100300204FF0000200B513467A
:1001D00094469646203922BFA0E80C50A0E80C5067
:1001E000B1F12001BFF4F7AF090728BFA0E80C5018
:1001F00048BF0CC05DF804EB890028BF40F8042B11
:1002000008BF704748BF20F8022B11F0804F18BF7D
:1002100000F8012B7047704770477047754600F033
:100220002BF8AE4605006946534620F00700854688
:1002300018B020B5FFF7B6FFBDE820404FF000062C
:100240004FF000074FF000084FF0000B21F00701BE
:10025000AC46ACE8C009ACE8C009ACE8C009ACE801
:10026000C0098D46704710B50446AFF300802046A4
:10027000BDE81040FFF781BF00487047B000002084
:1002800001491820ABBEFEE7260002007047FEE7DA
:100290007047012000F016B872B6FEE770B504464C
:1002A00000F01EF90546601C02D0044800780444A2
:1002B00000F016F9401BA042FAD370BD04000020E4
:1002C00070470000044910B50A68024202D0086075
:1002D000FFF7F6FF10BD0000140401402DE9F84FB0
:1002E000DFF8B8910024A9F1040B23460F2709F188
:1002F000040AABF1040EC9E00125A5402A40AA4238
:100300007DD1674ED1F804C0ACEB0608B44532D0BD
:1003100014DCBCF1030F3AD009DCBCF1000F2AD089
:10032000BCF1010F1CD0BCF1020F31D11DE0BCF1BA
:10033000110F17D0BCF1120F2AD119E0B8F5881FA0
:1003400019D006DCB8F5803F15D0B8F5801F1FD155
:1003500011E0B8F5001F0ED0B8F5041F18D10AE05F
:10036000CB6815E0CB681B1D12E0CB6808330FE0AB
:10037000CB680C330CE08B682BB1012B4FF00803DA
:1003800003D0456104E0042302E0056100E000239E
:10039000FF2A01D8064601E000F104064FEA840571
:1003A00001D9A5F12005D6F8008007FA05FC28EA56
:1003B0000C0803FA05F548EA0508C6F800804D6800
:1003C000ED0062D5374DAE6946F00106AE61AD690C
:1003D00024F0030605F001050095334D06EB050CEE
:1003E000DCF80850A607360F07FA06F825EA0805D4
:1003F000DFF8B880404503D14FF0000817E044E033
:10040000DFF8AC80404502D14FF001080FE0DFF883
:10041000A480404502D14FF0020808E0DFF8988040
:10042000404502D14FF0030801E04FF0040808FAFC
:1004300006F848EA0508CCF808804D68D9F800604D
:10044000ED024D4601D5164300E096432E604D68FF
:10045000DAF80060AD02554601D5164300E0964338
:100460002E604D68DBF80060AD035D4601D5164394
:1004700000E096432E604D68DEF80060ED0375469F
:1004800001D5164300E096432E60641C0D682A4691
:10049000E5407FF431AFBDE8F88F0000080401406B
:1004A000000011100010024000000140000801404F
:1004B000000C014000100140001401408068084019
:1004C00000D001207047C26821EA02030A4043EAD3
:1004D0000241016170470AB1016170470904FBE7FD
:1004E00001488068704700000400002070B50400D7
:1004F00025D094F83D00002520B984F83C502046D2
:1005000000F050F9242084F83D002068016821F0B3
:10051000010101602068016841F400410160206828
:10052000016821F40041016000F098FA4D4A6168C9
:10053000914201D84C4900E04C49884201D2012047
:1005400070BD4B492368B0FBF1F15E6826F03F06B1
:100550000E435E606368934206D94FF49673594325
:100560004FF47A73B1FBF3F12368491C1E6A26F03D
:100570003F06314319626168914210D84900401E1C
:10058000B0FBF1F2521CC2F30B02042A01D2042088
:1005900022E0B0FBF1F0401CC0F30B001CE0A268AD
:1005A000F2B301EBC10303EB0116431EB3FBF6F3F9
:1005B0005B1C43F480431B0549D092B301EBC1029D
:1005C00002EB0111401EB0FBF1F0401CC0F30B0028
:1005D00040F4804040F400402168CA694CF6FF7343
:1005E0009A431043C861D4E90710014320680268A8
:1005F00022F0C00211430160D4E9030101432068E5
:10060000826848F2FF339A4311438160D4E90501BF
:1006100008432168CA6822F0FF021043C86001E065
:100620000EE016E02068016841F0010101602564D8
:10063000202084F83D00256384F83E50002070BDE2
:1006400001EB4106431EB3FBF6F35B1CB3E701204D
:10065000C2E701EB4101401EB0FBF1F0401CC0F3CA
:100660000B00B7E7A086010080841E0000093D0052
:1006700040420F002DE9FF4F83B09A46DDE9119704
:1006800093460446DDF84080FFF72AFF054694F8BC
:100690003D0020287FD119230122404920460095A2
:1006A00000F05AFD002876D194F83C00012872D061
:1006B000012084F83C0020680168C90703D1016863
:1006C00041F0010101602068016821F400610160CE
:1006D000212084F83D00402084F83E000026266456
:1006E000C4F82480A4F82A90608D20852C48E0620C
:1006F000CDE9007553465A462046049900F0ACFCFB
:1007000070B930E02A463946204600F0CBFD58B19A
:10071000206C042804D12068016841F40071016054
:10072000012007B0BDE8F08F606A21680078086199
:10073000606A401C6062218D491E89B22185628DEC
:10074000521E628522685369DB435B070BD469B193
:1007500000781061606A401C6062208D401E208518
:10076000608D401E6085208D0028CBD12A463946F9
:10077000204600F0C5FC0028CAD154F83D0B0168A2
:1007800041F400710160202004F81E09E6776677C5
:100790000020C6E7FFE70220C3E7000002001000C8
:1007A0000000FFFF10B586B0002100910191029179
:1007B000039100680F4988421AD10F4CA06940F09C
:1007C0000800A061A069694600F008000490C020FC
:1007D000009012200190032003900848FFF77EFD4F
:1007E000E06940F40010E061E06900F4001004905A
:1007F00006B010BD0054004000100240000C014043
:10080000024881680278114481607047040000202A
:10081000074810B5016841F010010160032000F0A5
:1008200075F80F2000F006F800F024F8002010BD45
:100830000020024070B50D4D04464FF47A712878BF
:10084000B1FBF0F00A490968B1FBF0F000F0CCFA16
:1008500048B9102C07D200222146501E00F036F86D
:1008600000206C6070BD012070BD000004000020FD
:10087000100000200C4808B5816941F00101816138
:10088000816901F001010091C16941F08051C161AC
:10089000C06900F0805000900448416821F0E06198
:1008A00041F00071416008BD0010024000000140AD
:1008B000002809DB00F01F0201219140400980005F
:1008C00000F1E020C0F8001170470000F0B40E4BBA
:1008D0001B680C46C3F30223C3F10705042D00D99E
:1008E0000425191D072901D2002300E0DB1E012683
:1008F00006FA05F1491E214099409E40761E164099
:100900003143F0BC00F0DABF0CED00E0064900F026
:10091000070208684FF6FF03184040EA0220034A26
:1009200010430860704700000CED00E00000FA057D
:100930002DE9F0470F46050061D0434E306800F0C6
:100940000700B84209D2306820F007003843306011
:10095000306800F00700B84251D128683B4C81074D
:1009600012D5400703D5606840F4E06060602878E5
:10097000000703D5606840F4605060606068A96853
:1009800020F0F000084360602878C00728D068682D
:10099000012810D02168022810D0890700292EDAFA
:1009A000616821F0030101436160FFF799FD804612
:1009B00041F288390DE021688903EFE78901EDE70D
:1009C000FFF78EFDA0EB0801494502D90320BDE8E1
:1009D000F0876068696800F00C00B0EB810FEFD120
:1009E000306800F00700B8420BD9306820F00700EB
:1009F00038433060306800F00700B84201D0012071
:100A0000E5E72878400705D56068E96820F4E060EC
:100A1000084360602878000706D56068296920F4DB
:100A2000605040EAC100606000F028F86168084A40
:100A3000C1F30311515CC8400649086006480068CC
:100A4000FFF7F8FE0020C2E700200240001002403D
:100A5000A2190008100000200800002004480549E1
:100A600000684968044AC1F30221515CC8407047DC
:100A70001000002000100240B21900080E4A516810
:100A80000E4801F00C03042B11D0082B0FD10C4899
:100A9000C1F38343C903C05C0AD55168084AC1F356
:100AA0004041921E515C054A5043B0FBF1F0704743
:100AB00004494843704700000010024000127A00C9
:100AC0009219000800093D002DE9F84F040070D08C
:100AD0002078C04DC00749D06868C0F38100012864
:100AE00007D06868C0F38100022809D16868C00394
:100AF00006D52868800339D560680028E7D035E03E
:100B00006068B0F5803F0BD010B1B0F5A02F11D0C8
:100B1000286820F480302860286820F4802002E0D3
:100B2000286840F480302860606890B1FFF7D8FCF6
:100B300006460AE0286840F480202860F0E700BFFD
:100B4000FFF7CEFC801B642873D828688003F7D594
:100B50000CE0FFF7C5FC064605E000BFFFF7C0FC50
:100B6000801B6428F0D828688003F7D420789A4E38
:100B700080074FF001094FF0000839D5686810F080
:100B80000C0F07D06868C0F38100022809D168689B
:100B9000C00306D42868800714D52069012808D12D
:100BA00010E02069B0B1C6F80090FFF799FC074645
:100BB00005E00AE1FFF794FCC01B0228C4D82868AE
:100BC0008007F7D52868616920F0F80040EAC10085
:100BD00028600DE0C6F80080FFF782FC074604E0BD
:100BE000FFF77EFCC01B022823D828688007F7D4B3
:100BF000207800072CD57948A169D9B1C0F80090B8
:100C0000FFF76EFC074604E0FFF76AFCC01B0228F2
:100C10000FD8686A8007F7D571484FF4FA51006819
:100C2000B0FBF1F0009000BF0098411E0091FAD295
:100C30000EE080E0C0F80080FFF752FC074604E0B9
:100C4000FFF74EFCC01B022875D8686A8007F7D4EE
:100C50002078400760D5E8690027C00008D4E8691B
:100C600040F08050E861E869012700F08050009072
:100C70005C480168C90513D40168834641F480715A
:100C80000160FFF72DFC824606E000BFFFF728FC5D
:100C9000A0EB0A0064284ED8DBF80000C005F5D5AB
:100CA000E06801280AD008B1052813D0286A20F08E
:100CB00001002862286A20F0040002E0286A40F05F
:100CC00001002862E06841F2883B98B1FFF708FC18
:100CD00082460BE0286A40F004002862EEE700BF7D
:100CE000FFF7FEFBA0EB0A0159455AD8286A800796
:100CF000F6D50CE0FFF7F4FB824605E0FFF7F0FBCA
:100D0000A0EB0A0159454CD8286A8007F6D41FB1D8
:100D1000E86920F08050E861E06988B36968C1F350
:100D20008101022944D00228C6F8608004D0FFF770
:100D3000D7FB044638E034E0FFF7D2FB074604E077
:100D4000FFF7CEFBC01B02282BD828688001F7D400
:100D5000206AB0F5803F05D16868A16820F40030B2
:100D600008436860D4E908010843696821F47411F4
:100D700008436860C6F86090FFF7B2FB044606E0DF
:100D800025E000BFFFF7ACFB001B022809D828684C
:100D90008001F7D51BE000BFFFF7A2FB001B022874
:100DA00002D90320BDE8F88F28688001F4D40EE052
:100DB0000128F7D06868226A00F48031914204D19A
:100DC000616A00F47010884201D00120EAE7002037
:100DD000E8E7000000100240000042428004424266
:100DE000100000200070004010B5401EB0F1807F60
:100DF00001D3012010BD4FF0E02460610F21601786
:100E000000F05CFD0020A06107202061002010BDE3
:100E100070B590F83C20012A26D0012480F83C408F
:100E2000022280F83D2003685A689D6822F070060F
:100E30000A6832435A600D4B02689A4208D0B2F1F8
:100E4000804F05D00A4B9A4202D00A4B9A4204D1F5
:100E5000496825F080031943916080F83D400021E6
:100E600080F83C10084670BD022070BD002C014087
:100E7000000400400008004010B5040003D094F8BE
:100E80003D0010B107E0012010BD002084F83C00B7
:100E9000204600F01FF8022084F83D00211D206844
:100EA00000F076FC012084F8460084F83E0084F8C7
:100EB0003F0084F8400084F8410084F8420084F840
:100EC000430084F8440084F8450084F83D00002085
:100ED00010BD000008B500680649884208D10648E0
:100EE000816941F400618161806900F400600090D3
:100EF00008BD0000002C01400010024090F83D1099
:100F0000012901D001207047022180F83D100068BE
:100F10000B49884208D0B0F1804F05D0094988427A
:100F200002D00949884204D1816801F007010629ED
:100F300003D0016841F0010101600020704700000A
:100F4000002C0140000400400008004070B5044639
:100F500090F83C000025012817D0012684F83C6059
:100F6000022084F83D002068826822F0770222F493
:100F70007F4282600868502838D00DDC20284FD08E
:100F800005DC90B3102811D14AE0022070BD302852
:100F900046D040280AD13BE060282FD070280DD0E1
:100FA000B0F5805F03D0B0F5005F12D0012584F862
:100FB0003D60002084F83C00284670BDCB68D1E934
:100FC0000121206800F020FC2068816841F0770151
:100FD00009E0CB68D1E90121206800F015FC206808
:100FE000816841F480418160E1E719E0CA6849689D
:100FF000206800F01BFC5021206806E0CA684968A0
:10100000206800F024FC6021206800F007FCCEE797
:10101000CA684968206800F009FC40212068F4E7AC
:10102000226801461046F0E7FEE701684A69D243AC
:1010300052050FD46FF480624A61002140F8301FDE
:10104000202242738173026942F00402026101733B
:1010500001207047002070472DE9F84304460068DE
:101060000D46DDE9089701689846164641F48071FF
:1010700001604B4600224FF001112046009700F01E
:101080006BF848B120680068C00502D54FF40070C5
:1010900020640320BDE8F883216805F0FE000861A4
:1010A0003B464A461549204600F09EF888B920681C
:1010B0004169806900903A464946204600F0F2F8BE
:1010C00048B1206C042804D12068016841F4007103
:1010D00001600120DEE7F5B2B8F1010F09D0216807
:1010E000300A08613A464946204600F0DBF80028FD
:1010F000E7D1206805610020CCE700000200010074
:1011000070B516460D4604461EE02046FFF78DFFDB
:1011100008B1012070BD681C16D0FFF7E1F9801BF3
:10112000A84200D885B920684069C04340070BD564
:10113000002044F8300F20216173A073216941F031
:10114000200121612073E4E720684069C043400723
:10115000DBD4002070BD00002DE9F047984617460B
:101160000D460446C1F30746DDF820902AE000BF93
:10117000B8F1FF3F26D0FFF7B3F9A0EB09014145D5
:1011800002D8B8F1000F1DD12068012E16D0806959
:1011900025EA00000004000C12D00020B84211D152
:1011A000002044F8300F20216173A073216941F0C1
:1011B0002001216120730120BDE8F0874069E7E745
:1011C0000120EBE72068012E0AD0806925EA0000A3
:1011D0000004000C06D00020B842C9D00020EBE784
:1011E0004069F3E70120F7E72DE9F04798461646F6
:1011F0000D4604464FF000094FF0200AC1F307479F
:1012000023E020684069C043400515D42068016888
:1012100041F40071016021686FF480604861C4F896
:10122000309084F83DA084F83E90216C41F0040198
:10123000216484F83C9021E0701C06D0FFF750F93F
:10124000A0EB0800B04203D816B1012F1FD021E057
:101250002068012F15D0806925EA00000004000CE9
:1012600018D000BF44F8309F84F80DA084F80E9089
:10127000216941F02001216184F80C900120BDE832
:10128000F087406925EA00000004000CEAD12068DC
:10129000406901E02068806925EA00000004000C34
:1012A000AFD1ECE770B516460D4604461EE0204669
:1012B000FFF7BBFE08B1012070BD681C16D0FFF718
:1012C0000FF9801BA84200D885B920684069C04347
:1012D00000060BD5002044F8300F20216173A07365
:1012E000216941F0200121612073E4E72068406911
:1012F000C0430006DBD4002070BD000010B50E4CCA
:1013000008212046FFF7DAF8002813D10F20FEF756
:10131000C5FF08212046FFF7D1F80028F9D007497A
:101320000888401C0880BDE810404FF40051044874
:10133000FFF7C9B810BD0000000801400000002000
:101340000010014070B586B0002529480095019530
:1013500002950395816941F010018161816901F075
:1013600010010491816941F020018161816901F0DE
:1013700020010491816941F004018161816901F0DA
:1013800004010491816941F0080181618069194E6D
:1013900000F008004FF4005404900022214630462B
:1013A000FFF799F80220CDE9025000940124694624
:1013B00001943046FEF792FF0F48104ECDE90040F1
:1013C000694630460294FEF789FF0820CDE9000502
:1013D000694602943046FEF781FF00220121062073
:1013E000FFF774FA0620FFF763FA06B070BD00003D
:1013F00000100240001001400000211000080140D0
:101400000D4810B50B4901600C49416000214FF4B3
:1014100080428160C0E9031241618161C161016262
:10142000FFF764F8002803D0BDE81040FEF734BF92
:1014300010BD00000054004014000020801A060077
:1014400010B586B0002418480094019402940394C7
:10145000049414490594016041F61F41C0E9011448
:101460004FF6FF71C0E9031444618461FFF704FD86
:1014700008B1FEF711FF4FF48050009069460A480A
:10148000FFF764FD08B1FEF707FF049404A90648BE
:101490000594FFF7BDFC002801D0FEF7FDFE06B065
:1014A00010BD0000002C014068000020FEE7FEE7B0
:1014B00070B5002404F1B000C0B2002100F02EF994
:1014C0000021084600F02AF90021102000F026F93A
:1014D00000250121002000F021F96D1CEDB2802DC6
:1014E000F7D3641CE4B2082CE4D370BD10B500211E
:1014F000AE2000F013F90021084600F00FF900219A
:10150000102000F00BF90021402000F007F9002125
:10151000B02000F003F90021812000F0FFF8002145
:10152000FF2000F0FBF80021A12000F0F7F80021D7
:10153000A62000F0F3F80021A82000F0EFF8002129
:101540003F2000F0EBF80021C82000F0E7F8002170
:10155000D32000F0E3F80021084600F0DFF8002176
:10156000D52000F0DBF80021802000F0D7F8002122
:10157000D82000F0D3F80021052000F0CFF800219A
:10158000D92000F0CBF80021F12000F0C7F80021AD
:10159000DA2000F0C3F80021122000F0BFF800218B
:1015A000DB2000F0BBF80021302000F0B7F800216C
:1015B0008D2000F0B3F80021142000F0AFF80021D6
:1015C000BDE81040AF2000F0A9B810B50446B03116
:1015D000C8B2002100F0A2F8102040EA1410002147
:1015E00000F09CF804F00F00BDE81040002100F06E
:1015F00095B800002DE9F041203A00240D468046C0
:10160000D6B27F2803D900208D1C8046EDB2102B66
:10161000294610D0FFF7D9FF164906EB460001EB2B
:1016200040050121285D00F079F8641CE4B2062C25
:10163000F7D3BDE8F081FFF7C8FF0F4F04EB0610AA
:101640000121385C00F06AF8641CE4B2082CF5D380
:101650006D1CE9B24046FFF7B8FF002404EB06100A
:1016600038440121007A00F059F8641CE4B2082CD7
:10167000F4D3DEE7BA190008E21B00082DE9F05F99
:101680000026DDF828901D4692468B46804634465B
:101690004FEA590723E0281B401EC1B20A2000F080
:1016A0006FF9BAFBF0F00A21B0FBF1F201FB120076
:1016B00026B9691E8C4201DA38B101263030C2B237
:1016C00007FB0480C0B24B4604E007FB0480C0B2B5
:1016D0004B4620225946FFF78DFF641CE4B2AC4212
:1016E000D9D3BDE8F09F2DE9F041984617460E4644
:1016F000044600250DE0434631462046FFF77AFFB9
:101700000834E4B2782C02D90024B61CF6B26D1C61
:10171000EDB27A5D002AEED1BDE8F08109B100F0AA
:10172000BBB800F0A7B870477047FFF769B830B58D
:101730008FB028216846FEF747FD14210AA8FEF75E
:1017400043FD01210804CDE9001000240294022584
:101750000491CDE907504FF4E01009906846FFF777
:10176000B3F908B172B6FEE70F20CDE90A054FF4D0
:101770008060CDE90C4002210AA80E94FFF7D8F84A
:10178000002801D072B6FEE70FB030BD70470000F0
:10179000F0B50268194B1A4C1A4D4FF08047984229
:1017A00005D0B84203D0A04201D0A84203D122F014
:1017B00070064A683243984205D0B84203D0A0422E
:1017C00001D0A84203D122F44074CA6822434C6974
:1017D00022F08002224302608A68C2620A68826242
:1017E000984201D109690163012141610169C90779
:1017F00003D0016921F001010161F0BD002C01401D
:10180000000400400008004010B5846842EA03224A
:1018100024F47F440A432243826010BD826822F090
:1018200070020A4342F007018160704710B5036AF5
:10183000046A24F001040462846924F0F00444EA98
:10184000021423F00A020A438461026210BD10B53B
:10185000036A046A24F010040462846923F0A0037C
:1018600024F4704444EA023243EA011182610162C5
:1018700010BDFEE701B584B0012104A864228DE803
:1018800007000B46002278210248FEF7F3FE05B060
:1018900000BD00001400002001B584B0012104A89F
:1018A00064228DE807000B46402278210248FEF7AB
:1018B000E1FE05B000BD0000140000200907090E7C
:1018C000002804DB00F1E02080F80014704700F0ED
:1018D0000F0000F1E02080F8141D704708B5FEF7F6
:1018E00097FFFFF724FFFFF72DFDFFF789FDFFF7B7
:1018F000A7FD1848FFF702FBFFF7F8FDFFF7D8FD3B
:10190000102315A200210C20FFF7EDFE102314A2D6
:1019100002210C20FFF7E7FE102313A204210C2064
:10192000FFF7E1FE102312A206210C20FFF7DBFED9
:10193000012251031048FEF7CEFD104D102400BFC8
:10194000FFF7DCFC009403232A8800213720FFF7EF
:1019500095FEF5E768000020446F6E313A00000004
:10196000555020323A000000446F75333A000000B1
:101970004C6F6E343A00000000100140000000205F
:101980000246012000E05043491EC9B2FBD2704715
:10199000010202030405060708090A0B0C0D0E0FCD
:1019A0001010000000000000000001020304060700
:1019B000080900000000010203040000000000000C
:1019C0000000002F000000000700070000147F1433
:1019D0007F1400242A7F2A12006264081323003631
:1019E0004955225000000503000000001C22410060
:1019F000000041221C000014083E08140008083EA4
:101A00000808000000A0600000080808080800009E
:101A100060600000002010080402003E5149453E6D
:101A20000000427F4000004261514946002141458B
:101A30004B31001814127F10002745454539003CF2
:101A40004A494930000171090503003649494936C0
:101A500000064949291E00003636000000005636AF
:101A60000000000814224100001414141414000093
:101A70004122140800020151090600324959513E21
:101A8000007C1211127C007F49494936003E4141D9
:101A90004122007F4141221C007F49494941007F8A
:101AA00009090901003E4149497A007F0808087F79
:101AB0000000417F4100002040413F01007F0814A9
:101AC0002241007F40404040007F020C027F007FA7
:101AD0000408107F003E4141413E007F090909068C
:101AE000003E4151215E007F0919294600464949BF
:101AF00049310001017F0101003F4040403F001F8C
:101B00002040201F003F4038403F0063140814630A
:101B100000070870080700615149454300007F41F4
:101B2000410000552A552A55000041417F0000041C
:101B30000201020400404040404000000102040055
:101B4000002054545478007F4844443800384444BA
:101B5000442000384444487F003854545418000846
:101B60007E0901020018A4A4A47C007F0804047864
:101B70000000447D4000004080847D00007F1028EC
:101B800044000000417F4000007C04180478007C81
:101B90000804047800384444443800FC2424241801
:101BA0000018242418FC007C08040408004854543D
:101BB000542000043F444020003C4040207C001C56
:101BC0002040201C003C4030403C00442810284469
:101BD000001CA0A0A07C004464544C4414141414B1
:101BE00014140000000000000000000000000000CD
:101BF0000000000000F8000000000000003330008A
:101C0000000000100C06100C060000000000000090
:101C1000000040C07840C0784000043F04043F0406
:101C20000400007088FC08300000001820FF211E0E
:101C30000000F008F000E018000000211C031E2145
:101C40001E0000F00888700000001E2123241927C0
:101C5000211010160E00000000000000000000001F
:101C60000000000000E01804020000000007182037
:101C7000400000020418E0000000004020180700A7
:101C80000000404080F0804040000202010F01024D
:101C90000200000000F0000000000101011F01012E
:101CA0000100000000000000000080B07000000093
:101CB000000000000000000000000001010101011F
:101CC00001010000000000000000003030000000B2
:101CD0000000000000008060180400601806010089
:101CE000000000E010080810E000000F1020201095
:101CF0000F00001010F8000000000020203F2020FE
:101D00000000007008080888700000302824222194
:101D1000300000300888884830000018202020114A
:101D20000E000000C02010F8000000070424243F2B
:101D3000240000F8088888080800001921202011D4
:101D40000E0000E0108888180000000F11202011FC
:101D50000E0000380808C83808000000003F0000E6
:101D600000000070880808887000001C22212122D1
:101D70001C0000E010080810E000000031222211D1
:101D80000F00000000C0C000000000000030300064
:101D900000000000008000000000000080600000E3
:101DA000000000008040201008000001020408101C
:101DB000200040404040404040000404040404042B
:101DC00004000008102040800000002010080402D9
:101DD0000100007048080808F000000000303601DB
:101DE0000000C030C828E810E0000718272423149A
:101DF0000B000000C038E0000000203C2302022756
:101E0000382008F8888888700000203F20202011A2
:101E10000E00C030080808083800071820202010DD
:101E2000080008F808080810E000203F20202010D3
:101E30000F0008F88888E8081000203F20202320A1
:101E4000180008F88888E8081000203F20000300E8
:101E50000000C03008080838000007182020221EA3
:101E6000020008F808000008F808203F21010121BD
:101E70003F20000808F8080800000020203F20202C
:101E8000000000000808F8080800C08080807F007B
:101E9000000008F888C028180800203F20012638D4
:101EA000200008F8080000000000203F202020202B
:101EB000300008F8F800F8F80800203F003F003F25
:101EC000200008F830C00008F808203F200007185C
:101ED0003F00E01008080810E0000F10202020103C
:101EE0000F0008F808080808F000203F2101010150
:101EF0000000E01008080810E0000F1824243850F3
:101F00004F0008F8888888887000203F2000030C64
:101F1000302000708808080838000038202121226D
:101F20001C00180808F8080818000000203F2000CE
:101F3000000008F808000008F808001F20202020F2
:101F40001F000878880000C83808000007380E0114
:101F50000000F80800F80008F800033C0700073C00
:101F60000300081868808068180820302C03032CB0
:101F700030200838C800C83808000000203F200082
:101F8000000010080808C838080020382621202042
:101F90001800000000FE020202000000007F404026
:101FA0004000000C30C000000000000000010638B6
:101FB000C00000020202FE000000004040407F001E
:101FC0000000000004020202040000000000000003
:101FD0000000000000000000000080808080808001
:101FE00080800002020400000000000000000000E9
:101FF000000000008080808000000019242222223E
:102000003F2008F8008080000000003F11202011D0
:102010000E000000008080800000000E11202020B3
:102020001100000000808088F800000E11202010B0
:102030003F200000808080800000001F222222229A
:102040001300008080F0888888180020203F20201E
:1020500000000000808080808000006B9494949346
:10206000600008F8008080800000203F21000020F0
:102070003F2000809898000000000020203F202092
:102080000000000000809898000000C08080807FE1
:10209000000008F8000080808000203F24022D30DE
:1020A0002000000808F8000000000020203F202049
:1020B00000008080808080808000203F20003F20C2
:1020C000003F8080008080800000203F21000020B1
:1020D0003F200000808080800000001F2020202002
:1020E0001F00808000808000000080FFA120201160
:1020F0000E000000008080808000000E112020A0D3
:10210000FF80808080008080800020203F21200090
:10211000010000008080808080000033242424247B
:102120001900008080E0808000000000001F202057
:1021300000008080000000808000001F2020201010
:102140003F20808080000080808000010E300806E3
:10215000010080800080008080800F300C030C30F4
:102160000F0000808000808080000020312E0E3122
:102170002000808080000080808080818E70180622
:10218000010000808080808080000021302C22218E
:10219000300000000000807C020200000000003FD0
:1021A000404000000000FF00000000000000FF00B1
:1021B00000000002027C800000000040403F000060
:1021C00000000006010102020404000000000000FB
:1021D00000000000F42100080000002014000000AE
:1021E000280100080822000814000020FC06000056
:1021F0004401000800000000010000001000000081
:082200000000000000127A004A
:04000005080000ED02
:00000001FF
